:020000040800F2
:10000000C0070020F50100085D2C0008052100084C
:1000100000000000000000000000000000000000E0
:10002000000000000000000000000000612C00083B
:1000300000000000000000005F2C0008892D00086F
:10004000070200080000000007020008070200087D
:10005000070200080702000807020008070200085C
:10006000000000000702000807020008070200085D
:10007000070200080702000807020008000000004D
:10008000070200080000000000000000070200084E
:1000900000000000312E00080702000809210008B6
:1000A000000000000702000800000000070200082E
:1000B00000F002F800F072F80CA030C808382418DC
:1000C0002D18671EA246AB4654465D46AC4201D190
:1000D00000F064F87E460F3EB6460FCC0126334250
:1000E00000D0FB1A3343A246AB4618472443000016
:1000F00044430000103A02D378C878C1FAD85207B6
:1001000001D330C830C101D504680C6070470000CD
:100110000023002400250026103A01D378C1FBD823
:10012000520700D330C100D50B60704710B5692964
:1001300002D100F0F9F810BD642902D100F0F4F802
:1001400010BD752902D100F0EFF810BD6F2902D162
:1001500000F07EF910BD782902D100F0A1F910BDA0
:100160000368DB0901D380231943632902D100F01E
:100170002DFD10BDE32902D100F03FFD10BD002090
:1001800010BD1FB500F0A8FE04000020002103F000
:1001900065FE401C60601FBD10B510BD00F07CFE08
:1001A0001146FFF7EEFF03F04DF800F099FE03B49F
:1001B000FFF7F2FF03BC00F02FFF000070B505460B
:1001C0000C46164602E00FCC0FC5103E102EFAD298
:1001D000082E02D303CC03C5083E042E07D301CC5E
:1001E00001C5361F03E021782970641C6D1C761E42
:1001F000F9D270BD0748804707480047FEE7FEE791
:10020000FEE7FEE7FEE7FEE704480549054A064B20
:10021000704700002D2E0008B1000008C00100202A
:10022000C0070020C0030020C00300200FB41CB58D
:100230000C0007AA009001D00019401E084B7B4417
:1002400069460190069800F096FC002C03D06946A0
:10025000002000F0A3FC1CBC08BC04B01847000040
:100260006509000070B5044685690068C10601D5BE
:10027000302600E02026C00707D070BD62683046F7
:10028000A1689047206A401C20626D1EF6D570BDA3
:1002900070B5044685690078C00707D170BD6268F3
:1002A000A16820209047206A401C20626D1EF6D570
:1002B00070BD09684A0501D540B27047C905FCD533
:1002C00000B2704709684A0501D5C0B27047C90538
:1002D000FCD580B2704770B50C460546012A05D0A2
:1002E0002878800600D5EA69002302E0012305E0B2
:1002F0005B1C934202D2E05C0028F9D1A869E618A1
:10030000C01AA861286AC01828622846FFF7AAFF09
:1003100004E06A682078A968641C9047B442F8D366
:100320002846FFF7B5FF70BDF7B5002575291068A1
:10033000009914A611D0FFF7BCFF002802DA404252
:1003400011A608E0009909688A0701D50FA602E006
:10035000490704D50EA6012501E0FFF7B3FF009F72
:100360000024243704E000F075FC30313955641C5A
:100370000028F8D12B4632462146009800F09EFB1B
:10038000FEBD0000000000002D0000002B0000005A
:1003900020000000F7B50446154686B02B48784487
:1003A000002703C83E460090019111E007986A4675
:1003B0007100415A02A800F02CFC411C07D02178A2
:1003C000890603D5E269391891420ED83F18761C88
:1003D0002078800602D5E069B84206DDAE42E5DB52
:1003E00007987100405A0028E0D1A069C01BA061A5
:1003F0002046FFF737FF154878445A3803C8009065
:100400000020019116E041006A460798415A02A86F
:1004100000F0FFFB0590401C0AD0002505E0626853
:1004200002A8A168405D90476D1C05988542F6D3EF
:100430000498401CB0420490E5DB206AC019206299
:100440002046FFF725FF09B0F0BD0000463D000043
:1004500070B5044621461068FFF734FF0021254699
:10046000243505E04207C008520F30326A54491C57
:100470000028F7D12068002307A2050708D520250A
:100480002840084304D0E069012304A2401EE06133
:10049000204600F013FB70BD00000000300000009B
:1004A00070B504460D4621461068FFF70BFF218802
:1004B000090502D50F4A7A4402E00E4A7A440E3208
:1004C00023460021243305E006070009360F965D18
:1004D0005E54491C0028F7D120780023000705D579
:1004E000702D03D0002901D002231132204600F0E4
:1004F000E5FA70BD363C0000F3B50446002081B03B
:1005000020622046E1688847002872D0252802D062
:100510006268A168ABE0594F00267F442046E1683D
:1005200088472028054608DB312D06D27819203867
:100530000078002801D00643F0E7B00701D5042079
:1005400086430020E0610746A0612A2D0AD0284694
:1005500003F066FC002827D0B8000019303D009059
:10056000856119E00298BA00121902C891610290DF
:100570002046E1688847012F054617D1E069002829
:100580001FDA202086431CE000980A218069484336
:1005900000994019303888612046E168884705464F
:1005A00003F03EFC0028EFD1012F0AD02E2D08D1F8
:1005B0002046E16888470546202006437F1C022F1D
:1005C000C3DBA069002803DA4042A0610120064392
:1005D000F00701D0102086436C2D0BD0682D09D078
:1005E0004C2D3CD06A2D38D0742D38D07A2D36D091
:1005F00016E040E0E1682F4620468847B8420546AD
:1006000009D16C2F29D001208002E16806432046E1
:100610008847054604E06C2F1DD0FF2001300643BB
:10062000002D28D028464138192803D80120C002BF
:1006300006432035204626602946029A1646FFF7D3
:1006400075FD002810D001280BD0F61DF008C00061
:100650000830029055E74020E1E78020D5E70020F0
:10066000D3E7361D02964CE762682846A16890479A
:10067000206A401C44E7206AFEBD0000FA3B0000EF
:10068000F8B5042A2CD3830712D00B78491C0370C9
:10069000401C521E83070BD00B78491C0370401C72
:1006A000521E830704D00B78491C0370401C521E55
:1006B0008B079B0F05D0C91ADF002023DE1B08C95A
:1006C0000AE0FFF77BFDF8BD1D4608C9FD401C464A
:1006D000B4402C4310C0121F042AF5D2F308C91AE3
:1006E000521EF0D40B78491C0370401C521EEAD4F1
:1006F0000B78491C0370401C012AE4D4097801706E
:10070000F8BD01E004C0091F0429FBD28B0701D505
:100710000280801CC90700D00270704700290BD0EE
:10072000C30702D00270401C491E022904D383076C
:1007300002D50280801C891EE3E70022EEE700223A
:10074000DFE70000002203098B422CD3030A8B420F
:1007500011D300239C464EE003460B433CD40022B9
:1007600043088B4231D303098B421CD3030A8B42CB
:1007700001D394463FE0C3098B4201D3CB01C01A99
:10078000524183098B4201D38B01C01A5241430964
:100790008B4201D34B01C01A524103098B4201D352
:1007A0000B01C01A5241C3088B4201D3CB00C01ABF
:1007B000524183088B4201D38B00C01A5241430837
:1007C0008B4201D34B00C01A5241411A00D201465C
:1007D0005241104670475DE0CA0F00D049420310F5
:1007E00000D3404253409C46002203098B422DD344
:1007F000030A8B4212D38901FC2212BA030A8B42EC
:100800000CD3890192118B4208D3890192118B423A
:1008100004D389013AD0921100E08909C3098B42BF
:1008200001D3CB01C01A524183098B4201D38B0102
:10083000C01A524143098B4201D34B01C01A5241A5
:1008400003098B4201D30B01C01A5241C3088B42EA
:1008500001D3CB00C01A524183088B4201D38B00D5
:10086000C01A5241D9D243088B4201D34B00C01A5F
:100870005241411A00D201465241104663465B1074
:1008800001D34042002B00D54942704763465B10BC
:1008900000D3404201B50549002802DC491C08404C
:1008A00000E00846C046C04602BD00BFFFFFFF7F14
:1008B0007047704770470000F0B5FF252D04C6094A
:1008C000C209FF2704462E400137CB093E4348406A
:1008D0002A402B400746002A6BD0002B69D0AA4241
:1008E00067D0AB4265D0002800DA32460125ED051D
:1008F00029432C4309022002090AD21A4B0C7F24F7
:10090000E31A434C000A7C44E35C7D24240412195E
:1009100014145B00A218884201D3521C00E040006E
:1009200049420C465C4324115C43DB016415E31827
:10093000040A5C43C502200D0C4644436419250A91
:100940005D432303EC0C0D46654300030019EB18CF
:100950004C42A34201D35B18401CD4052018002B45
:1009600007D05B00C91804D3401C002901D14008FE
:1009700040003F2189048A4209D3002A08DC11067D
:10098000090F04D0032149074018C00FC007F0BD6C
:1009900001224100120689187F2252069142F6D2A6
:1009A00005214907C84201D59010F0BDFF20C005C0
:1009B000F0BD002F00DA32461648AA4207D2AB42F9
:1009C00005D21902090E17D0F80FC007F0BDFF2598
:1009D00063002D06AB42F9D84900A942F6D8AB42D4
:1009E00001D1A942F2D0A94201D1002101E0610068
:1009F0004908D0050843F0BD1102090EFBD0FF20C5
:100A00000243D005F0BD0A460146104654E70000F7
:100A10001F3800000000C07F0102C21504D001236E
:100A2000DB071943002A0ADB9E239A1A02D40846E0
:100A3000D0407047FF2241001206914201D90020A8
:100A40007047C017C04370471F22030C02D10F220A
:100A500000041CD0030E01D10002083A030F01D19B
:100A60000001121F830F01D18000921E002801DBBC
:100A70004000521ED20551180212511819229040FE
:100A800004D3491C002801D1490849000846704791
:100A9000C10FC90700D04042012292071143D3E79A
:100AA00001218907D0E710B500F0BCF9006810BD3E
:100AB00010B5044600F0B6F9046010BDFFB5044659
:100AC0000D4681B0243000902168880604D510229C
:100AD000E0699143216000E00120A84201DD471B4D
:100AE00000E000270498A1697A191018081AA0617B
:100AF0002078C00602D42046FFF7B4FB002608E0A9
:100B000003986268A168805D9047206A401C761C4B
:100B1000206204988642F3DB2078C0060AD520467E
:100B2000FFF7A0FB06E06268A16830209047206ACA
:100B3000401C206238467F1E0028F4DC07E0009845
:100B40006268A168405D9047206A401C2062284688
:100B50006D1E0028F3DC2046FFF79AFB2078000684
:100B600002D5022005B0F0BD0120FBE701694A1C57
:100B700002610878704700B58FB00291002105919D
:100B80000549019379440391114604906846FFF7A3
:100B9000B3FC0FB000BD0000E5FFFFFF0A68107056
:100BA000521C0A6070470CC908399A4202D2531C81
:100BB0000B601070704710B54369002B02D0C0461F
:100BC000C04601E0FFF787FB012010BD1278014607
:100BD00024310A7000224A700122ECE711680022D9
:100BE000D243E8E710B54369002B02D0C046C046A7
:100BF00001E0FFF7CFFB012010BD12880146243130
:100C000082840022C2840122ECE711680022D243D0
:100C1000E8E7F8B516460C46054600F0FBF8036811
:100C2000FF200230C05C012807D0FF2C0FD8185DD0
:100C300000280CD001202C70F8BDFF33324621462D
:100C400008331868C71828460023B847F8BD0020A5
:100C5000C043F8BD01468008081A02091018020AAC
:100C60001018020C1018C008820012185200891ABD
:100C700001E0401C0A390A29FBD27047F0B5FF2277
:100C8000C30D14469C43C30FDB07002C68D0CC0D6A
:100C9000A24365D0FF242404CD0925402E46002818
:100CA00001DA05221543C20922406AD0254268D0E4
:100CB0000124E40700020B02E70BE91B2043234356
:100CC0000225012609E0A943A04204D32943C01A02
:100CD00001D5404271404000D21B8A42F3DC14141B
:100CE0000D14AC4207DB984205D398422BD05B0031
:100CF000C01A40427140B0402AD2002826DB1ED0E4
:100D000020240346050C01D010242B461D0A01D0D7
:100D10002B46083C1D0901D02B46241F9D0801D0FD
:100D20002B46A41E5D0801D0A41E00E0E41A641C3A
:100D3000A0402304D21A002A0CDCC807F0BD4807E3
:100D4000C00FC007F0BD8C07D5D5D0E74000D21B3F
:100D5000002AF2DDD201430A1343C8071843F0BD4D
:100D6000FF221206490091420FD8410014469142D9
:100D70000BD8A14209D052429142F0D24100EED0AC
:100D800001E0002E01D01846F0BD0148F0BD000082
:100D90000000C07FC10D10B50906090E2ED0FF2935
:100DA00031D07E292DD319D0962916D20246753915
:100DB0008A4005D0002402468A4003D3012302E082
:100DC0000124F8E700230222CA41511E8843002B68
:100DD00003D08018002C00D0904310BD01214202A6
:100DE00001D1012200E00022C00FC0070029F4D089
:100DF000002AF2D17F21C905084310BDC00FC007EA
:100E000010BD0021EFE74102FAD0014810BD0000FB
:100E10000000C07F10B500F05FF8001D10BD00BFDE
:100E20003D300000004870471800002010B5FF2337
:100E30001B0644009C421DD84C009C421AD8034615
:100E4000124A0B4307D4401A02D3EFF3008010BDBF
:100E5000EFF3008010BD081A03D3EFF30080904336
:100E600005E0EFF3008001219043C907084380F3B8
:100E7000008810BD0D231B041A4204D01146002027
:100E800000F036F810BD00F04BF810BD00000090E7
:100E900000487047180000207546FFF7F9FFAE467E
:100EA000050069465346C008C000854618B020B505
:100EB000FFF7AAF960BCB64600260027C0C5C0C52A
:100EC000C0C5C0C5C0C5C0C5C0C5C0C5403D490836
:100ED00049008D46704700000048704738000020E8
:100EE00010B50446C046C0462046FFF760F910BD65
:100EF000C80212D54803400F002804D0C803C043DD
:100F0000012188407047EFF30080000100090321B0
:100F10000907084380F300887047002070470000ED
:100F200010B5024800F048F810BD00000000C07F76
:100F3000024670B50A4392072AD11E4DEE0104C83D
:100F400008C9541B9443344017D0D0B2D9B2401AC8
:100F50002106014310D190B299B2401A21040143F5
:100F60000AD110021902000A090A401A210201439B
:100F700002D1100E190E401A70BD9A42DFD010BA7D
:100F800019BA884201D9012070BD0020C04370BD4C
:100F900002780B78401C491C002A09D09A4207D1DC
:100FA00002780B78401C491C002A01D09A42EFD0ED
:100FB000D01A70BD0101010110B50C461107090FCF
:100FC000092904D00A290AD008290CD104E01146C5
:100FD0000820FFF78DFF06E0510606D501E0510617
:100FE00001D50120C007214610BDD10607D501015A
:100FF0000909CC084907000E0006044309E0410F27
:1010000020024907000A0143200E00061D22D1419B
:1010100001430846E7E7000001491820ABBEFEE7A0
:1010200026000200704700214160C1607047000047
:1010300010B584B00446FF200091019202900C4844
:10104000A0210223224600F0D3FA04B010BDC0460E
:1010500010B584B00446FF2000910192029004482C
:10106000A0210223224600F097FB04B010BDC04629
:10107000EC000020EFF3108072B6FEE770B5044676
:10108000E1200501E66830462946FFF75BFBA080BA
:101090004543761BB0B23C252946FFF753FBA071B0
:1010A0004543701BE07170BD70B504460178417016
:1010B0000B48FFF747FB0546A060E12006012846E4
:1010C0003146FFF73FFB60804643AE1BB0B23C2584
:1010D0002946FFF737FB20714543701B607170BDD7
:1010E00080C6130070B50446E1200501A6683046AD
:1010F0002946FFF727FB20804543761BB0B23C25ED
:101100002946FFF71FFBA0704543701BE07070BDC0
:10111000014800687047C04694000020B0B5212106
:10112000415C022917D101462031026813680E2460
:10113000A343136013680125AB431360C26B036CB8
:101140002C469C40546000240C704D70416B00296B
:1011500004D0884702E00421816301242046B0BD09
:10116000F0B589B00A68002A00D1A8E004465548C5
:10117000844201D0052000E00320009001200023DC
:101180001F460390054607930595681E039E06902B
:101190008640324000D187E0049701924F681020CA
:1011A000384312280D460FD11C20049908400F2106
:1011B0008140069AD3089B00E3181A6A8A4329697A
:1011C0008140114319626F68294603223846104056
:1011D000079DA8400292AA402368934303432360DB
:1011E000D043122F11D80122BA40394B1A420CD0E9
:1011F000A2680240CB68AB401343A3603A09069B48
:101200009A406368B34313436360E26802408868AE
:10121000A8401043E060F800049F45D52B4A1068B1
:101220000123184310601068184008900C263E40B7
:101230000F22B240069D029885430898254FE85931
:101240009043EF190922D206944209D0224A9442CF
:1012500007D0224A9442009B019D03D1022301E062
:101260000023019DB34003433B60174E3368486839
:10127000C20301D52B4300E0AB43049F3360736886
:10128000820301D52B4300E0AB437360B368C20215
:1012900001D52B4300E0AB43B360F268800201D577
:1012A0002A4300E0AA43F2600A681046059DE84020
:1012B000079B9B1C3F1D6D1C002800D063E709B0F5
:1012C000F0BDC046000C0048000401401810024068
:1012D000060006000800014000040048000800481D
:1012E000014800687047C04658010020B0B502466A
:1012F0004120135C0220202B19D1134640331C7867
:10130000012C14D024205870106802680124A243D4
:101310000260220305689543056002680A43026083
:101320000168214301600020187020215970B0BD70
:10133000B0B502464120135C0220202B19D1134680
:1013400040331C78012C14D0242058701068026897
:101350000124A24302600F2212020568954309028C
:101360002943016001682143016000201870202199
:101370005970B0BD70477047F0B581B001688C6995
:101380000A68802313400122E50506D5002B04D00E
:101390001502466C16434664CD61650507D5002BE2
:1013A00005D09502466C082737434764CD61A405F4
:1013B00007D5002B05D05202436C02241C43446421
:1013C000CA61416C0B22114201D000F011FF01B043
:1013D000F0BD80B502689169436B1268002B00D0A4
:1013E000984780BD70470000F0B581B0002822D03A
:1013F0000446054640356878002804D1002028704E
:10140000204600F095FA24206870206802680121C7
:101410008A4302600F221206636893430361836864
:10142000184A13408360A368E668012E05D1CE03F5
:101430003343836009E0012022E02127BF023B43C0
:101440008360022E01D1CB02436043680E4E1E43DF
:101450004660C3681340C360226963691343A2698D
:1014600012021A43C260E269236A134303600268EE
:101470000A43026000206064202169702063A87024
:1014800001B0F0BDFF7FFFFF008000027047000049
:10149000F0B587B01646054641202A5C0220202A76
:1014A00017D11F462A4640321378012B11D00691DE
:1014B000012414700492FFF713FF03900090E103DE
:1014C000192328460594224601F042F9002802D04B
:1014D000059807B0F0BD039C2120049948701020A6
:1014E0008870002068646F856E6202906863688D02
:1014F000000AA448A44B09D0069901402E687268DE
:101500001A400A43331DFF21384F0BE0698D2E68C6
:1015100077681F40069A0240CBB21B049A183A43E0
:10152000331D314F0C9E17431F602985698D00299B
:10153000224643D0069901400691964F28463146EF
:1015400001F063F90028C3D12868696A0A788262C9
:10155000688D401E6885481C6862288D411E29855B
:10156000688D090426D1002824D00094802100220F
:101570002846334601F0ECF80028A9D1688D000A0E
:1015800009D0FF202885296848683840069A10430A
:101590000A1DE4490CE0688D28852A6851683940A5
:1015A000C0B20004069BC018084301214906121D61
:1015B00001431160688D00282246BFD1284631467C
:1015C00001F0FBF800280499059882D128680C46A0
:1015D0002021C1614268D54B13404360617002987D
:1015E0002070A07075E7C046002000820020FF81B7
:1015F000F0B589B01646054641202A5C0220202A13
:101600003FD10E9C002C39D00F9A002A36D0079279
:101610002A4640321778012F33D0049308910127CE
:1016200017700592FFF75CFE03900090F9031923F1
:10163000284606973A4601F08BF800281CD1109AEC
:1016400022200599487040208870002068646C62F0
:10165000029068630798688507920092039C019442
:101660002846089F39463246049B00F05FFF002859
:1016700009D0059802990170069802E00120410204
:10168000696409B0F0BD2646079C688D000AA4482D
:101690003D4A09D0074028684168114008973943FE
:1016A000021DFF203A4B0DE0688D2B685A683649C1
:1016B0000A409B490F40C1B209040897C919114358
:1016C0001A1D324B0B4313602885234600960421D4
:1016D000002728463A4601F03BF80028CCD1686A3A
:1016E0002968496A0170688D401E6885686A401CD7
:1016F0006862288D411E2985688D0904234628D1FA
:10170000002826D0009680210022284601F020F8EB
:101710000028B1D1688D000A0AD0FF2028852968E9
:101720004868814A1040089A10430A1D7D490DE01F
:10173000688D28852A6851687B4B1940C0B2000427
:10174000089BC018084301214906121D2346014386
:101750001160688D0028B9D128461946324601F03B
:101760002CF800280698059A8BD128682021C161A1
:10177000144642686D4B1340436061702770A77038
:1017800038467EE7FF0300000098007C00240082BA
:101790000024FF81009C00FCF0B589B01646054688
:1017A00041202A5C0220202A3CD10E9C002C36D0FD
:1017B0000F9A002A33D008922A4640321778012F18
:1017C00030D003930591012717700692FFF788FD2B
:1017D00004900090F9031923284607973A4600F031
:1017E000B7FF002819D1109A21200699487040208F
:1017F000887000276F646C626F6308986885029236
:101800000092049C0194284605993246039B00F0FF
:10181000CBFE002808D006980770079802E0012048
:101820004102696409B0F0BD0397012007904606A4
:10183000688D000A3A493B4B3B4F089609D0059A00
:101840000A4028684168394017461143021DFF20AD
:101850000DE0688D2A6853683B40059C0C40C1B27E
:10186000090427460919049C1943121D3346029E98
:101870000B431360288528463146224600F0C5FFF9
:101880000028CAD12868696A0A788262688D401E79
:101890006885481C6862288D411E2985688D090469
:1018A00025D1002823D000948021002228463346E9
:1018B00000F04EFF0028B0D1688D000A09D0FF204B
:1018C000288529684868184A10403843091D154A78
:1018D0000BE0688D288529684A68134B1A40C0B20E
:1018E0000004C0191043091D089A02430A60688D5C
:1018F0000028C0D128463146224600F05EFF00286D
:101900000798069A8ED128682021C1611446426842
:10191000064B13404360617003982070A07081E70C
:10192000FF0300000000FF01009C00FC00E800FE37
:1019300070B586B000681749884229D10126700425
:10194000154D296801432960296801400091042050
:10195000059000240394122002900320049040027A
:10196000019000980920C00601A9FFF7F9FB700556
:10197000A9680143A960A968014000910098172552
:1019800028462146224600F067F8284600F058F81D
:1019900006B070BD005400401410024070477047FC
:1019A0001A48007802490A68101808607047C04653
:1019B0005801002080B5B548016810220A43026032
:1019C000032000F005F800F025F8002080BDC04697
:1019D000B0B504467D20C0000C490978FEF7B2FE80
:1019E0000146AD480068FEF7ADFE00F071FB012531
:1019F000032C09D8002807D10025E84321462A46B0
:101A000000F02AF8024804602846B0BD0C0000200F
:101A10001000002082B009480168012211430160D2
:101A20000168114001910199110742680A4342601F
:101A3000406808400090009802B0704718100240BB
:101A4000002805D41F210840012181400148016080
:101A50007047C04600E100E0002805D40322034699
:101A600093430C4A9A1806E00F220240083A0323D7
:101A70009A43074BD2188007C00E8901C9B2814032
:101A8000FF23834010689843084310607047C046A6
:101A90001CED00E000E400E0F0B585B0044680787D
:101AA000C007384B4AD0012003900107186808404E
:101AB000029006D11868084318601868084004901E
:101AC00004980191304E3068C00511D40398070284
:101AD000306838433060FFF703FC05463068384211
:101AE00006D1FFF7FDFB401B6428F7D9032537E03B
:101AF00003252802234B5968014012D06268024036
:101B000091420ED00398000459685A6802435A6003
:101B10005A6882435A6008461C4A10405860C807F9
:101B200021D15868194908406168014359600298F9
:101B3000002803D118680199884318602068C107FC
:101B400005D0596903229143A2680A435A610025CE
:101B5000800605D5586910218843E1680143596121
:101B6000284605B0F0BDFFF7BBFB0646484F054BC6
:101B700058688007D5D4FFF7B3FB801BB842F6D96D
:101B8000EEE7C0461C10024000700040FFFCFFFF63
:101B9000F0B581B000284CD004463C4A13680120BF
:101BA00003408B4208D213680126B3430B431360F2
:101BB000126832408A4266D1009121688A070ED5A8
:101BC0004A0705D507221202424D2B6813432B60AA
:101BD000404D2A68F0239A43A36813432B60C9073A
:101BE00029D12A49086801263040009A904205D937
:101BF0000868B04308600868C00744D120784007EF
:101C000007D507200002334A11688143E068084382
:101C1000106000F043F82F4909680906090F1D4AB2
:101C2000515CC8401C4908600320FFF7D1FE002624
:101C300029E0012627E06168264A121F022904D004
:101C4000012905D11268920304E01268920101E0B3
:101C500012689207064616D51E4A10680326B0433E
:101C600008431060FFF73CFB0746094D1948006820
:101C70000C210140606880008142B2D0FFF730FB48
:101C8000C01BA842F2D9304601B0F0BD002002408E
:101C900088130000694100080000002010B50D49BC
:101CA0000A680C2313400C48082B08D193021B0F21
:101CB0000AA4E45C896AD20303D4104807E004460E
:101CC00006E00F22114009A2515CFEF73BFD4443A0
:101CD000204610BD0410024000127A0002030405E1
:101CE000060708090A0B0C0D0E0F10100102030461
:101CF00005060708090A0B0C0D0E0F1000093D0020
:101D0000F0B587B004460120002C00D197E1049083
:101D10002078C007EB4E059425D071680C20014057
:101D200004291AD071680140082902D17068C003E3
:101D300013D4616801204704002900D12AE1052954
:101D400000D13EE1012900D13FE1010432688A431C
:101D500032608104306888433AE13068800302D5FC
:101D6000606800282ED02078800744D5706800076E
:101D7000800F07D070680C21014008290ED17068CF
:101D8000C0030BD430688007059A02D5D0680128BB
:101D900018D13068F8218843116929E03068059C22
:101DA000E168002910D0012108433060FFF798FA5C
:101DB00005463068800717D4FFF792FA401B0228C7
:101DC000F7D912E104983AE1012188433060FFF726
:101DD00087FA0546306880070DD5FFF781FA411B69
:101DE00003200229F6D92AE13068F82188432169C5
:101DF000C90001433160059C2078000722D4207877
:101E0000400732D42078C00600D4F8E0059A506923
:101E1000411D6ED0012875D1706B0421014371639F
:101E2000706B012101437163FFF75AFA0546706B2D
:101E3000800700D5DBE0FFF753FA411B032002299E
:101E4000F5D9FCE0706AE169002943D0012108431B
:101E50007062FFF745FA0546706A8007CFD4FFF736
:101E60003FFA401B0228F7D9BFE001200390010789
:101E7000F0690840029006D1F0690843F061F0690A
:101E800008400690069801918F4F3868C00510D41D
:101E900003980402386820433860FFF721FA0546AA
:101EA0003868204205D1FFF71BFA401B6428F7D998
:101EB0009BE005988068854F002838D005284BD0D6
:101EC00001284DD0306A039988433062306A04217A
:101ED000884348E0012188437062FFF701FA054614
:101EE000706A80078BD5FFF7FBF9401B0228F7D9F2
:101EF0007BE0706B042188437063706BF82188432A
:101F0000916979E0706B042101437163706B012169
:101F100088437063FFF7E4F90546706B80076ED560
:101F2000FFF7DEF9411B03200229F6D987E0306A6A
:101F3000039988433062306A042188433062FFF796
:101F4000CFF90546306A80071AD5FFF7C9F9411B5A
:101F50000320B942F6D972E0306A042101433162AC
:101F6000306A039908433062FFF7BAF90546306AD0
:101F7000800705D4FFF7B4F9401BB842F7D934E025
:101F800002980028059C00D03CE7F069019988433D
:101F9000F06137E7010432688A43326080043168B7
:101FA00081433160FFF79CF90546059C3068384253
:101FB00000D1D8E6FFF794F9411B03206429F5D935
:101FC0003DE0810432680A4332600104306808430E
:101FD0003060FFF785F905463068384200D0C2E628
:101FE000FFF77EF9401B6428F6D9032027E0706BC9
:101FF000F821884305998969C900014371630598EF
:10200000046A002C1AD070680C210140082918D1EC
:10201000012C049813D00120030471680B40F26A6C
:10202000059D6C6AA3420AD10F231A40EC6AA242B2
:1020300005D19A041140AA6A914200D1002007B04C
:10204000F0BD0120020631680492914331604706D9
:10205000FFF746F90546022C0AD1049C3068384245
:1020600010D0FFF73DF9411B03200229F6D9E6E71E
:1020700030683842E2D0FFF733F9411B03200229D0
:10208000F6D9DCE7F06A0F218843059AD16A01434B
:10209000F1623D20000471688143906A0843516AEF
:1020A00001437160306820433060FFF719F904463E
:1020B00030683842C2D1FFF713F9011B032002290F
:1020C000F6D9BCE700100240007000408813000001
:1020D000401E010E01D0012070470749074A506099
:1020E000074803680B400321890759180160002045
:1020F0009060072111607047FFFFFF0010E000E0D3
:1021000020ED00E0FEE7000080B507480068806928
:102110004005400F03D00448FFF72EF980BD024868
:10212000FFF757F980BDC046EC00002080B5406A3B
:10213000816B00224A63C16B4A634121415C602983
:1021400006D10146413120220A70FFF713F980BD04
:10215000FFF748F980BD0000F0B583B04121415C34
:1021600028220A40056806464036282A1ED1A96959
:10217000AC69AA680292EB68FE22240CC903C90F5D
:10218000C768022F17D101911946029BDF096740EA
:102190007C07A40F1BD00B461340002232702A6824
:1021A000B824A2432A6001991A460CE0002030703E
:1021B0000820E86109E0002333702B68B826B34398
:1021C0002B6014402246FFF7D6F803B0F0BD826CB6
:1021D000521C8264826C022AF7D1F14C1A462240CA
:1021E0000023836433700823EB610199EBE7C04659
:1021F00070B504464123C65C42220020A0548D4D98
:10220000E5626085656C0D436564E55C283E2146AA
:102210004031022E0AD828231D40282D00D0F2225A
:102220004D781D40282D0CD0B4250BE04A7822684B
:102230001368FE25AB4313604B78602B09D105462C
:102240000AE00425154322681668AE431660214D46
:1022500001E0202305464B70206365631368106816
:102260005B040CD400041BD4487860282CD10020D7
:102270000870202048702046FFF77CF870BD0123CD
:102280009B0398431060A06B002822D000220A70A4
:1022900011494163FEF742FF00281AD0A06B10E0FD
:1022A0000120C003136883431360E06B002810D043
:1022B00000220A7008494163FEF730FF002808D069
:1022C000E06B416B884770BD002008702046FFF727
:1022D00089F870BD292600082D210008B0B5554A9F
:1022E000C2620022026341232024C4544223C25408
:1022F000426303464033490712D5416A0468646A61
:102300000C70416A491C4162018D002908D0448D3E
:10231000641E4485491E0185416C04240C434464B9
:102320005978597801680C68FE25AC430C601A7026
:102330001022CA61FFF7AAF8B0BDC046F0B581B05F
:102340000D4604460068016820220092C2614122C5
:10235000A35CA25C0268FE239A4302600123DA03B5
:1023600046681643466046686F4F37404760866947
:10237000B60701D5002686628669F60702D186690E
:102380001E4386614B0403D4114207D0E16B00E089
:10239000A16B002902D009684968618569070FD5DA
:1023A000616A406A0870606A401C6062042085436C
:1023B000208D002804D0401E2085608D401E608541
:1023C00027464037608D002803D0606C042101430C
:1023D000616400262663BE706663606C00280BD0C3
:1023E000616C2046FFF704FF7878282820D120462A
:1023F0002946FFF773FF1BE0E06AD44DA84209D1DC
:102400003E7078780099797022280ED12046FFF727
:10241000C5FA0DE0204600F00FF8E5623E70009826
:1024200078702046FFF732F802E02046FFF7B7FA4F
:1024300001B0F0BD0000FFFF10B542220021815421
:102440004122835C02464032292B0CD12823537051
:1024500021240463117052781A40F421C943282AB8
:1024600017D0891C16E053782A2B11D128235370DA
:1024700022240463117052781A40F421C943282A97
:1024800000D1B031026813680B401360FFF786FA81
:1024900010BDB231026813680B401360FFF77FFA7A
:1024A00010BD0000F0B581B00E4604460068816999
:1024B000C90601D4002035E01546274640370146BD
:1024C00018310A6892060FD4711C08D0FEF708FF75
:1024D0002021002E1DD0401BB0421AD820688169EF
:1024E0008906F1D5014618311022C2612022C2614D
:1024F0008269920701D5002282620A68D20703D15D
:102500000A68012313430B604168074A0A4042608E
:102510000421606C084360642020787000203870CB
:10252000B870012001B0F0BD00E800FEF0B583B046
:102530001D460292044600684268384B1340384AF0
:102540000A40E9B209048918C918164A8918416075
:10255000089E099F204631463A4600F056F9002869
:1025600001D0012019E0012D0AD020680299090A42
:102570008162204631463A4600F047F90028F0D102
:1025800020680299C9B2816200974021002220464A
:10259000334600F0DDF8411E884103B0F0BDC0466F
:1025A000FF03000000200080F0B583B01D460292BA
:1025B000044600684268194B1340194A0A40E9B2C0
:1025C00009048918C918174A89184160089E099F8B
:1025D000204631463A4600F018F9002801D0012083
:1025E00019E0012D0AD020680299090A816220466B
:1025F00031463A4600F009F90028F0D120680299E6
:10260000C9B281620097802100222046334600F043
:102610009FF8411E884103B0F0BDC0460098007C81
:10262000FF03000000200081F0B583B00446402085
:10263000205CE36A012801D102206AE016460D46BB
:10264000204640300127029007700E40B00607D5A3
:102650002046294601971F46FFF770FE3B46019F23
:10266000F00616D4700727D430074CD4B007029E6A
:102670004DD5608D002863D02068616A0A78826237
:10268000481C6062208D401E2085608D401E608544
:102690003DE0608D00282AD020681021C161606C67
:1026A00004210143616428480342029E2FD1616CDA
:1026B0002046FFF79DFD2AE0608D0028029E0CD089
:1026C000606A2168496A0170606A401C6062208DFE
:1026D000401E2085608D401E6085608D1B498B42A9
:1026E00015D0002813D12046FFF7A6FE0FE0029E6A
:1026F000707879068B420ED128280CD120462946C5
:10270000FFF7ECFD03E02046FFF726FD029E0020C8
:10271000307003B0F0BD717820681022C2610B4A9E
:102720009342F4D02929F2D18169890701D500218A
:1027300081628169C907D6D1816939438161D2E754
:1027400001480342E3D1CEE7FFFFFFFE0000FFFF99
:10275000F0B583B01D4616460F46044603689969D6
:102760003940C91B4A424A410020B24223D101905C
:1027700020464030009008980290691C08D0FEF76F
:10278000AFFD002D0DD00299401AA84209D8236848
:1027900099693940C91B4A424A41B242EDD0019879
:1027A00009E0606C202108436064009A51700020A9
:1027B00010709070012003B0F0BDF0B581B01646E6
:1027C0000F4604464030009020688069800618D487
:1027D000204639463246FFF765FE0125002811D113
:1027E000FEF77EFD002F02D0801BB842ECD9606C52
:1027F000202108436064009A51700020107090708E
:1028000000E00025284601B0F0BDF0B583B00446D5
:10281000006880690027800725D415460E46029778
:10282000204640300190204631462A46FFF73AFEC6
:102830000127002817D1701C06D0FEF751FD002E8D
:1028400008D0401BB04205D8206880698007EAD5CF
:10285000029F08E0606C202108436064019A517077
:10286000002010709070384603B0F0BDF0B582B013
:102870000E460C68002C43D00022009601239340A2
:10288000234037D01C465C43716826464E430327DD
:1028900067430568BD4335430560FE4301914D1E06
:1028A000012D06D8009DAD686543876837402F43EA
:1028B00087603146009E35696543C7680F402F43E6
:1028C000C7600199022915D17569FF2B08D86443A7
:1028D00065430F216143036A8B432B43036209E085
:1028E000190A494349434D430F234B43416A9943D6
:1028F00029434162521C34682346D340BED100E0D4
:1029000000247168491E012905D8F16861434268B5
:10291000A2430A434260002002B0F0BD10B5046833
:102920001B4A904202D0BC4B984204D170239C4376
:102930004B68234300E02346164CA04206DD90423C
:102940000AD0154CA04207D0144C03E0B24CA04270
:1029500002D0134CA04219D103242402A343CC6813
:102960001C4304608B68C3620B888362904205D06D
:10297000094A904202D0094A904201D1097C016380
:10298000416901220A434261002010BD1C46E8E76C
:10299000002C0140FF2B0140004801400044014051
:1029A00000200040F0B58DB000240B940A940994E7
:1029B0000894012081050346964802680A43026094
:1029C00002680A400C920C99590402680A4302609A
:1029D00002680A400C920C999904059302680A4314
:1029E0000260006808400C900C980920C506102170
:1029F0000191A96220210291A96204952A48022727
:102A000087620A9707940693284806AE3146FFF777
:102A10002DFF0A970794069724483146FFF726FFB3
:102A20000A9707940598069028463146FFF71EFF3F
:102A30000A970794069728463146FFF717FF0A972B
:102A400007940420069028463146FFF70FFF0A97A7
:102A500007940820069028463146FFF707FF0A979B
:102A60000994032003900890059D0795019806900E
:102A700004983146FFF7FAFE0A97099403980890E4
:102A800007950298069004983146FFF7EFFE0A97E3
:102A90000994039808900795069703483146FFF775
:102AA000E5FE0DB0F0BDC04600040048001400482B
:102AB00010B5134C01200021124A134B23606260B1
:102AC000A160E060204610301421FDF738FE20465A
:102AD000FEF78AFC002801D0FEF7CCFA0848002156
:102AE000FEF704FC002801D0FEF7C4FA04480021D8
:102AF000FEF71EFC002801D0FEF7BCFA10BDC04650
:102B0000EC0000200B02000000540040F0B591B032
:102B10000BA802901421FDF712FE3E4881680224A2
:102B2000214381608168214005910599012779043D
:102B300002680A4302600068084010900A970994EE
:102B400000200490089003200390079006944020F2
:102B5000059010980920C50605AE28463146FFF7B6
:102B600085FE0A97099404980890039807900694A4
:102B700080200190059028463146FFF777FE264DCC
:102B8000A868384306218843A860A8693843A04351
:102B9000A861A8690421014308208143A961A869AB
:102BA00010210143E0208143A961286A0A2188435A
:102BB0002862039A1002A969814338020818A861A3
:102BC0009002A9698143B8020818A8610F20000388
:102BD000A969814378030818A861286AA02188435D
:102BE00028620299049808800E9002460B480D90C6
:102BF0000C922846FFF792FE0198C04329680140D5
:102C000029606968702291436960A9680140A960E0
:102C100011B0F0BD1410024000040040FFFF00009E
:102C2000002181808160014901607047020200003B
:102C300070B50446E1200501A66830462946FDF737
:102C400081FD60804543761BB0B23C252946FDF7E7
:102C500079FD20714543701B607170BDFEE77047C0
:102C600070473C2181600121090401607047032104
:102C70004156022282563C2353435918E122120145
:102C8000038853435918816070470000F0B581B044
:102C90001D4600920C460646084600F079FA30467A
:102CA00000F032FE00F0F0FC304F3880052813D1E0
:102CB0003046FEF7F9F90098294600F0E2F8304670
:102CC000294600F0F9FF01200E222946FEF7C0F93F
:102CD0002068A06001B0F0BD3046214600F0B8FD8C
:102CE0000D4C00F0D1FC38803888042808D1388891
:102CF000012805D13888042805D12078042107E06F
:102D000000F044FDEDE738880128EAD1207802215F
:102D100001432170E5E7C0464F010020F0B581B0C6
:102D200016460D460446084600F0BAFDA06820602D
:102D300000F0AAFC0D4F3880052806D02846214611
:102D400000F05CFD00F0A0FCF5E72846314600F0FD
:102D500098F8012004223146FEF77AF9284600F05F
:102D6000DDF82068A06001B0F0BDC0463801002049
:102D700080B5044908600B490968002900D08847DC
:102D800080BDC0469400002080B5FEF709FE0248D1
:102D90000068FFF7EDFF80BD580100200149086081
:102DA0007047C0469000002070B594B008AC201D5C
:102DB0001C21FDF7C4FC0025079506950595049593
:102DC00013950520C004129011950226109610202C
:102DD0000C9001200B9008960395029501950095A3
:102DE0002046FEF78DFF002803D0EFF3108072B667
:102DF000FEE70795069505960720049004A8012193
:102E0000FEF7C6FE002803D0EFF3108072B6FEE78F
:102E10000395202000906846FEF73EFE002803D070
:102E2000EFF3108072B6FEE714B070BD704700007B
:102E300006480169C90707D00121CA430261044B52
:102E400019700168114001607047C046004401409C
:102E5000E80000200A7812064B781B049A188B7839
:102E60001B02D218CB78D21882600A7912064B79ED
:102E70001B049A188B791B02D218C9795118C160AA
:102E80007047C27A0A7042894A708268120A8A7050
:102E90008268CA70C27B0A71C2894A71C268120A0A
:102EA0008A71C068C8717047F0B581B00C46FDF7F3
:102EB000F7FD0546214600F0BAFF2146FDF7FCFC70
:102EC0000146144F386800F0DFFF064638607F2067
:102ED000C7053046394600F098FF002801D00E4F54
:102EE00005E00D49304600F085FF002805D1304649
:102EF000394600F0C9FF0749086028462146FDF71A
:102F0000DBFC00F0A6FFCE4901F02EF8FDF784FDB2
:102F100001B0F0BD48010020000080BFF0B583B0D3
:102F200005460620285607216956AB880090019176
:102F3000314C1426434A20463146FDF777F9434881
:102F40000178414F38780123224600F003FE022029
:102F50002856032169562B8800900191204631465E
:102F6000384AFDF763F9387838490978491CC9B2FD
:102F700000F08CFD364800F06DF8204600F000FEB1
:102F800003B0F0BD10B582B004460978880708D4B4
:102F90006078237849070BD400901748142123A2A6
:102FA0000AE02378607800901348142113A203E00C
:102FB00000901148142117A2FDF738F9042020567B
:102FC000052161566388009001910B4C14211D4A24
:102FD0002046FDF72BF91C4800781C490978491C4C
:102FE000C9B200F053FD1A4800F034F8204600F052
:102FF000C7FD02B010BDC0467C0000207365743D63
:1030000025303364402072656D3D253033644020A7
:103010003C2D00007365743D25303364402072659B
:103020006D3D2530336440202D3E00007365743DB6
:1030300025303364402072656D3D25303364402077
:103040003C2D3E00FC430008040000203A01002013
:10305000B80B00000849C8620120C2430A6100227F
:103060004A620A6802430A600A69D207FCD00A6809
:1030700082430A607047C04600200040F0B581B02E
:103080000F464A490A684A498A1A91B2C90B51182F
:1030900009B24C10FC60BD68A5425ED0BC60661BE6
:1030A0005BD031461331262957D80090FFF7DFFD5A
:1030B000012E1ADB741C009F60480168B868FFF796
:1030C000F3FE054601263046294600F0A5FD641EA4
:1030D000012CF1DCB868F968421821498A42384667
:1030E00001D920495218C26025E0294630460226FF
:1030F0000025002801D400981DE0387C00280098A5
:1031000019D10C1B4D4F39688068FFF7CDFE05467D
:1031100000263046294600F07FFD0098641EF2D15B
:103120008368C168994204D20D4A8918C91A491C9A
:1031300000E0C91AC160E44F39460446FFF7A1FE1A
:10314000012008223946FDF783FF2046FDF796FF50
:1031500020462946324600F00BFC01B0F0BDC046C7
:103160007FC613008039ECFF074808494162016AB5
:10317000012211430162016A10230B4303620168BB
:10318000114301607047C04600040040FF7F00000B
:1031900006490968064A511A8AB2D20B891809B23F
:1031A00049100160416081607047C04624040040BE
:1031B0000080FFFFB0B50446C068FDF771FC1F49F1
:1031C0000968FDF779FB1E4900F0CEFEFDF724FCEF
:1031D00001460025284600F01FFDE5602046FDF76A
:1031E0004DFFB94D20462946FFF74BFE012008222E
:1031F0002946FDF72DFFB0BDB0B505464078002843
:103200001AD00C46401E6870A868FDF749FCEE49CC
:103210000968FDF751FBED4900F0A6FEFDF7FCFB48
:103220000146002000F0F8FCE068A968884201D25D
:10323000E44A8018401AE060B0BDC0460800002093
:103240000000204282B0FEF7B5FBFFF7ADFDFFF7AF
:10325000A9FBFFF75BFCFFF72BFCFFF785FF00F0F6
:1032600039FD00F025FC00F0D3FB01208E4C0E222E
:1032700001902146FDF7DCFE2078FF2829D06078F8
:10328000FF2826D0A078FF2823D0E078FF2820D080
:103290002079FF281DD06079FF281AD0A079FF2857
:1032A00017D0E079FF2814D0804C7F4D2046294666
:1032B000FFF7D0FD2046FDF715FF2046FDF7DEFEA7
:1032C0007B4C2046294600F0E7FC2046FFF7B0FC87
:1032D00009E0764C2046FFF7C4FC2046FDF7A3FE2C
:1032E0007348FFF79DFC714D2846FFF717FE7148A4
:1032F00002210160D948102101606F4E3078F82119
:10330000014031706D48FFF7A5FE6D4C00F0BCF92F
:103310002080002800D1B3E021883078491EC20700
:1033200020D1062930D8C0467944097949008F4414
:1033300098032E983C405300284600F0E1F800F036
:10334000A3F920800028FAD02088042800D1A0E02A
:10335000022800D1A1E0012800D0A1E02846FFF713
:1033600029FF7EE006290FD87944097949008F4466
:1033700003378348835D6F00800700D480E04C48AA
:103380002946FFF739FF42E00020208078E02846F8
:10339000FDF749FE28468E4F3946FFF772FD0120A2
:1033A00008223946FDF754FE5BE046482946884A24
:1033B0000FE02846FFF755FC2846854F3946FFF7B2
:1033C00060FD012008223946FDF742FE3D482946AE
:1033D0003A46FFF7A3FC53E00199084330704BE0F5
:1033E000284600F08DF800F04FF920800028FAD030
:1033F0002088042839D001283CD12846FFF7DAFE7E
:1034000036E040073CD52A48294600F0E3F8284634
:103410006F4F3946FFF735FD2548394600F05EF815
:10342000012009223946FDF713FE25E02F46204DE5
:103430002846FFF7F5FB3078F92101403170284626
:1034400020493A46624BFFF721FC28463D4614E0EE
:10345000FE21084030702846FDF710FE1948FFF79E
:1034600097FE2846FFF75AFD0AE0284600F084F848
:10347000062000E0002020800D483146FFF782FD45
:103480003078C00700D041E728460E49FFF7F6FD27
:103490003CE7284600F070F8E3E700F017F8E0E7B3
:1034A00000202080DDE7C046AC0000209C0000200A
:1034B0003C010020280400484F010020204E00005D
:1034C00038010020D4000020C000002080B5012079
:1034D000014900F0A1FB80BD00350C004078087266
:1034E0007047000040000549C86200204862012082
:1034F000C2430A610A6802430A60704700440140FF
:1035000070B582B006214156072282568388009109
:103510000192124C1421124A2046FCF787FE114DED
:103520002978114E30780123224600F013FB0FA0BA
:1035300021460CC80CC102880A80807888703078D7
:103540002978491CC9B200F0A1FAEE48FFF782FDC4
:10355000204600F015FB02B070BDC0467C00002084
:10356000FC4300083A010020040000203C2D20709C
:10357000757368202D3E000070B50446C068294967
:10358000081AFDF78DFA25490968FDF795F92449D0
:1035900000F0EAFCFDF740FA01460125284600F05C
:1035A0003BFB0020E0602046FDF768FD084E20460A
:1035B0003146FFF766FC082228463146FDF748FDF4
:1035C00070BDC04680C613000800002000002042E5
:1035D000C0000020B0B50546407800281CD00C463D
:1035E000401E6870A868FDF75BFA0C490968FDF792
:1035F00063F90B4900F0B8FCFDF70EFA0146012013
:1036000000F00AFBE068A9680818E06005498842F4
:1036100002D305494018E060B0BDC0460800002054
:103620000000204280C613008039ECFFF0B581B065
:10363000002810D007460026102408490C610425F4
:103640002846FFF707FD054804602846FFF702FDFE
:10365000761CBE42F0D301B0F0BDC0461800004851
:1036600045490A68012052070CD40A68920709D418
:103670000A68D20706D10968090703D440480168DF
:10368000012008407047C04670B53A4D28780028A0
:103690001FD139480168490711D40168890713D43B
:1036A0000168C90754D1006800075DD43448006838
:1036B000C0070ED0012028703048072108E0012003
:1036C00028702E48042103E0012028702B48022195
:1036D00001802878012804D13220FFF703FF02205F
:1036E0002870284E3078297802290FD101280DD171
:1036F00000243470FFF7B4FF00281AD06420FFF7CD
:10370000F1FE2148047003202870307829780024C5
:10371000032927D1012825D100243470FFF7A0FF09
:10372000002808D018480178042909D8491C0170DC
:1037300015E02C7016E0002028701048048811E075
:103740000E480188052908D0022908D1032105E087
:103750000120287009490880BBE706210180642008
:10376000FFF7C0FE204670BD0120287003480521E8
:10377000AEE7C0464E010020100000484C0100207A
:1037800010140048E800002098000020F0B581B037
:103790000FA0134C21466CC86CC112480178124E20
:1037A00030780123224600F0D5F910A02146ACC89C
:1037B000ACC130780B490978491CC9B200F066F9F0
:1037C000EE48FFF747FC204600F0DAF901B0F0BD03
:1037D00073656C65637420726F746174696F6E00D9
:1037E0007C0000203A010020040000203C2D707570
:1037F000736820627574746F6E2D3E0010B50446B8
:1038000025480068254A101A82B2D20B801800B2EF
:10381000401048600A68824217D00860811A14D0AC
:1038200008461330262810D83C204143A26851187E
:10383000A1603C2902D30548814200D9A0602046FE
:10384000FDF750FC204600F02BF810BD7FC613009A
:1038500080B5114A1268114B9A1A93B2DB0BD21839
:1038600012B252104A600B68934214D00A60D11A07
:1038700011D00A461332262A0DD802785118017049
:10388000C9B2FF2903D0012903D8FE2100E002219B
:10389000017000F039F880BD240400400080FFFF73
:1038A000F0B583B0054613A0544C21464CC84CC11A
:1038B000534E3178534F38780123224600F04AF9AD
:1038C00002202856032169562B880090019114216B
:1038D0000B4A2046FCF7AAFC38783178491CC9B25B
:1038E00000F0D4F8A548FFF7B5FB204600F048F9F2
:1038F00003B0F0BD7365747570206D6F6465310041
:10390000FC430008B80B0000F0B581B0054610A0DC
:10391000124C21464CC84CC1114E3178114F3878A9
:103920000123224600F016F92B7814210EA220461E
:10393000FCF77CFC38783178491CC9B200F0A6F855
:103940008E48FFF787FB204600F01AF901B0F0BD62
:103950007365747570206D6F646532007C000020A3
:103960003A010020040000202530336440000000AC
:10397000F0B583B00291062141560723C4568388CF
:1039800000910194012A01D017A200E011A21B4D61
:10399000142628463146FCF749FC194F3978194C52
:1039A000207801232A4600F0D5F817A22846314690
:1039B000029BFCF73BFC20783978491CC9B200F027
:1039C00065F86E48FFF746FB284600F0D9F803B0CB
:1039D000F0BDC046253033642A20253032642720CC
:1039E00025303264222D3E00253033642A202530D4
:1039F0003264272025303264223C2D007C000020D8
:103A00003A01002004000020737465703D256400B5
:103A1000F0B583B06E4800250570B02000F0DAF8EC
:103A2000284600F0D7F8102000F0D4F86648A030FF
:103A30000190664E00952F46029505243046019967
:103A40002246FCF71DFE029870710621304600F0F8
:103A5000D3F85F4A10780830C1B2802900D80446F4
:103A600014707F1CB8B2812807D30098401C0090C6
:103A7000C1B20027384600F009F8681C02498D429F
:103A80000546DAD303B0F0BDFF01000010B50446CF
:103A90004F4804705039C8B200F09CF80F20204005
:103AA00000F098F82009103000F094F810BDC046DE
:103AB00010B5AE2000F08EF8202000F08BF8002426
:103AC000204600F087F8B02000F084F8C82000F00D
:103AD00081F8204600F07EF8102000F07BF84020AE
:103AE00000F078F8812000F075F8FF2000F072F8FF
:103AF000A12000F06FF8A62000F06CF8A82000F0DC
:103B000069F81F2000F066F8A42000F063F8D320C5
:103B100000F060F8204600F05DF8D52000F05AF87B
:103B2000F02000F057F8D92000F054F8222000F0DF
:103B300051F8DA2000F04EF8122000F04BF8DB20AC
:103B400000F048F8022000F045F8AF2000F042F8FD
:103B500010BD000070B514460D460646002B01D07E
:103B6000FFF756FF30462946FFF790FF0348FFF75F
:103B700071FA204600F004F870BDC046B80B000092
:103B8000F0B581B0017800291CD0471C0F4C104EB5
:103B9000052569430C48411820462A46FCF770FD6C
:103BA000002060710621204600F026F830780830A9
:103BB000C1B2802900D805463570781C39780029B3
:103BC0000746E5D101B0F0BD7C410008520100205C
:103BD0007800002080B582B0064A50700020107036
:103BE000FF2000900B4878210223FDF751FC02B022
:103BF00080BDC0465001002080B584B0FF2200ABDC
:103C000007C30448782140220123FDF7C5FD04B015
:103C100080BDC046EC000020F0B583B00D461B49C6
:103C2000002800D11031202008600620FFF712FA8A
:103C3000642128460191FCF785FD0646144C029547
:103C4000642D0FD30025022727600520FFF702FA15
:103C50006420FFF7EBFC27610E48FFF7FBF96D1CB2
:103C6000B542F0D3019971430298451A0BD0022650
:103C700026600520FFF7EEF9E8B2FFF7D7FC2661D2
:103C80000320FFF7E7F903B0F0BDC0461800004875
:103C900018040048DC0500000A7A42704A7A027073
:103CA0008A7A1206CB7A1B049A180B7B1B02D21855
:103CB000497B51188160704742780A7202784A72D3
:103CC000C27A8A724289CA728268120A0A7380684A
:103CD00048737047F0B589B02B48FFF75FF82B4861
:103CE0002B49016003AD142101912846FCF727FD03
:103CF00001273802274A5168014351602F2129804A
:103D00005168014008910024069404940898FF200B
:103D100002900590204E30462946FEF7FFFD802098
:103D2000C143009130680840306003AD28460199D6
:103D3000FCF705FD7804174A1168014311602C74E3
:103D4000164929801168014008910694144805908D
:103D500004940898134C20462946FEF7DFFD20689E
:103D6000009908402060F8432061E0683843E06033
:103D7000029800020C490A6882430A6078050B49E0
:103D8000086009B0F0BDC046B13D00085C010020EC
:103D9000111100081810024000200040BF5D000013
:103DA000FFFF00000044014014E400E000E100E0F7
:103DB000F0B581B00446002601250D4FB819017AEF
:103DC00001290ED1B959A1420BD8417A002903D05B
:103DD00041680919B95101E000210172C168284602
:103DE00088476D1C1036602EE8D101B0F0BDC0468A
:103DF0006001002010B500F08DF8EFF30080800026
:103E000001D5012010BD002010BD10B500F082F8D2
:103E1000EFF300804000800F012800D0002010BD8B
:103E200030380A2801D2012070470020704770B551
:103E30000546C80DC04300060C46000E04D06000C5
:103E400002D10120FCF734FE21462846FCF716FF7C
:103E500070BD10B5FCF79EFF10BD000010B5002925
:103E60000AD00878002807D005487844FDF760F8A4
:103E7000002801D0002010BD0248784410BD000089
:103E8000C6050000BE05000070B50125ED07040061
:103E90004C4020D4441A01D2001B0919C60D4B0016
:103EA000F2B2FF2A29D01B0E2CD000020C022843AC
:103EB0002C43D31ADC40051910D2280A02D3401C27
:103EC0006D0611D0761EF6058019FF2A00DA70BD46
:103ED000C00DC00570BD694000F0A4F80120054385
:103EE000C541521C761CE8E764089C40C90161404A
:103EF0008900E7D10124A043E4E71B0E440200D06F
:103F0000034870BD002AFCD1C00FC00770BD00BFC0
:103F10000000C07F0123DB0502000A430DD4DA4212
:103F200003D49A4207D488427047D84214D4D94265
:103F300012D48842704780427047DA4203D59A42D1
:103F4000F9D5814270475B004200DA4204D24A0050
:103F5000DA4201D28142704710B5024AFCF766FF8F
:103F600010BD00BF0900130470B5420064414B004E
:103F70005C41120E39D01B0E38D0FF2A3CD0FF2BEB
:103F80003AD0D2187F3A40024902400A490A4518FD
:103F9000ED0106004E43000A090A48430104731A62
:103FA0004019190C4318990F04D05B0801214907E7
:103FB0005B1A521CD80904D3401CF50301D19D069D
:103FC00007D0FF2A08D2D50506D0E40720434019C0
:103FD00070BD0125A843F4E7002A01DCE00770BDAD
:103FE0002402FF202043C00570BD1B0EFF2A03D012
:103FF000FF2B01D0E00770BDFF2636064500B54215
:1040000006D84D00B54203D8D218FF2A00D0E7E702
:10401000004870BD0000C07F70B50125ED070400A9
:104020004C4022D4441A02D26C40001B0919C60D20
:104030004B00F2B2FF2A4BD01B0E50D000020C02F4
:10404000A8432C43D31ADC40051B05D5AD0019D37A
:104050006D08761E521E37D0F605280A01D2801947
:1040600070BD70416D0603D070BD6940FFF712FF4F
:104070009C4009026140490001D0401E70BD0124EE
:10408000A04370BD6D081DD001202B0C01D12D0463
:1040900010302B0E01D12D0208302B0F01D12D0134
:1040A000001DAB0F01D1AD00801CEB0F01D16D00E5
:1040B000401C361A121A6D00680AF5054019012ACB
:1040C00002DB70BD002070BDC036300AC00770BD75
:1040D0001B0E440201D1FF2B00D1024870BD002A03
:1040E000F0D070BD0000C07F0000000000000000A4
:1040F000303132333435363738394142434445461E
:104100004030580030313233343536373839616217
:104110006364656640307800040000080000000019
:1041200000000002000100001081828384858687E0
:1041300088898B8C8D8E8F919293959697999A9C66
:104140009D9FA0A2A3A5A7A8AAACAEB0B2B3B5B7D5
:10415000B9BCBEC0C2C5C7C9CCCED1D4D7D9DCDFAB
:10416000E2E6E9ECF0F3F7FAFE00000000000000E0
:104170000001020304060708090000000000000017
:104180000000005F00000007000700147F147F1488
:10419000242A7F2A122313086462364955225000CC
:1041A00005030000001C2241000041221C001408ED
:1041B0003E081408083E08080050300000080808AF
:1041C00008080060600000201008040200000000E1
:1041D0000000005F00000007000700147F147F1438
:1041E000242A7F2A1223130864623649552250007C
:1041F00005030000001C2241000041221C0014089D
:104200003E081408083E080800503000000808085E
:104210000808006060000020100804020000000090
:104220000000005F00000007000700147F147F14E7
:10423000242A7F2A1223130864623649552250002B
:1042400005030000001C2241000041221C0014084C
:104250003E081408083E080800503000000808080E
:104260000808006060000020100804023E51494523
:104270003E00427F400042615149462141454B3159
:104280001814127F1027454545393C4A49493001E9
:10429000710905033649494936064949291E003640
:1042A0003600000056360000081422410014141491
:1042B00014140041221408020151090632497941BF
:1042C0003E7E1111117E7F494949363E41414122CE
:1042D0007F4141221C7F494949417F090909013E2B
:1042E0004149497A7F0808087F00417F410020400A
:1042F000413F017F081422417F404040407F020C33
:10430000027F7F0408107F3E4141413E7F09090939
:10431000063E4151215E7F091929464649494931E6
:1043200001017F01013F4040403F1F2040201F3FCF
:104330004038403F63140814630708700807615150
:10434000494543007F4141000204081020004141DB
:104350007F0004020102044040404040000102048A
:104360000020545454787F4844443838444444200E
:10437000384444487F3854545418087E0901020CCC
:104380005252523E7F0804047800447D4000204091
:10439000443D007F1028440000417F40007C041809
:1043A00004787C0804047838444444387C14141499
:1043B00008081414187C7C08040408085454542079
:1043C000043F4440203C4040207C1C2040201C3CBA
:1043D0004030403C44281028440C5050503C446429
:1043E000544C44000836410000007F000000413674
:1043F00008001008081008784641467825303364D4
:104400002A20253032642720253032642200000023
:10441000404500080000002018000000F4000008DB
:104420005845000818000020A807000010010008E7
:104430001001000043000000F8FFFFFF0040404073
:104440004040404040404141414141404040404067
:104450004040404040404040404040404005020213
:1044600002020202020202020202020202202020D2
:10447000202020202020200202020202020290902E
:10448000909090901010101010101010101010102C
:104490001010101010101010020202020202888880
:1044A000888888880808080808080808080808088C
:1044B0000808080808080808020202024000000074
:1044C00000000000000000000000000000000000EC
:1044D00000000000000000000000000000000000DC
:1044E00000000000000000000000000000000000CC
:1044F00000000000000000000000000000000000BC
:1045000000000000000000000000000000000000AB
:10451000000000000000000000000000000000009B
:10452000000000000000000000000000000000008B
:10453000000000000000000000000000000000007B
:1045400000127A00050000009A99814201000000E3
:0845500004000000000000005F
:04000005080000B13E
:00000001FF
