:020000040800F2
:10000000A80700209D01000859280008E51A0008EB
:1000100000000000000000000000000000000000E0
:100020000000000000000000000000005D28000843
:1000300000000000000000005B280008D92800082C
:10004000AF01000800000000AF010008AF01000888
:10005000AF010008AF010008AF010008AF010008C0
:1000600000000000AF010008AF010008AF01000868
:10007000AF010008AF010008AF0100080000000058
:10008000AF0100080000000000000000AF01000800
:10009000000000006D290008AF010008E91A0008FF
:1000A00000000000AF01000800000000AF010008E0
:1000B00000F002F800F046F80CA030C80838241808
:1000C0002D18671EA246AB4654465D46AC4201D190
:1000D00000F038F87E460F3EB6460FCC012633427C
:1000E00000D0FB1A3343A246AB461847783A0000CB
:1000F000983A0000103A02D378C878C1FAD852076B
:1001000001D330C830C101D504680C6070470000CD
:100110000023002400250026103A01D378C1FBD823
:10012000520700D330C100D50B60704710B5642969
:1001300002D100F093F810BD002010BD1FB51FBD07
:1001400010B510BD00F0C5FC1146FFF7F7FF02F037
:10015000FBFC00F0DDFC03B4FFF7F2FF03BC00F092
:10016000E3FC000070B505460C46164602E00FCCD5
:100170000FC5103E102EFAD2082E02D303CC03C5B1
:10018000083E042E07D301CC01C5361F03E02178B9
:100190002970641C6D1C761EF9D270BD074880471B
:1001A00007480047FEE7FEE7FEE7FEE7FEE7FEE75B
:1001B00004480549054A064B7047000069290008B4
:1001C000B1000008A8010020A8070020A803002013
:1001D000A80300200FB41CB50C0007AA009001D0A2
:1001E0000019401E084B7B4469460190069800F0B8
:1001F0003CFC002C03D06946002000F049FC1CBCEC
:1002000008BC04B018470000B108000070B50446EF
:1002100085690068C10601D5302600E02026C007A8
:1002200007D070BD62683046A1689047206A401CC4
:1002300020626D1EF6D570BD70B5044685690078E4
:10024000C00707D170BD6268A16820209047206A6E
:10025000401C20626D1EF6D570BD0000F7B500256C
:1002600075291068009914A611D0C046C046002810
:1002700002DA404211A608E0009909688A0701D510
:100280000FA602E0490704D50EA6012501E0C046ED
:10029000C046009F0024243704E000F006FC303103
:1002A0003955641C0028F8D12B4632462146009867
:1002B00000F07EFBFEBD0000000000002D000000ED
:1002C0002B00000020000000F3B50446002081B0A0
:1002D00020622046E168884700287DD0252802D08A
:1002E0006268A16883E0454F00257F442046E168AD
:1002F00088472028064608DB312E06D2B819203858
:100300000078002801D00543F0E7A80701D50420B4
:1003100085430020E0610746A0612A2E0AD03046BE
:1003200003F067FA002827D0B8000019303E00908B
:10033000866119E00298BA00121902C89161029010
:100340002046E1688847012F064617D1E06900285A
:100350001FDA202085431CE000980A218069484369
:1003600000998019303888612046E1688847064640
:1003700003F03FFA0028EFD1012F0AD02E2E08D12A
:100380002046E16888470646202005437F1C022F4F
:10039000C3DBA069002803DA4042A06101200543C5
:1003A000E80701D010208543002E24D03046413884
:1003B000192803D80120C0020543203620462560B5
:1003C0003146029A1546FFF7B1FE00280CD00128ED
:1003D00007D0ED1DE80800E00DE0C00008300290F5
:1003E00077E72D1D029574E762683046A168904753
:1003F000206A401C6CE7206AFEBD00001235000038
:10040000F8B5042A2CD3830712D00B78491C03704B
:10041000401C521E83070BD00B78491C0370401CF4
:10042000521E830704D00B78491C0370401C521ED7
:100430008B079B0F05D0C91ADF002023DE1B08C9DC
:100440000AE0FFF78FFEF8BD1D4608C9FD401C46B7
:10045000B4402C4310C0121F042AF5D2F308C91A65
:10046000521EF0D40B78491C0370401C521EEAD473
:100470000B78491C0370401C012AE4D409780170F0
:10048000F8BD01E004C0091F0429FBD28B0701D588
:100490000280801CC90700D00270704700290BD071
:1004A000C30702D00270401C491E022904D38307EF
:1004B00002D50280801C891EE3E70022EEE70022BD
:1004C000DFE7704770477047F0B5F94D0C091E091A
:1004D0002C402E402F468BB0A7437DD0B543FCD097
:1004E000002E7AD0002CFCD00D465D40ED0F254348
:1004F000AC1BFF25AD0464190894C502440DC90264
:100500002143500DDC0204430120C0070143044392
:10051000D2020191200C110C00958C460104234657
:100520008B430A9161460904E24D8A430991010A0D
:100530007D4449198039097805464D4301266D18D7
:10054000F605751B6943C90C640B891C4C43641880
:10055000B5012C1B250C2E04B4434C434D43210CF8
:10056000691889090591009DE90701D00121C90792
:1005700004912C4601996708CD072F434C08059D2F
:10058000E10B4D432D0C29466646754302950D46F9
:1005900045432E46029D7D1BB44100950D465D43AB
:1005A00001942C0C2F040D465543AE462D0C3D43B3
:1005B000029503947546049C2D04641B049406D292
:1005C000029C039D641C002675410395029401ACB6
:1005D00070CC009F7D1B01E03EE162E1B441090463
:1005E0000095079101940599A4086143090C0C46F4
:1005F0004443650BE7040C4666467443A646640B09
:100600003C43039502947446049DE4042C1B04941B
:1006100006D2029C039D641C00267541039502943A
:1006200001AC70CC009F7D1BB44101940C465C432F
:100630000095650FE7000C465443A646640F3C4303
:10064000039502947446049DE4002C1B049406D286
:10065000029C039D641C002675410395029401AC25
:1006600070CC009F7D1BB441AE09AF06049DC9004C
:10067000AD092F43049DA406AD060495079D3443A0
:1006800069180791059DE10B4D432D0C29466646DF
:10069000754302950D4645432E46029D7D1BB44190
:1006A00000950D465D4301942C0C2F040D465543D7
:1006B000AE462D0C3D43029503947546049C2D04D3
:1006C000641B049406D2029C039D641C00267541A1
:1006D0000395029401AC70CC009F7D1BB441019442
:1006E0008C050694079C890A611800950791019C66
:1006F0000599A4086143090C0D464543680BEF04B6
:100700000D46644665436C0B3C43049FED047D1B22
:10071000AC4602D20025641C6841009E019D371B37
:1007200085410846584301950C46460FC500544381
:10073000600F28436546E4002C1B02D20025401CB4
:100740006E41019D3F1AB5412846BD0980062843E8
:100750008446A009BF064E020699A40676180743F0
:10076000079D002068410A99079019430020099BC2
:1007700000906046FF1913434041E20F64003A4382
:10078000A4460446D71A8C41A04203D90120009008
:1007900020463A46C70F941840416246D20F224382
:1007A000644664000494009CBE466400D71AA446C4
:1007B000044602978C417746002F01D1A04204D90C
:1007C0006046401C8446029A2046C40FA6469418F0
:1007D0004041049A0546D20F224364466400D31A6E
:1007E0008D417146002901D1A84202D928461A46F6
:1007F000641C10430122002800D01643610200202F
:10080000079B891904465C410223002C02DB49182E
:1008100013466441089DCE0A2D145D194B056705EA
:10082000E10A2C050D1908993E43C9076940002BC0
:1008300008D0934006D30022761C5141002B01D1F1
:10084000760876001C4A002D43DB154241D0AA43AE
:100850003FD030460BB0F0BD06180D464D41174C49
:100860007642AC411AD395181C465C41134A6D423E
:10087000A24113D3012252054C00D4420AD15C009C
:10088000D4420BD04B4002D592021143E2E749001B
:100890004908DFE75940C90FC90718E00020084997
:1008A000D8E7054801420DD10342F7D0F2E7000036
:1008B0000000FF07DD3200000000F07F0000E0FFD5
:1008C0000000F87F114859400143C0124140002008
:1008D000C0E70123089A9B069A4205DC03225207CF
:1008E0008918C90FC907B5E7052252078918074AB1
:1008F0001143D2125140ADE770B515461C46024671
:100900000B4628462146FFF7DFFD70BDFFFFFF7F46
:100910000346CA02400D10B510430A1504D0012445
:10092000E4072043002A05DB0A4CA21A04D4D04075
:10093000FF2A00DD002010BD4A00002B01D001205D
:1009400000E00020101801225205D042F2D8C8174A
:10095000C04310BD1E0400001F22030C02D10F2251
:10096000000402D0030E03D004E0002001467047CB
:100970000002083A030F01D10001121F830F01D1B9
:100980008000921E002801DB4000521E1205511803
:100990004205C012411810467047C10FC90700D068
:1009A0004042012292071143D6E701218907D3E78C
:1009B000FFB504460D4681B02430009021688806BA
:1009C00004D51022E0699143216000E00120A84293
:1009D00001DD471B00E000270498A1697A1910186F
:1009E000081AA0612078C00602D42046FFF70EFC4A
:1009F000002608E003986268A168805D9047206A3D
:100A0000401C761C206204988642F3DB2078C006E6
:100A10000AD52046FFF7FAFB06E06268A16830209D
:100A20009047206A401C206238467F1E0028F4DC74
:100A300007E000986268A168405D9047206A401C0A
:100A4000206228466D1E0028F3DC2046FFF7F4FBE9
:100A50002078000602D5022005B0F0BD0120FBE79A
:100A600001694A1C02610878704700B58FB0029195
:100A700000210591054901937944039111460490A1
:100A80006846FFF721FC0FB000BD0000E5FFFFFF47
:100A90000A681070521C0A6070470CC908399A42E3
:100AA00002D2531C0B601070704701468008081A70
:100AB00002091018020A1018020C1018C00882004F
:100AC00012185200891A01E0401C0A390A29FBD287
:100AD0007047754600F024F8AE4605006946534657
:100AE000C008C000854618B020B5FFF761FB60BCA8
:100AF000B64600260027C0C5C0C5C0C5C0C5C0C514
:100B0000C0C5C0C5C0C5403D490849008D467047B5
:100B100010B50446C046C0462046FFF71CFB10BD7A
:100B2000004870471000002001491820ABBEFEE7C6
:100B3000260002007047000010B584B00446FF2074
:100B40000091019202900C48A0210223224600F05D
:100B5000A7FA04B010BDC04610B584B00446FF200B
:100B60000091019202900448A0210223224600F045
:100B700051FB04B010BDC046DC000020EFF3108034
:100B800072B6FEE770B50446E1200501E66830461E
:100B9000294602F033FDA0804543751B3C262846BC
:100BA000314602F02BFDA0714643A81BE07170BDD9
:100BB000014800687047C0468C000020B0B5212174
:100BC000415C022918D101462031026813680E24C5
:100BD000A343136013680125AB431360C26B036C1E
:100BE0002C469C40546000240C704D70416B0029D1
:100BF00000D088472046B0BD0421816301242046EF
:100C0000B0BD0000B0B5044600F0DAF80546601C3F
:100C100002D004480078041900F0D2F8401BA0422A
:100C2000FAD3B0BD08000020F0B58CB009900B6875
:100C3000002B00D1B4E05B48099A824201D0052024
:100C400000E003200090012000252F46029004467A
:100C500008910BE02243069CF2600B681846E040C6
:100C6000AD1C3F1D641C002800D199E0601E029A53
:100C70000A90824013400593EFD0039204950694A6
:100C8000486810220243122A099E0FD11C203840C6
:100C90000F2181400A9AD3089B00F3181A6A8A43ED
:100CA000089909698140114319620899079703253A
:100CB0002846049CA040326882434F683B46019519
:100CC0002B402546A34013433360C043122F15D851
:100CD0000122BA4036490A4210D0099CA26802405B
:100CE0000899CB68AB401343A360FA06D20F0A9968
:100CF0008A40636803998B4313436360099BDA68F6
:100D0000024008998868A8401043D860F800079FFF
:100D1000069CA2D5254A106801231843106010686C
:100D200018400B900C263E400F22B2400A9F0198BB
:100D300087430B981F4C385990433F190922D2061C
:100D4000099C944209D01C4A944207D01B4A944201
:100D5000009B059C03D1022301E00023059CB340C6
:100D600003433B60104E33684868C20301D52343F8
:100D700000E0A343079F33607368820301D52343D8
:100D800000E0A3437360B368C20201D5234300E0CF
:100D9000A343B360F268800200D55BE7A2435AE741
:100DA0000CB0F0BD000C00480004014018100240D7
:100DB0000600060008000140000400480008004842
:100DC000014800687047C0463C010020B0B50246AB
:100DD0004120135C0220202B19D1134640331C788C
:100DE000012C14D024205870106802680124A243FA
:100DF0000260220305689543056002680A430260A9
:100E00000168214301600020187020215970B0BD95
:100E1000B0B502464120135C0220202B19D11346A5
:100E200040331C78012C14D02420587010680268BC
:100E30000124A24302600F221202056895430902B1
:100E400029430160016821430160002018702021BE
:100E50005970B0BD70477047F0B581B001688C69BA
:100E60000A68802313400122E50506D5002B04D033
:100E70001502466C16434664CD61650507D5002B07
:100E800005D09502466C082737434764CD61A40519
:100E900007D5002B05D05202436C02241C43446446
:100EA000CA61416C0B22114201D000F0CDFE01B0AD
:100EB000F0BD80B502689169436B1268002B00D0C9
:100EC000984780BD70470000F0B581B0002820D061
:100ED0000446054640356878002804D10020287073
:100EE000204600F04DFA2420687020680268012135
:100EF0008A4302600F22120663689343036183688A
:100F0000184A13408360E368012B05D02126B602FE
:100F100003E0012001B0F0BDCE03A768374387602E
:100F2000022B01D1CB02436043680F4E1E43466043
:100F3000C3681340C360226963691343A269120244
:100F40001A43C260E269236A1343036002680A43DA
:100F5000026000206064202169702063A87001B0E5
:100F6000F0BDC046FF7FFFFF008000027047000019
:100F7000F0B587B004464120205C0225202818D116
:100F80001646224640321078012812D01F4601250D
:100F9000157004920691FFF713FF05900090E90386
:100FA000192320462A4601F0D3F80699049A00280E
:100FB00002D0284607B0F0BD21205070102090705C
:100FC00000206064678566620190606301252E06DB
:100FD0006B06608D000A31480396029305D0FF220C
:100FE000228500902046334604E0628D22850090E1
:100FF000D2B2204601F096F8059F0C9E09E0608D64
:1010000020850097C2B220460699029B01F08AF81B
:10101000059F608D00282BD0204631463A4601F0CE
:10102000F6F80028C5D12068616A0A788262608D6E
:10103000401E6085481C6062208D411E2185608DA8
:101040000904E6D10028E4D000978021002720463B
:101050003A46334601F07CF80028AAD1608D000A98
:10106000CDD0FF222285009720460699039BCDE72D
:10107000204631463A4601F0A2F80028049998D15A
:1010800020680C462021C1614268BC4B134043607C
:101090006170019D2570A5708BE7C046002000801F
:1010A000F0B589B005464120285C022420283DD1B6
:1010B0000E9F002F37D00F98002834D01646089086
:1010C0002A4640321078012830D004930791012439
:1010D00014700592FFF774FE06900090E103192347
:1010E0002846224601F034F800281FD1109A222009
:1010F0000599487040208870002068646F62174628
:1011000003906863089868850092069801902846C5
:1011100007993246049B00F00DFF002809D005987E
:101120000399017002E0012460026864204609B05E
:10113000F0BD0897012426066306688D000A34482E
:101140000496039306D0FF222A850090284607992B
:10115000334605E0698D29850090CAB22846079973
:1011600000F0E0FF069E089B0DE0688D2885009644
:10117000C2B228460799039B00F0D4FF069E089B45
:10118000688D00282ED000960421002728463A4674
:1011900000F0DEFF0028C9D1686A2968496A017039
:1011A000688D401E6885686A401C6862288D411EF3
:1011B0002985688D0904089BE2D10028E0D00096BB
:1011C000802100262846324600F0C2FF0028ADD11B
:1011D000688D000AC9D0FF222A8500962846079903
:1011E000049BC9E728461946324600F0E8FF00286C
:1011F00005999BD128680C462021C16142685F4B4C
:101200001340436061702770A7703C468EE7C0466C
:1012100000240080F0B589B005464120285C0224F6
:1012200020283CD10E9F002F36D00F98002833D0B5
:10123000164608902A464032107801282FD0049391
:101240000791012414700692FFF7BAFD05900090F3
:10125000E10319232846224600F07AFF00281ED118
:10126000109A2120069948704020887000206864F8
:101270006F6207466863089868850892009205982F
:101280000190284607993246049B00F087FE00280B
:1012900008D00698077002E00124600268642046C6
:1012A00009B0F0BD0297059F012426066306688DEC
:1012B000000A0496039307D0FF222A85002000909D
:1012C00028460799334606E0688D288502990091E3
:1012D000C2B22846079900F025FF3E46089B0DE064
:1012E000688D28850096C2B228460799039B00F0B6
:1012F00019FF3E46089B688D00282BD028461946CA
:10130000324600F084FF0028C9D12868696A0A784B
:101310008262688D401E6885481C6862288D411E67
:101320002985688D0904089BE5D10028E3D0009643
:10133000802100262846324600F00AFF0028AED160
:10134000688D000ACCD0FF222A850096284607998E
:10135000049BCCE728461946324600F030FF0028AF
:10136000069F9CD128682021C1614268034B13402D
:1013700043607970029C3C70BC7090E700E800FE0E
:1013800070B586B0002405940494039402940194EB
:1013900000681849884201D006B070BD012670046B
:1013A000154D2968014329602968014000910420F6
:1013B00005900394122002900320049040020190B3
:1013C00000980920C00601A9FFF72EFC7005A96846
:1013D0000143A960A968014000910098172528469B
:1013E0002146224600F060F8284600F059F806B081
:1013F00070BDC04600540040141002407047704752
:101400001A48007802490A68101808607047C046F8
:101410003C01002080B5A648016810220A43026002
:10142000032000F005F800F025F8002080BDC0463C
:10143000B0B504467D20C0000C49097802F0DEF802
:1014400001469E48006802F0D9F800F047FB0125EC
:10145000032C09D8002807D10025E84321462A4655
:1014600000F022F8024804602846B0BD08000020C1
:101470000C00002082B0094801680122114301607C
:101480000168114001910199110742680A434260C5
:10149000406808400090009802B070471810024061
:1014A00080B501F08FFA80BD80B501F0A1FA80BD52
:1014B000F0B585B004468078C007394B4DD0012087
:1014C000039001071A1F10680840029006D11068A7
:1014D000084310601068084004900498009201913D
:1014E000304E3068C00511D4039807023068384385
:1014F0003060FFF765FC05463068384206D1FFF7DB
:101500005FFC401B6428F7D9032538E00325280237
:10151000234B1968014012D06268024091420ED0FC
:101520000398000419681A6802431A601A68824313
:101530001A6008461C4A10401860C80722D1186873
:10154000194908406168014319600298002804D1D4
:10155000009A10680199884310602068C10705D07F
:10156000196903229143A2680A431A610025800683
:1015700005D5186910218843E1680143196128469F
:1015800005B0F0BDFFF71CFC06464A4F044B186837
:101590008007D4D4FFF714FC801BB842F6D9EEE7DD
:1015A0002010024000700040FFFCFFFFF0B581B04A
:1015B00000284CD004463E4A1368012003408B4269
:1015C00008D213680126B3430B43136012683240FC
:1015D0008A426AD1009121688A070ED54A0705D54B
:1015E00007221202434D2B6813432B60414D2A689A
:1015F000F0239A43A36813432B60C90729D12C49D0
:10160000086801263040009A904205D90868B04326
:1016100008600868C00748D12078400707D5072030
:101620000002344A11688143E0680843106000F00A
:1016300047F8304909680906090F1F4A515CC8403C
:101640001E4908600320FFF7F3FE00262DE0012667
:101650002BE06168274A121F022906D0012909D10F
:1016600012689203064620D508E0126892010646E9
:101670001BD503E012689207064616D51D4A10686E
:101680000326B04308431060FFF79AFB0746094D55
:10169000184800680C210140606880008142AED08B
:1016A000FFF78EFBC01BA842F2D9304601B0F0BD57
:1016B0000020024088130000913800080400002038
:1016C00010B50C490A680C2313400B48082B10D1A5
:1016D00093021B0F09A4E45C896AD20301D40F486A
:1016E00005E00F22114009A2515C01F087FF44433D
:1016F000204610BD0410024000127A0002030405C7
:10170000060708090A0B0C0D0E0F10100102030446
:1017100005060708090A0B0C0D0E0F1000093D0005
:10172000F0B587B004460120002C00D1CDE1049033
:101730002078C007E64E05941CD071680C2001404B
:10174000042911D071680140082902D17068C003D2
:101750000AD46068002803903ED0052800D121E11A
:10176000012839D1012022E13068800302D5606868
:1017700000282ED0207880074ED570680007800F93
:1017800007D070680C21014008290ED17068C00391
:101790000BD430688007059A02D5D068012818D18B
:1017A0003068F8218843116933E03068059CE168AE
:1017B00000291AD0012108433060FFF701FB0546DC
:1017C0003068800721D4FFF7FBFA401B0228F7D9C5
:1017D00002E1049807B0F0BD0120010432688A4399
:1017E0003260810430688843E4E00121884330603E
:1017F000FFF7E6FA0546306880070DD5FFF7E0FAF7
:10180000411B03200229F6D95FE13068F8218843A3
:101810002169C90001433160059C2078000722D46A
:101820002078400732D42078C00600D4EBE0059A37
:101830005069411D6DD0012874D1706B04210143A2
:101840007163706B012101437163FFF7B9FA0546BB
:10185000706B800700D5CEE0FFF7B2FA411B032082
:101860000229F5D931E1706AE169002942D00121EC
:1018700008437062FFF7A4FA0546706A8007CFD468
:10188000FFF79EFA401B0228F7D9A5E0012003903C
:101890000107F0690840029006D1F0690843F06141
:1018A000F06908400690069801918A4F3868C00593
:1018B00010D403980402386820433860FFF780FA98
:1018C00005463868204205D1FFF77AFA401B6428A4
:1018D000F7D981E005988468002C03D0052C36D018
:1018E000012C38D0306A039988433062306A042171
:1018F000884333E0012188437062FFF761FA0546AF
:10190000706A80078CD5FFF75BFA401B0228F7D975
:1019100062E0706B042188437063706BF821884328
:1019200091696DE0706B042101437163706B01215B
:1019300088437063FFF744FA0546706B800762D5F1
:10194000FFF73EFA411B03200229F6D9BDE0306AB9
:10195000042101433162306A0399084330625E4FCB
:10196000FFF72EFA0546002C0FD0306A80070FD4FF
:10197000FFF726FA401BB842F7D92DE0FFF720FA0F
:10198000411B0320B94200D99FE0306A8007F5D49B
:1019900002980028059C00D045E7F069019988432A
:1019A000F06140E70120810432680A43326001049B
:1019B00030680843306001204704FFF701FA05460C
:1019C000039800280BD03068384200D0D2E6FFF7E9
:1019D000F7F9401B6428F6D9032007B0F0BD059C39
:1019E0003068384200D1C5E6FFF7EAF9411B032011
:1019F0006429F5D969E0706BF821884305998969F4
:101A0000C900014371630598046A002C1AD07068FC
:101A10000C210140082918D1012C049855D001202F
:101A2000030471680B40F26A059D6C6AA3424CD1B5
:101A30000F231A40EC6AA24247D19A041140AA6AC5
:101A4000914242D1002007B0F0BD0120020631686A
:101A50000492914331604706FFF7B2F90546022C24
:101A60000AD1049C3068384210D0FFF7A9F9411B15
:101A700003200229F6D928E030683842E2D0FFF787
:101A80009FF9411B03200229F6D91EE0F06A0F21BD
:101A90008843059AD16A0143F1623D2000047168D0
:101AA0008143906A0843516A014371603068204362
:101AB0003060FFF785F9044630683842C2D1FFF73D
:101AC0007FF9011B03200229F6D907B0F0BDC046FB
:101AD00000100240007000408813000080B500F044
:101AE000E7FE80BDFEE7000080B50748006880691A
:101AF0004005400F03D00448FFF7AEF980BD02480F
:101B0000FFF7D7F980BDC046DC00002080B5406AF1
:101B1000816B00224A63C16B4A634121415C6029A9
:101B200006D10146413120220A70FFF793F980BDAA
:101B3000FFF7C8F980BD10B5CA0703D100228B0793
:101B400009D413E04122825C28231340282B0AD0B9
:101B5000F2228B070AD54123C35C28241C40282C81
:101B600008D0F42307E042228B07F4D41346490738
:101B700006D503E044231343490701D5B8210B439D
:101B8000006801689943016010BD00688169890798
:101B900001D5002181628169C90703D181690122D0
:101BA0000A43826170470000F0B581B004464120CD
:101BB000205C2821014020682546403528291CD179
:101BC000816983698268C6680096FE261F0CC90376
:101BD000CB0FE168022916D1D10979404907890F55
:101BE00020D0009F3740042120461E46FFF7A3FF68
:101BF00000202870204631460FE00021297008217E
:101C0000C16101B0F0BD042120460093FFF793FFAE
:101C1000002028703740204600993A46FFF71BF90C
:101C200001B0F0BDA16C491CA164A16C0229E8D1EE
:101C300004490A400021A16429700821C16120469D
:101C40001946EBE7FF03000070B504464120205C15
:101C500042220026A654844AE2626685626C0A43E8
:101C60006264283825464035022806D803212046DC
:101C7000FFF761FF2648282109E007212046FFF7EA
:101C80005AFF68786028304602D0202130466970BB
:101C90002663606320680268016852040CD409045A
:101CA0001BD4687860282CD1002028702020687010
:101CB0002046FFF7CFF870BD0122920391430160E7
:101CC000A06B002822D00021297012494163FEF741
:101CD00075FF00281AD0A06B10E00121C90302682B
:101CE0008A430260E06B002810D000212970094966
:101CF0004163FEF763FF002808D0E06B416B884723
:101D000070BD002028702046FFF7DCF870BDC0468B
:101D10000D2000080D1B000870B504465248E06213
:101D2000002525634120202222544220255465634A
:101D300026464036480712D5606A2168496A017014
:101D4000606A401C6062208D002808D0618D491EA9
:101D50006185401E2085606C042101436164072178
:101D60002046FFF7E8FE357020681021C16120464B
:101D7000FFF7FCF870BDC046F0B581B00D460446D3
:101D80000068076820210091C16107212046FFF704
:101D9000D2FE0120C603206841683143416041689A
:101DA000634A0A4042602046FFF7EFFE780405D4FC
:101DB000374209D0E06B002803D105E0A06B002872
:101DC00002D0006840686085680710D5606A2168A5
:101DD000496A0170606A401C606204208543208D5E
:101DE000002804D0401E2085608D401E6085274657
:101DF0004037608D002803D0606C0421014361648A
:101E000000262663BE706663606C00280CD0616C8F
:101E10002046FFF719FF7878282823D12046294645
:101E2000FFF77AFF01B0F0BDE06ABD4DA8420AD1CC
:101E30003E70787800997970222810D12046FFF7FB
:101E4000DDFA01B0F0BD204600F010F8E5623E700A
:101E5000009878702046FFF789F801B0F0BD204661
:101E6000FFF7CDFA01B0F0BD0000FFFF70B50446EA
:101E70004220002525544120205C26464036292852
:101E80000CD1282070702120206301212046FFF70B
:101E900052FE35702046FFF7B2FA70BD70782A28DE
:101EA0000BD1282070702220206302212046FFF7EA
:101EB00042FE35702046FFF7A1FA70BDF0B581B043
:101EC000044600688069C00602D4002001B0F0BD5D
:101ED0000E462746403720688169890610D415468A
:101EE00003E02068816989060AD4701CF9D0FEF7E6
:101EF00067FF2021002E10D0401BB042F1D90CE02A
:101F00001021C1612021C1612046FFF73EFE2068FB
:101F10004168074A0A4042600421606C08436064DB
:101F20002020787000203870B870012001B0F0BD1A
:101F300000E800FEF0B583B01D4602920446324828
:101F40000090DAB20023204600F0ECF8089E099FCA
:101F5000204631463A4600F05AF9002802D00120C6
:101F600003B0F0BD012D0AD020680299090A8162F0
:101F7000204631463A4600F04AF90028EFD1206861
:101F80000299C9B28162009740210022204633465F
:101F900000F0DEF8411E884103B0F0BDF0B583B01B
:101FA0001D460292044618480090DAB2012003064A
:101FB000204600F0B7F8089E099F204631463A4671
:101FC00000F025F9002802D0012003B0F0BD012D5A
:101FD0000AD020680299090A8162204631463A46B1
:101FE00000F015F90028EFD120680299C9B281628A
:101FF0000097802100222046334600F0A9F8411EB8
:10200000884103B0F0BDC04600200080F0B583B029
:1020100004464020205CE36A012802D1022003B07C
:10202000F0BD16460D46204640300127029007704D
:102030000E40B00605D5204629460193FFF79CFEC9
:10204000019BF00616D4700727D4300749D4B00797
:10205000029E5AD5608D00285BD02068616A0A789C
:102060008262481C6062208D401E2085608D401E6B
:1020700060854AE0608D002827D020681021C1616A
:10208000606C04210143616424480342029E3CD1F8
:10209000616C2046FFF7D8FD37E0608D0028029E76
:1020A0000CD0606A2168496A0170606A401C6062F5
:1020B000208D401E2085608D401E6085608D1849F2
:1020C0008B4222D000281DD01FE0029E7078790636
:1020D0008B420BD1282809D120462946FFF71CFE48
:1020E00013E02046FFF760FD029E0EE07078216845
:1020F0001022CA610A498B4207D0292805D12046FF
:10210000FFF743FD2046FFF7B1FE0020307003B01B
:10211000F0BD02480342F8D1F4E7C046FFFFFFFEDE
:102120000000FFFF70B5049C650D00684668AE4373
:10213000054D3540054E0E401E43110431432143E9
:102140002943416070BDC046009C00FCFF030000B5
:10215000F0B583B00F460446006880690840401A15
:10216000414241410020914227D11D46164601902F
:102170002046403000900898029007E0206880696F
:102180003840C01B41424141B14215D1681CF5D0D5
:10219000FEF716FE002D03D00299401AA842EDD991
:1021A000606C202108436064009A51700020107018
:1021B0009070012003B0F0BD019803B0F0BDF0B500
:1021C00081B016460F460446403000902068806972
:1021D000800618D4204639463246FFF76FFE0125A7
:1021E000002811D1FEF7ECFD002F02D0801BB84271
:1021F000ECD9606C202108436064009A5170002083
:102200001070907000E00025284601B0F0BDF0B5D8
:1022100083B00446006880690027800726D41546ED
:102220000E46029720464030019003E02068806906
:1022300080071AD4204631462A46FFF73FFE012781
:10224000002813D1701CF1D0FEF7BAFD002E02D089
:10225000401BB042EAD9606C202108436064019AB7
:10226000517000201070907000E0029F384603B05B
:10227000F0BD000081B00C490A6802430A60096899
:1022800001400091009801B07047C04681B0012024
:10229000400405490A6802430A6009680140009148
:1022A000009801B07047C0461410024081B0054943
:1022B0000A6802430A60096801400091009801B071
:1022C0007047C0461C10024081B0012040040549FF
:1022D0000A6802430A60096801400091009801B051
:1022E0007047C04618100240F0B581B00D46044654
:1022F000096800292DD0002709E06A692046314687
:1023000000F050F87F1C29680846F84021D00126CB
:10231000BE400E40F6D06A682046314600F056F8BE
:102320006868401E012804D8AA682046314600F09B
:1023300065F82A692046314600F057F86868022897
:10234000E0D1FF2ED9D86A692046314600F020F846
:10235000D8E76868401E012803D8EA68204600F0E4
:102360003EF8002001B0F0BD034909680140091A98
:10237000484248417047C04610000048816270479B
:1023800001480221016070472804004881627047BB
:10239000494349434A430F234B43016A994311433D
:1023A00001627047090A494349434A430F234B439B
:1023B000416A99431143416270478161704700004F
:1023C00001481021016070471800004849434A4302
:1023D00003234B43016899431143016070474A430B
:1023E00043688B4313434360704749434A43032385
:1023F0004B43C16899431143C160704749434A4305
:1024000003234B4381689943114381607047000067
:1024100042490A6802430A607047C0460121C94325
:102420000161704701688022914301607047016833
:1024300001229143016070477A48016880229143EC
:1024400001607047016801220A4302607047000082
:102450000248016801220A43026070470C440140AF
:10246000416901220A434261704700000148006847
:102470007047C0462404004010B5012805D0042848
:1024800005D0102805D1022004E0002002E0012040
:1024900000E006203049095C03228A402F4B185C7B
:1024A0002F4BC458944301228A402243C25010BD8E
:1024B000B0B5012805D0042805D0102805D1022088
:1024C00004E0002002E0012000E00620224A125C25
:1024D000F0239340214C205C214C05599D43090C6D
:1024E000914029430151B0BD012805D0042805D0F1
:1024F000102805D1022004E0002002E0012000E0C5
:10250000062004A1085C0A218140044802688A432D
:102510000260704700020406080A0C002004004014
:1025200010B5012805D0042805D0102805D10220B7
:1025300004E0002002E0012000E006200649095CDA
:102540000C228A40054B185C054BC4589443042266
:102550008A402243C25010BD283B0008213B00089E
:102560001804004070B50D46044601681F4EB04285
:1025700002D0B848844204D170208143686808437F
:1025800000E008461A498C4208DDB4420CD01949D3
:102590008C4209D018498C4206D024E0AD498C42C7
:1025A00002D016498C421ED1032109028843E968F2
:1025B00001432160A968204600F028F829882046B8
:1025C00000F032F8B44205D00A48844202D0F04804
:1025D000844203D1297C204600F028F82046FFF7EA
:1025E0003FFF002070BD0146E3E7C046002C0140DC
:1025F000FF2B014000480140004401400020004002
:102600000169012008407047C1627047C16270478C
:10261000416270470348016801220A4306218A4348
:102620000260704708040040816270470163704790
:102630000248016870229143016070470404004021
:10264000F0B58BB000250A95099508950795069574
:1026500005950124A005FFF70DFE6004FFF70AFEB3
:10266000A00427460494FFF705FE0920C4061021A4
:1026700001912046FFF78AFE202102912046039413
:10268000FFF784FE294802263146FFF77FFE0996B0
:1026900006950597264805AF3946FFF725FE0996AA
:1026A0000695059622483946FFF71EFE09960695BF
:1026B0000498059020463946FFF716FE09960695C0
:1026C000059620463946FFF70FFE09960695042029
:1026D000059020463946FFF707FE09960695082023
:1026E000059020463946FFF7FFFD049809900895AC
:1026F0000324079406900198059003983946FFF744
:10270000F3FD07A870C004980690029805900398FE
:102710003946FFF7E9FD07A870C0049806900596B2
:1027200002483946FFF7E0FD0BB0F0BD0004004859
:102730000014004810B5124800210122114B124C20
:10274000046043608160C260016141618161C16177
:102750000162FEF7B9FB002801D0FEF70FFA084826
:102760000021FEF733FB002801D0FEF707FA0448EA
:102770000021FEF74DFB002801D0FEF7FFF910BD48
:10278000DC0000200B02000000540040F0B58DB0CA
:1027900000260C960B960A960996089607960696BA
:1027A000059604960396029602252846FFF77EFDBD
:1027B000FFF76CFD01240794069505960320019010
:1027C00004900395402002900920C006009002AFBB
:1027D0003946FFF789FD0794069505960198049000
:1027E00003958020029000983946FFF77DFDFFF7A2
:1027F00011FF2046FFF740FE2046FFF791FE21051E
:102800002046FFF755FE2046FFF76EFE10252846AE
:10281000FFF732FE2846FFF783FE61052846FFF7E3
:1028200047FE2846FFF760FE08A90E800B96084871
:102830000A900996C04C2046FFF794FE2046FFF709
:10284000F1FDFFF7F5FEFFF7F7FD0DB0F0BDC04657
:10285000FFFF000000040040FEE7704770470321BF
:102860004156022282563C2353435918E122120159
:102870000388534359188160704707214156062247
:1028800082563C2353435918E12212018388534353
:102890005918C1607047000080B5044908601549A7
:1028A0000968002900D0884780BDC0468C00002000
:1028B000B0B5401E010E01D00120B0BD054D6860CD
:1028C0000024E043032100F093F8AC600720286067
:1028D0002046B0BD10E000E080B5FEF791FD024853
:1028E0000068FFF7D9FF80BD3C0100200149086066
:1028F0007047C0468800002070B594B008AC302105
:102900002046FDF7DCFD0025079506950595049505
:1029100013950520C00412901195022610961020E0
:102920000C9001200B900896039502950195009557
:102930002046FEF7F5FE002814D10795069505966A
:102940000720049004A80121FEF730FE002809D1D9
:102950000395202000906846FEF7AAFD002801D1CB
:1029600014B070BDFEF70AF97047000010B5084CAE
:102970002046FFF745FE012808D12046FFF74EFD0F
:102980002046FFF754FD03480121017010BDC046E9
:1029900000440140D800002080B504480021044ACA
:1029A000012300F0E1FD0349086080BDB80B000081
:1029B0005535000844010020012040050649086003
:1029C0007047C046002805D41F21084001218140DE
:1029D000014801607047C04600E100E0FF200002AE
:1029E00002490A6882430A607047C04614E400E066
:1029F000002805D40322034693430C4A9A1806E0A4
:102A00000F220240083A03239A43074BD21880074B
:102A1000C00E8901C9B28140FF23834010689843EA
:102A2000084310607047C0461CED00E000E400E081
:102A30000A78C2704A788270CA788B781B029A181A
:102A400002800A79C2714A798271CA798979090248
:102A5000891881807047C2780A7082784A704278FB
:102A60008A700278CA70C2790A7182794A71427991
:102A70008A710079C871704710B501460B4C204629
:102A8000FFF7C2FD2046FFF7C9FC00212046FFF7F3
:102A9000BFFD2046FFF7D6FC2046FFF7B1FD00281A
:102AA000FAD02046FFF7C3FC10BDC046002000400E
:102AB000F0B583B00D460446062008560721695636
:102AC000AB88009001910426CD4A20463146FDF79F
:102AD00081FB0F4801780F4F38780123224600F020
:102AE00057FC02202856032169562B88009001913B
:102AF00020463146C24AFDF76DFB38780449097813
:102B0000491CC9B20023224600F042FC03B0F0BDCC
:102B1000720000207000002010B5074C07492046C5
:102B2000FFF776FD0120FFF773FC1020FFF770FC24
:102B30002046FFF787FC10BD00040040FF7F000027
:102B400080B5FFF775FF80BD88B0FEF763FCFFF727
:102B5000D3FEFFF775FDFFF719FEFFF7EBFDFFF75B
:102B6000DBFF00F0E7FC6420FEF74CF800F09EFB72
:102B700000F05EFB01209F4C08222146FDF7DCFFA0
:102B80002078FF2818D06078FF2815D0A078FF287B
:102B900012D0E078FF280FD02079FF280CD0607980
:102BA000FF2809D0A079FF2806D0E079FF2803D0BC
:102BB00091489049FFF7C4FF8F4C2046FFF75DFE18
:102BC0000620205607216156A388009001918B4D65
:102BD00014268B4F284631463A46FDF7FBFA8948C2
:102BE00001788948007801232A46039300F0D0FB3E
:102BF00002200790205603210691615623880090F9
:102C00000191284631463A46FDF7E4FA7E480078BD
:102C10007C490978491CC9B200232A46059300F073
:102C2000B7FBFFF7ADFBFFF7CBFB6420FDF7EAFF37
:102C3000764E774A20463146154600F013FA00F0EA
:102C40003DF92A4628800028F4D01088062845D867
:102C50007844007940008744393A9B03446EA100D0
:102C6000684E664F059838736A48386076487860D1
:102C70007448B860317864480078012304933A4678
:102C800000F086FB0798205606996156238800902D
:102C90000191142138465A4AFDF79CFA5A480078A7
:102CA0003178491CC9B23A46584E059F3B4600F060
:102CB0006FFB676020465C4F3946FFF7CCFE082269
:102CC00004983946FDF748FF2A46B3E7B2E757486C
:102CD00003681426494831465CA208E00598108034
:102CE000A8E75248036814264448314650A2FDF72D
:102CF00071FA44480178444F387801233F4A00F084
:102D000047FB079820560699615623880090019149
:102D10003A4831463D4E3A4AFDF75CFA387839492F
:102D20000978491CC9B20023344A00F031FBFFF78F
:102D300033FE2A467EE70798205606996156238877
:102D40000090019114212D4E30461546354AFDF76D
:102D500041FA2D4800782B490978491CC9B2012352
:102D600032462A4E00F014FB00F0A8F8288005280F
:102D700004D02046314600F017F9F5E720462A4FE7
:102D80003946FFF768FE012008223946FDF7E4FEC8
:102D90001A482146FFF78CFE2A464BE7174E1D487E
:102DA00030601D4870601D48B0601D48F060039B96
:102DB0001804206013480178134F3878324600F029
:102DC000E7FA0798205606996156238800900191EA
:102DD00014213046134AFDF7FDF93878094909787E
:102DE000491CC9B200233246084E00F0D1FA2A46E7
:102DF00020E7C046A40000209400002074000020BA
:102E00002F3B00087100002000000020C4000020BB
:102E1000280100206B65795F63656E7465725F6C75
:102E20006F6E67004A3B0008B80000202C010020AC
:102E3000666F72776172645F737465703D25336489
:102E4000000000006C6F6E67656E635F6261636BAC
:102E500020737465703D25336400000010B5410097
:102E6000074C2046FFF7D0FB00212046FFF7D0FBA0
:102E70002046FFF7D3FA2046FFF7E4FA10BDC0461C
:102E80000044014010B50420FFF76EFA0124002829
:102E900001D0204610BD0220FFF766FA0028F8D1C5
:102EA0000120FFF761FA0028F3D10820FFF75CFA50
:102EB0000446401E8441204610BD000070B5364DCA
:102EC000287800280FD104242046FFF74DFA012866
:102ED00005D002242046FFF747FA012842D10120FD
:102EE00028702E4804802878012804D13C20FFF760
:102EF000B5FF022028702A4E3078297802290ED199
:102F000001280CD100243470FFF7BCFF00281AD030
:102F10006420FFF7A3FF2348047003202870307853
:102F200029780024032934D1012832D100243470B7
:102F3000FFF7A8FF002808D01A480178042909D80B
:102F4000491C017022E02C7001E000202870134819
:102F5000008870BD11480188052915D0022915D1B6
:102F6000032112E001242046FFF7FEF9012801D1D8
:102F70002C70B6E70820FFF7F7F90128B3D12C70C1
:102F8000064805210180AEE7062101806420FFF795
:102F900065FF204670BDC046320100203001002090
:102FA000D800002090000020F0B583B00D46044604
:102FB000FFF75CFA401E80B28B49081AC10F401817
:102FC000401068602968814248D02860451A2ED098
:102FD0002846133026282AD8844F1421844A38469C
:102FE0002B46FDF7F7F883480178834800780126DF
:102FF0003A46334600F0CCF9A0784019A07040B2B0
:1030000000280BD43C2812DB0020A0702188491C2A
:103010008AB2D2082C2A07D8084605E02088002862
:1030200004D03B21A170401E208000E0A670022049
:103030002056032161562388009001916B4C142186
:10304000074A2046FDF7C6F86B48007869490978B9
:10305000491CC9B20023224600F09AF903B0F0BD22
:103060004A3B0008F0B581B00E460090FFF7FEF92C
:10307000401E80B25C49081AC10F40184710F76023
:10308000B468BC4267D0B7603D1B64D0284613309B
:10309000262860D80098FFF7E2FB012D4EDB307C3C
:1030A000411C48B2012800DB01213174012852DBA8
:1030B0004E4E14214E4A30462B46FDF78BF84D48B4
:1030C00001784D4800780123324600F061F9012D66
:1030D0002846009D13DB441C494E4A4FA868FDF763
:1030E00064FC464A3346FDF7EFF9FDF711FC386002
:1030F0003968012000F090F9641E012CEEDC414893
:1031000003683A4C142145A22046FDF763F83A487B
:10311000007838490978491CC9B20023224600F0DA
:1031200037F9A868E96842183B498A4201D93F4902
:103130005218EA602846FDF725FD0CE0002D0AD55F
:10314000307C401E41B2002901DA0020C0433074B7
:1031500040B2002801D401B0F0BD244E1421244A0D
:1031600030462B46FDF736F8224801782248007891
:103170000123324600F00CF9002D009D12D5E41B0E
:103180001F4E204FA868FDF710FC1C4A3346FDF780
:103190009BF9FDF7BDFB38603968002000F03CF971
:1031A000641EEFD117480368104C142116A2204664
:1031B000FDF710F8104800780E490978491CC9B28B
:1031C0000023224600F0E4F8AB68E968994201D98F
:1031D000CB1A07E004D2104A8918C91A4B1C01E027
:1031E0009942A7D1EB60A5E7FF7F000074000020A3
:1031F000413B0008710000200000002023DBF97E25
:103200006ABCD43F2C0100206261636B73746570EB
:103210003D253364000000007FC61300666F72779F
:10322000617264737465703D253364008039ECFF0E
:10323000F0B581B000242046214600F021F80F4E61
:103240002546274603E0781CB74207460DD22020CA
:1032500000F07EF86D1CA8B28128F4D3641CE1B2A2
:103260000025284600F00CF8EDE70F48002101701A
:1032700046480521017001B0F0BDC046FF010000C5
:1032800010B5044608480170404804705039C8B26F
:1032900000F0A0F80F20204000F09CF8200910302A
:1032A00000F098F810BDC0467200002010B5AE20A6
:1032B00000F090F8202000F08DF80024204600F067
:1032C00089F8B02000F086F8C82000F083F8204686
:1032D00000F080F8102000F07DF8402000F07AF82F
:1032E000812000F077F8FF2000F074F8A12000F0B2
:1032F00071F8A62000F06EF8A82000F06BF81F20EF
:1033000000F068F8A42000F065F8D32000F062F81F
:10331000204600F05FF8D52000F05CF8F02000F0C7
:1033200059F8D92000F056F8222000F053F8DA209E
:1033300000F050F8122000F04DF8DB2000F04AF8C1
:10334000022000F047F8AF2000F044F810BD000064
:10335000B0B5052460430B4909180B4D2846224699
:10336000FDF74EF8002068710621284600F044F869
:10337000064801780831CAB2802A00D80C46047089
:10338000B0BDC046A1380008350100207000002003
:1033900070B514460D460646002B01D0FFF748FFD6
:1033A00030462946FFF76CFF0320FDF72BFC204633
:1033B00000F001F870BD10B501460078002807D074
:1033C0004C1CFFF7C5FF611C207800280C46F8D183
:1033D00010BD000080B582B0064A50700020107009
:1033E000FF2000900B4878210223FDF7C1FD02B0B9
:1033F00080BDC0463301002080B584B0FF2200AB01
:1034000007C30448782140220123FDF703FF04B0DD
:1034100080BDC046DC000020F0B581B00F460446F8
:103420001F480221FEF7C9FF0620FFF725FB0920F0
:10343000C506009420212846002C02D0FEF7BDFFCF
:1034400001E0FEF79BFF0620FFF716FB002F11D0CF
:10345000102628463146FEF791FF03242046FFF749
:103460000BFB28463146FEF7A8FF2046FFF704FB7A
:103470007F1EEDD102270A483946FEF77FFF384606
:10348000FFF7FAFA00982021012804D12846FEF718
:1034900075FF01B0F0BD2846FEF78FFF01B0F0BD0B
:1034A0000004004810B586B00024059404940394E9
:1034B0000294019401200002FEF7F8FE01A92F20DA
:1034C00008800494FF2003900294044C2046FFF7E8
:1034D00049F82046FEF7A6FF06B010BD00200040C8
:1034E00010B586B0002405940494039402940194CA
:1034F000FEF7EAFE01A90C740B48088004940B48FF
:10350000039002940A4C2046FFF72CF82046FEF761
:1035100089FF2046FEF782FFFEF79AFFFFF75EFA6B
:10352000FFF74AFA06B010BDBF5D0000FFFF0000C4
:103530000044014080B50548FFF7D8F9044800F081
:1035400035F8FFF7AFFFFFF7CBFF80BDB9350008B7
:10355000B10B000880B502480249FFF7A9FA80BD07
:103560007400002094000020F0B581B005460020D2
:10357000214E0124F768002F07D0471C641C103629
:1035800004283846F6D900240DE0F26071727560A7
:10359000002B06D0074800688047401930600120A2
:1035A00000E000203072204601B0F0BD0149086003
:1035B0007047C04640010020F0B581B004460026A7
:1035C00001250D4F08E000210172C1682846884797
:1035D0006D1C1036602E0DD0B819017A0129F7D173
:1035E000B959A142F4D8417A0029ECD041680919AF
:1035F000B951EAE701B0F0BD4801002043088B4211
:103600001AD3002203098B4279D3030A8B425ED37B
:10361000030B8B4242D3030C8B4227D30902FF22B8
:1036200012BA030C8B4202D31212090203D0030B0D
:103630008B4233D31AE0D3E0411A8041401C7047DB
:1036400003460B4371D443088B42F5D30022030990
:103650008B4254D3030A8B4239D3030B8B421DD3C5
:10366000030C8B4202D394466EE0090AC30B8B42D3
:1036700001D3CB03C01A5241830B8B4201D38B037E
:10368000C01A5241430B8B4201D34B03C01A524123
:10369000030B8B4201D30B03C01A5241C30A8B4266
:1036A00001D3CB02C01A5241830A8B4201D38B0251
:1036B000C01A5241430A8B4201D34B02C01A5241F5
:1036C000030A8B4201D30B02C01A5241CDD2C30967
:1036D0008B4201D3CB01C01A524183098B4201D3E3
:1036E0008B01C01A524143098B4201D34B01C01ACE
:1036F000524103098B4201D30B01C01A5241C30846
:103700008B4201D3CB00C01A524183088B4201D3B4
:103710008B00C01A524143088B4201D34B00C01AA0
:103720005241411A524110007047CA0F00D049421D
:10373000031000D34042534000229C4603098B42B1
:103740002DD3030A8B4212D38901FC2212BA030A39
:103750008B420CD3890192118B4208D389019211BB
:103760008B4204D3890137D0921100E08909C30943
:103770008B4201D3CB01C01A524183098B4201D342
:103780008B01C01A524143098B4201D34B01C01A2D
:10379000524103098B4201D30B01C01A5241C308A5
:1037A0008B4201D3CB00C01A524183088B4201D314
:1037B0008B00C01A5241D9D243088B4201D34B002F
:1037C000C01A5241411A00D2014652411046634686
:1037D0005B1000D34042704763465B1000D3404209
:1037E00001B50021004201D0C9430846C046C04689
:1037F00002BD30380A2801D20120704700207047EE
:1038000004000008000000000000000200010000A9
:103810001080807F7E7D7C7B7A7978777676757470
:1038200073727171706F6E6E6D6C6C6B6A6A6968C1
:1038300068676666656464636362616160605F5F58
:103840005E5E5D5D5C5C5B5B5A5A595958585757D0
:103850005656555555545453535252525151505037
:10386000504F4F4F4E4E4D4D4D4C4C4C4B4B4B4A89
:103870004A4A4949494848484747474746464645CE
:103880004545444444444343434342424242414108
:1038900041000000000000000001020304060708C8
:1038A00009000000000000005F00000007000700A2
:1038B000147F147F14242A7F2A122313086462368B
:1038C000495522500005030000001C224100004120
:1038D000221C0014083E081408083E080800503056
:1038E00000000808080808006060000020100804B4
:1038F00002000000000000005F0000000700070059
:10390000147F147F14242A7F2A122313086462363A
:10391000495522500005030000001C2241000041CF
:10392000221C0014083E081408083E080800503005
:103930000000080808080800606000002010080463
:1039400002000000000000005F0000000700070008
:10395000147F147F14242A7F2A12231308646236EA
:10396000495522500005030000001C22410000417F
:10397000221C0014083E081408083E0808005030B5
:103980000000080808080800606000002010080413
:10399000023E5149453E00427F4000426151494646
:1039A0002141454B311814127F1027454545393CBC
:1039B0004A494930017109050336494949360649E2
:1039C00049291E0036360000005636000008142231
:1039D0004100141414141400412214080201510966
:1039E00006324979413E7E1111117E7F494949369F
:1039F0003E414141227F4141221C7F494949417F4B
:103A0000090909013E4149497A7F0808087F0041B8
:103A10007F41002040413F017F081422417F404008
:103A200040407F020C027F7F0408107F3E414141ED
:103A30003E7F090909063E4151215E7F0919294649
:103A4000464949493101017F01013F4040403F1F44
:103A50002040201F3F4038403F631408146307088C
:103A60007008076151494543007F41410002040845
:103A700010200041417F0004020102044040404008
:103A800040000102040020545454787F48444438D4
:103A90003844444420384444487F38545454180827
:103AA0007E0901020C5252523E7F08040478004401
:103AB0007D40002040443D007F1028440000417FAD
:103AC00040007C041804787C08040478384444449A
:103AD000387C14141408081414187C7C0804040896
:103AE0000854545420043F4440203C4040207C1C57
:103AF0002040201C3C4030403C44281028440C50BE
:103B000050503C4464544C44000836410000007F4F
:103B100000000041360800100808100878464146A9
:103B200078000000000404040000080000000825DC
:103B30003033642A20253032642720253032642235
:103B40000064656C74613D256400253033642A206F
:103B50002530326427202530326422206564697460
:103B600000000000883B000800000020100000005A
:103B7000F4000008983B000810000020980700009F
:103B800010010008000000000500000000127A008B
:083B9000010000000400000028
:04000005080000B13E
:00000001FF
