:020000040800F2
:10000000C00700209D010008E5270008391A0008F4
:1000100000000000000000000000000000000000E0
:10002000000000000000000000000000EF270008B2
:100030000000000000000000E72700085D2800081D
:10004000AF01000800000000AF010008AF01000888
:10005000AF010008AF010008AF010008AF010008C0
:1000600000000000AF010008AF010008AF01000868
:10007000AF010008AF010008AF0100080000000058
:10008000AF0100080000000000000000AF01000800
:1000900000000000F1280008AF0100083D1A000828
:1000A00000000000AF01000800000000AF010008E0
:1000B00000F002F800F046F80CA030C80838241808
:1000C0002D18671EA246AB4654465D46AC4201D190
:1000D00000F038F87E460F3EB6460FCC012633427C
:1000E00000D0FB1A3343A246AB461847443D0000FC
:1000F000643D0000103A02D378C878C1FAD852079C
:1001000001D330C830C101D504680C6070470000CD
:100110000023002400250026103A01D378C1FBD823
:10012000520700D330C100D50B60704710B5642969
:1001300002D100F093F810BD002010BD1FB51FBD07
:1001400010B510BD00F047FC1146FFF7F7FF02F0B5
:1001500019FE00F05FFC03B4FFF7F2FF03BC00F0F0
:1001600065FC000070B505460C46164602E00FCC53
:100170000FC5103E102EFAD2082E02D303CC03C5B1
:10018000083E042E07D301CC01C5361F03E02178B9
:100190002970641C6D1C761EF9D270BD074880471B
:1001A00007480047FEE7FEE7FEE7FEE7FEE7FEE75B
:1001B00004480549054A064B70470000ED28000831
:1001C000B1000008C0010020C0070020C0030020CB
:1001D000C00300200FB41CB50C0007AA009001D08A
:1001E0000019401E084B7B4469460190069800F0B8
:1001F000BEFB002C03D06946002000F0CBFB1CBCEA
:1002000008BC04B018470000B507000070B50446EC
:1002100085690068C10601D5302600E02026C007A8
:1002200007D070BD62683046A1689047206A401CC4
:1002300020626D1EF6D570BD70B5044685690078E4
:10024000C00707D170BD6268A16820209047206A6E
:10025000401C20626D1EF6D570BD0000F7B500256C
:1002600075291068009914A611D0C046C046002810
:1002700002DA404211A608E0009909688A0701D510
:100280000FA602E0490704D50EA6012501E0C046ED
:10029000C046009F0024243704E000F088FB303182
:1002A0003955641C0028F8D12B4632462146009867
:1002B00000F0FFFAFEBD0000000000002D0000006D
:1002C0002B00000020000000F3B50446002081B0A0
:1002D00020622046E168884700287DD0252802D08A
:1002E0006268A16883E0454F00257F442046E168AD
:1002F00088472028064608DB312E06D2B819203858
:100300000078002801D00543F0E7A80701D50420B4
:1003100085430020E0610746A0612A2E0AD03046BE
:1003200003F0EFFB002827D0B8000019303E009002
:10033000866119E00298BA00121902C89161029010
:100340002046E1688847012F064617D1E06900285A
:100350001FDA202085431CE000980A218069484369
:1003600000998019303888612046E1688847064640
:1003700003F0C7FB0028EFD1012F0AD02E2E08D1A1
:100380002046E16888470646202005437F1C022F4F
:10039000C3DBA069002803DA4042A06101200543C5
:1003A000E80701D010208543002E24D03046413884
:1003B000192803D80120C0020543203620462560B5
:1003C0003146029A1546FFF7B1FE00280CD00128ED
:1003D00007D0ED1DE80800E00DE0C00008300290F5
:1003E00077E72D1D029574E762683046A168904753
:1003F000206A401C6CE7206AFEBD00002238000025
:10040000F8B5042A2CD3830712D00B78491C03704B
:10041000401C521E83070BD00B78491C0370401CF4
:10042000521E830704D00B78491C0370401C521ED7
:100430008B079B0F05D0C91ADF002023DE1B08C9DC
:100440000AE0FFF78FFEF8BD1D4608C9FD401C46B7
:10045000B4402C4310C0121F042AF5D2F308C91A65
:10046000521EF0D40B78491C0370401C521EEAD473
:100470000B78491C0370401C012AE4D409780170F0
:10048000F8BD01E004C0091F0429FBD28B0701D588
:100490000280801CC90700D00270704700290BD071
:1004A000C30702D00270401C491E022904D38307EF
:1004B00002D50280801C891EE3E70022EEE70022BD
:1004C000DFE70000002203098B4273D3030A8B424B
:1004D00058D3030B8B423CD3030C8B4221D312E045
:1004E00003460B437FD4002243088B4274D3030995
:1004F0008B425FD3030A8B4244D3030B8B4228D336
:10050000030C8B420DD30902FF2212BA030C8B425B
:1005100002D31212090265D0030B8B4219D300E0FB
:10052000090AC30B8B4201D3CB03C01A5241830B80
:100530008B4201D38B03C01A5241430B8B4201D330
:100540004B03C01A5241030B8B4201D30B03C01A59
:100550005241C30A8B4201D3CB02C01A5241830AD3
:100560008B4201D38B02C01A5241430A8B4201D302
:100570004B02C01A5241030A8B4201D30B02C01A2C
:100580005241CDD2C3098B4201D3CB01C01A524193
:1005900083098B4201D38B01C01A524143098B421C
:1005A00001D34B01C01A524103098B4201D30B0105
:1005B000C01A5241C3088B4201D3CB00C01A52412A
:1005C00083088B4201D38B00C01A524143088B42EF
:1005D00001D34B00C01A5241411A00D20146524188
:1005E000104670475DE0CA0F00D04942031000D3A7
:1005F000404253409C46002203098B422DD3030AFC
:100600008B4212D38901FC2212BA030A8B420CD30B
:10061000890192118B4208D3890192118B4204D334
:1006200089013AD0921100E08909C3098B4201D3B4
:10063000CB01C01A524183098B4201D38B01C01AEE
:10064000524143098B4201D34B01C01A5241030965
:100650008B4201D30B01C01A5241C3088B4201D314
:10066000CB00C01A524183088B4201D38B00C01AC1
:100670005241D9D243088B4201D34B00C01A524198
:10068000411A00D201465241104663465B1001D325
:100690004042002B00D54942704763465B1000D3AF
:1006A000404201B50449002802DC491C084000E032
:1006B0000846C046C04602BDFFFFFF7F7047704737
:1006C00070470000F0B5FF252D04C609C209FF27B9
:1006D00004462E400137CB093E4348402A402B4078
:1006E0000746002A6BD0002B69D0AA4267D0AB42E4
:1006F00065D0002800DA32460125ED0529432C4358
:1007000009022002090AD21A4B0C7F24E31A434C37
:10071000000A7C44E35C7D242404121914145B0059
:10072000A218884201D3521C00E0400049420C4606
:100730005C4324115C43DB016415E318040A5C4349
:10074000C502200D0C4644436419250A5D4323036A
:10075000EC0C0D46654300030019EB184C42A34214
:1007600001D35B18401CD4052018002B07D05B0078
:10077000C91804D3401C002901D1400840003F2182
:1007800089048A4209D3002A08DC1106090F04D023
:10079000032149074018C00FC007F0BD01224100E6
:1007A000120689187F2252069142F6D20521490786
:1007B000C84201D59010F0BDFF20C005F0BD002F4C
:1007C00000DA32461648AA4207D2AB4205D21902D5
:1007D000090E17D0F80FC007F0BDFF2563002D06E6
:1007E000AB42F9D84900A942F6D8AB4201D1A9429F
:1007F000F2D0A94201D1002101E061004908D005F1
:100800000843F0BD1102090EFBD0FF200243D005C2
:10081000F0BD0A460146104654E700000B340000C4
:100820000000C07F0102C21504D00123DB07194379
:10083000002A0ADB9E239A1A02D40846D040704749
:10084000FF2241001206914201D900207047C017D3
:10085000C04370471F22030C02D10F2200041CD09A
:10086000030E01D10002083A030F01D10001121F4B
:10087000830F01D18000921E002801DB4000521E30
:10088000D2055118021251181922904004D3491C64
:10089000002801D14908490008467047C10FC9071F
:1008A00000D04042012292071143D3E7012189077A
:1008B000D0E7FFB504460D4681B024300090216892
:1008C000880604D51022E0699143216000E00120F0
:1008D000A84201DD471B00E000270498A1697A19AE
:1008E0001018081AA0612078C00602D42046FFF72D
:1008F0008DFC002608E003986268A168805D90473F
:10090000206A401C761C206204988642F3DB207823
:10091000C0060AD52046FFF779FC06E06268A168A8
:1009200030209047206A401C206238467F1E0028F5
:10093000F4DC07E000986268A168405D9047206A97
:10094000401C206228466D1E0028F3DC2046FFF77D
:1009500073FC2078000602D5022005B0F0BD01200E
:10096000FBE7000001694A1C02610878704700B586
:100970008FB00291002105910549019379440391BB
:10098000114604906846FFF79FFC0FB000BD0000C1
:10099000E5FFFFFF0A681070521C0A6070470CC91F
:1009A00008399A4202D2531C0B60107070470146FE
:1009B0008008081A02091018020A1018020C1018F0
:1009C000C008820012185200891A01E0401C0A393E
:1009D0000A29FBD27047754600F024F8AE460500A0
:1009E00069465346C008C000854618B020B5FFF7D9
:1009F000DFFB60BCB64600260027C0C5C0C5C0C529
:100A0000C0C5C0C5C0C5C0C5C0C5403D4908490036
:100A10008D46704710B50446C046C0462046FFF7D5
:100A20009AFB10BD004870471800002001491820AB
:100A3000ABBEFEE726000200704700214160C160A6
:100A40007047000010B584B00446FF200091019269
:100A500002900C48A0210223224600F0CBFA04B0F9
:100A600010BDC04610B584B00446FF20009101922D
:100A700002900448A0210223224600F075FB04B036
:100A800010BDC046EC000020EFF3108072B6FEE708
:100A900070B50446E1200501E6683046294602F0BB
:100AA00035FFA0804543751B3C262846314602F0A1
:100AB0002DFFA0714643A81BE07170BD10B5044620
:100AC00001784170034802F021FFA060204601F048
:100AD00073FE10BD80C6130070B50446E120050109
:100AE000A6683046294602F011FF20804543751B59
:100AF0003C262846314602F009FFA0704643A81B59
:100B0000E07070BD014800687047C0469400002046
:100B1000B0B52121415C022918D10146203102687B
:100B200013680E24A343136013680125AB431360BD
:100B3000C26B036C2C469C40546000240C704D70BA
:100B4000416B002900D088472046B0BD0421816355
:100B500001242046B0BD0000B0B5044600F0DAF82C
:100B60000546601C02D004480078041900F0D2F851
:100B7000401BA042FAD3B0BD0C000020F0B58CB0F1
:100B800009900B68002B00D1B4E05B48099A8242BF
:100B900001D0052000E003200090012000252F4611
:100BA0000290044608910BE02243069CF2600B6819
:100BB0001846E040AD1C3F1D641C002800D199E0A0
:100BC000601E029A0A90824013400593EFD0039270
:100BD00004950694486810220243122A099E0FD1F8
:100BE0001C2038400F2181400A9AD3089B00F3183B
:100BF0001A6A8A4308990969814011431962089960
:100C0000079703252846049CA040326882434F681A
:100C10003B4601952B402546A34013433360C04318
:100C2000122F15D80122BA4036490A4210D0099C29
:100C3000A26802400899CB68AB401343A360FA0650
:100C4000D20F0A998A40636803998B431343636008
:100C5000099BDA68024008998868A8401043D86068
:100C6000F800079F069CA2D5254A10680123184367
:100C70001060106818400B900C263E400F22B240C6
:100C80000A9F019887430B981F4C385990433F198E
:100C90000922D206099C944209D01C4A944207D0EA
:100CA0001B4A9442009B059C03D1022301E00023D0
:100CB000059CB34003433B60104E33684868C20351
:100CC00001D5234300E0A343079F33607368820389
:100CD00001D5234300E0A3437360B368C20201D58A
:100CE000234300E0A343B360F268800200D55BE7D2
:100CF000A2435AE70CB0F0BD000C004800040140CC
:100D000018100240060006000800014000040048D8
:100D100000080048014800687047C046580100209C
:100D2000B0B502464120135C0220202B19D1134696
:100D300040331C78012C14D02420587010680268AD
:100D40000124A243026022030568954305600268FE
:100D50000A430260016821430160002018702021CD
:100D60005970B0BDB0B502464120135C0220202B63
:100D700019D1134640331C78012C14D0242058700C
:100D8000106802680124A24302600F221202056863
:100D90009543090229430160016821430160002055
:100DA000187020215970B0BD70477047F0B581B000
:100DB00001688C690A68802313400122E50506D585
:100DC000002B04D01502466C16434664CD616505C0
:100DD00007D5002B05D09502466C0827374347649A
:100DE000CD61A40507D5002B05D05202436C022427
:100DF0001C434464CA61416C0B22114201D000F0D3
:100E0000CDFE01B0F0BD80B502689169436B1268F8
:100E1000002B00D0984780BD70470000F0B581B02E
:100E2000002820D00446054640356878002804D1C3
:100E300000202870204600F04DFA242068702068B9
:100E4000026801218A4302600F22120663689343FD
:100E500003618368184A13408360E368012B05D05F
:100E60002126B60203E0012001B0F0BDCE03A76841
:100E700037438760022B01D1CB02436043680F4E9A
:100E80001E434660C3681340C3602269636913430D
:100E9000A26912021A43C260E269236A1343036023
:100EA00002680A43026000206064202169702063A8
:100EB000A87001B0F0BDC046FF7FFFFF00800002B8
:100EC00070470000F0B587B004464120205C022541
:100ED000202818D11646224640321078012812D018
:100EE0001F460125157004920691FFF713FF059028
:100EF0000090E903192320462A4601F0D3F8069909
:100F0000049A002802D0284607B0F0BD2120507076
:100F100010209070002060646785666201906063B5
:100F200001252E066B06608D000A31480396029358
:100F300005D0FF22228500902046334604E0628DD2
:100F400022850090D2B2204601F096F8059F0C9EB3
:100F500009E0608D20850097C2B220460699029B69
:100F600001F08AF8059F608D00282BD0204631467D
:100F70003A4601F0F6F80028C5D12068616A0A787F
:100F80008262608D401E6085481C6062208D411E1B
:100F90002185608D0904E6D10028E4D000978021E6
:100FA000002720463A46334601F07CF80028AAD1B3
:100FB000608D000ACDD0FF22228500972046069939
:100FC000039BCDE7204631463A4601F0A2F80028BF
:100FD000049998D120680C462021C1614268BC4B1D
:100FE000134043606170019D2570A5708BE7C0467A
:100FF00000200080F0B589B005464120285C02241D
:1010000020283DD10E9F002F37D00F98002834D0D4
:10101000164608902A4640321078012830D00493B2
:101020000791012414700592FFF774FE069000905A
:10103000E10319232846224601F034F800281FD185
:10104000109A22200599487040208870002068641A
:101050006F62174603906863089868850092069847
:101060000190284607993246049B00F00DFF0028A6
:1010700009D005980399017002E0012460026864B8
:10108000204609B0F0BD0897012426066306688D46
:10109000000A34480496039306D0FF222A85009064
:1010A00028460799334605E0698D29850090CAB224
:1010B0002846079900F0E0FF069E089B0DE0688D2A
:1010C00028850096C2B228460799039B00F0D4FFFA
:1010D000069E089B688D00282ED0009604210027CC
:1010E00028463A4600F0DEFF0028C9D1686A296820
:1010F000496A0170688D401E6885686A401C686294
:10110000288D411E2985688D0904089BE2D100289D
:10111000E0D00096802100262846324600F0C2FF2B
:101120000028ADD1688D000AC9D0FF222A8500961B
:1011300028460799049BC9E728461946324600F01D
:10114000E8FF002805999BD128680C462021C16141
:1011500042685F4B1340436061702770A7703C4644
:101160008EE7C04600240080F0B589B005464120D6
:10117000285C022420283CD10E9F002F36D00F98E7
:10118000002833D0164608902A46403210780128AD
:101190002FD004930791012414700692FFF7BAFD33
:1011A00005900090E10319232846224600F07AFFBB
:1011B00000281ED1109A212006994870402088707E
:1011C000002068646F620746686308986885089223
:1011D000009205980190284607993246049B00F03A
:1011E00087FE002808D00698077002E001246002FC
:1011F0006864204609B0F0BD0297059F01242606C9
:101200006306688D000A0496039307D0FF222A859F
:101210000020009028460799334606E0688D28850F
:1012200002990091C2B22846079900F025FF3E4678
:10123000089B0DE0688D28850096C2B22846079964
:10124000039B00F019FF3E46089B688D00282BD0B9
:1012500028461946324600F084FF0028C9D1286884
:10126000696A0A788262688D401E6885481C6862D7
:10127000288D411E2985688D0904089BE5D1002829
:10128000E3D00096802100262846324600F00AFF6F
:101290000028AED1688D000ACCD0FF222A850096A6
:1012A00028460799049BCCE728461946324600F0A9
:1012B00030FF0028069F9CD128682021C161426828
:1012C000034B134043607970029C3C70BC7090E704
:1012D00000E800FE70B586B00024059404940394E1
:1012E0000294019400681849884201D006B070BD8C
:1012F00001267004154D29680143296029680140C1
:101300000091042005900394122002900320049081
:101310004002019000980920C00601A9FFF72EFCA9
:101320007005A9680143A960A9680140009100986F
:10133000172528462146224600F060F8284600F08E
:1013400059F806B070BDC046005400401410024069
:10135000704770471A48007802490A6810180860F8
:101360007047C0465801002080B5A6480168102289
:101370000A430260032000F005F800F025F8002081
:1013800080BDC046B0B504467D20C0000C49097838
:1013900002F0BCFA01469E48006802F0B7FA00F07D
:1013A00047FB0125032C09D8002807D10025E84375
:1013B00021462A4600F022F8024804602846B0BDC3
:1013C0000C0000201000002082B0094801680122B2
:1013D00011430160016811400191019911074268B0
:1013E0000A434260406808400090009802B070478D
:1013F0001810024080B501F097FA80BD80B501F069
:10140000A9FA80BDF0B585B004468078C007394B95
:101410004DD00120039001071A1F10680840029068
:1014200006D11068084310601068084004900498C2
:1014300000920191304E3068C00511D40398070224
:10144000306838433060FFF765FC05463068384245
:1014500006D1FFF75FFC401B6428F7D9032538E06D
:1014600003252802234B1968014012D0626802400C
:1014700091420ED00398000419681A6802431A605A
:101480001A6882431A6008461C4A10401860C80750
:1014900022D118681949084061680143196002980F
:1014A000002804D1009A10680199884310602068D0
:1014B000C10705D0196903229143A2680A431A6142
:1014C0000025800605D5186910218843E16801438D
:1014D0001961284605B0F0BDFFF71CFC06464A4FCF
:1014E000044B18688007D4D4FFF714FC801BB84263
:1014F000F6D9EEE72010024000700040FFFCFFFF2D
:10150000F0B581B000284CD004463E4A1368012053
:1015100003408B4208D213680126B3430B43136088
:10152000126832408A426AD1009121688A070ED53A
:101530004A0705D507221202434D2B6813432B603F
:10154000414D2A68F0239A43A36813432B60C907CF
:1015500029D12C49086801263040009A904205D9CB
:101560000868B04308600868C00748D12078400781
:1015700007D507200002344A11688143E068084318
:10158000106000F047F8304909680906090F1F4A42
:10159000515CC8401E4908600320FFF7F3FE002697
:1015A0002DE001262BE06168274A121F022906D090
:1015B000012909D112689203064620D508E0126875
:1015C000920106461BD503E012689207064616D51F
:1015D0001D4A10680326B04308431060FFF79AFBCA
:1015E0000746094D184800680C21014060688000DA
:1015F0008142AED0FFF78EFBC01BA842F2D9304625
:1016000001B0F0BD0020024088130000613B0008DB
:101610000000002010B50C490A680C2313400B4849
:10162000082B10D193021B0F09A4E45C896AD20332
:1016300001D40F4805E00F22114009A2515C02F0CD
:1016400065F94443204610BD0410024000127A00A0
:1016500002030405060708090A0B0C0D0E0F1010F3
:101660000102030405060708090A0B0C0D0E0F10F2
:1016700000093D00F0B587B004460120002C00D1E0
:10168000CDE104902078C007E64E05941CD0716827
:101690000C200140042911D071680140082902D1B1
:1016A0007068C0030AD46068002803903ED0052803
:1016B00000D121E1012839D1012022E130688003E5
:1016C00002D5606800282ED0207880074ED570683B
:1016D0000007800F07D070680C21014008290ED147
:1016E0007068C0030BD430688007059A02D5D068B3
:1016F000012818D13068F8218843116933E0306837
:10170000059CE16800291AD0012108433060FFF7E9
:1017100001FB05463068800721D4FFF7FBFA401B28
:101720000228F7D902E1049807B0F0BD01200104B6
:1017300032688A433260810430688843E4E00121E2
:1017400088433060FFF7E6FA0546306880070DD51C
:10175000FFF7E0FA411B03200229F6D95FE1306868
:10176000F82188432169C90001433160059C207834
:10177000000722D42078400732D42078C00600D455
:10178000EBE0059A5069411D6DD0012874D1706B52
:10179000042101437163706B012101437163FFF701
:1017A000B9FA0546706B800700D5CEE0FFF7B2FAB4
:1017B000411B03200229F5D931E1706AE169002952
:1017C00042D0012108437062FFF7A4FA0546706A0F
:1017D0008007CFD4FFF79EFA401B0228F7D9A5E077
:1017E000012003900107F0690840029006D1F069DA
:1017F0000843F061F06908400690069801918A4F0D
:101800003868C00510D40398040238682043386053
:10181000FFF780FA05463868204205D1FFF77AFACB
:10182000401B6428F7D981E005988468002C03D018
:10183000052C36D0012C38D0306A039988433062A9
:10184000306A0421884333E0012188437062FFF746
:1018500061FA0546706A80078CD5FFF75BFA401B7A
:101860000228F7D962E0706B042188437063706BC3
:10187000F821884391696DE0706B04210143716325
:10188000706B012188437063FFF744FA0546706B63
:10189000800762D5FFF73EFA411B03200229F6D9E3
:1018A000BDE0306A042101433162306A0399084384
:1018B00030625E4FFFF72EFA0546002C0FD0306ADB
:1018C00080070FD4FFF726FA401BB842F7D92DE066
:1018D000FFF720FA411B0320B94200D99FE0306A8C
:1018E0008007F5D402980028059C00D045E7F069F0
:1018F00001998843F06140E70120810432680A437E
:101900003260010430680843306001204704FFF76B
:1019100001FA0546039800280BD03068384200D001
:10192000D2E6FFF7F7F9401B6428F6D9032007B089
:10193000F0BD059C3068384200D1C5E6FFF7EAF9F2
:10194000411B03206429F5D969E0706BF8218843B5
:1019500005998969C900014371630598046A002CDF
:101960001AD070680C210140082918D1012C049864
:1019700055D00120030471680B40F26A059D6C6A22
:10198000A3424CD10F231A40EC6AA24247D19A04D9
:101990001140AA6A914242D1002007B0F0BD012057
:1019A000020631680492914331604706FFF7B2F9AD
:1019B0000546022C0AD1049C3068384210D0FFF74B
:1019C000A9F9411B03200229F6D928E030683842E2
:1019D000E2D0FFF79FF9411B03200229F6D91EE050
:1019E000F06A0F218843059AD16A0143F1623D20D4
:1019F000000471688143906A0843516A0143716031
:101A0000306820433060FFF785F90446306838427B
:101A1000C2D1FFF77FF9011B03200229F6D907B0D5
:101A2000F0BDC04600100240007000408813000066
:101A300080B500F0FFFE80BDFEE7000080B50748DE
:101A4000006880694005400F03D00448FFF7AEF9F5
:101A500080BD0248FFF7D7F980BDC046EC000020EA
:101A600080B5406A816B00224A63C16B4A634121A1
:101A7000415C602906D10146413120220A70FFF7FE
:101A800093F980BDFFF7C8F980BD10B5CA0703D12F
:101A900000228B0709D413E04122825C28231340E3
:101AA000282B0AD0F2228B070AD54123C35C2824B5
:101AB0001C40282C08D0F42307E042228B07F4D4E2
:101AC0001346490706D503E044231343490701D5CC
:101AD000B8210B43006801689943016010BD00689C
:101AE0008169890701D5002181628169C90703D114
:101AF000816901220A43826170470000F0B581B01C
:101B000004464120205C28210140206825464035BC
:101B100028291CD1816983698268C6680096FE26DF
:101B20001F0CC903CB0FE168022916D1D1097940F6
:101B30004907890F20D0009F3740042120461E46C8
:101B4000FFF7A3FF00202870204631460FE0002158
:101B500029700821C16101B0F0BD04212046009325
:101B6000FFF793FF002028703740204600993A463F
:101B7000FFF71BF901B0F0BDA16C491CA164A16C79
:101B80000229E8D104490A400021A16429700821F2
:101B9000C16120461946EBE7FF03000070B504461B
:101BA0004120205C42220026A654844AE2626685D7
:101BB000626C0A436264283825464035022806D8FC
:101BC00003212046FFF761FF2648282109E007216D
:101BD0002046FFF75AFF68786028304602D020215F
:101BE00030466970266360632068026801685204A9
:101BF0000CD409041BD4687860282CD100202870EC
:101C0000202068702046FFF7CFF870BD01229203B4
:101C100091430160A06B002822D000212970124955
:101C20004163FEF775FF00281AD0A06B10E0012178
:101C3000C90302688A430260E06B002810D00021CB
:101C4000297009494163FEF763FF002808D0E06B63
:101C5000416B884770BD002028702046FFF7DCF8F4
:101C600070BDC046611F0008611A000870B50446C7
:101C70005248E06200252563412020222254422060
:101C80002554656326464036480712D5606A2168A8
:101C9000496A0170606A401C6062208D002808D08B
:101CA000618D491E6185401E2085606C04210143C1
:101CB000616407212046FFF7E8FE35702068102197
:101CC000C1612046FFF7FCF870BDC046F0B581B099
:101CD0000D4604460068076820210091C161072174
:101CE0002046FFF7D2FE0120C60320684168314339
:101CF00041604168634A0A4042602046FFF7EFFEB8
:101D0000780405D4374209D0E06B002803D105E000
:101D1000A06B002802D0006840686085680710D575
:101D2000606A2168496A0170606A401C6062042030
:101D30008543208D002804D0401E2085608D401EE4
:101D4000608527464037608D002803D0606C0421F1
:101D50000143616400262663BE706663606C0028E0
:101D60000CD0616C2046FFF719FF7878282823D122
:101D700020462946FFF77AFF01B0F0BDE06ABD4D6D
:101D8000A8420AD13E70787800997970222810D143
:101D90002046FFF7DDFA01B0F0BD204600F010F854
:101DA000E5623E70009878702046FFF789F801B030
:101DB000F0BD2046FFF7CDFA01B0F0BD0000FFFFF7
:101DC00070B504464220002525544120205C26465B
:101DD000403629280CD12820707021202063012151
:101DE0002046FFF752FE35702046FFF7B2FA70BD6D
:101DF00070782A280BD128207070222020630221BD
:101E00002046FFF742FE35702046FFF7A1FA70BD6D
:101E1000F0B581B0044600688069C00602D4002095
:101E200001B0F0BD0E46274640372068816989061B
:101E300010D4154603E02068816989060AD4701C15
:101E4000F9D0FEF767FF2021002E10D0401BB042D2
:101E5000F1D90CE01021C1612021C1612046FFF7BA
:101E60003EFE20684168074A0A4042600421606CD7
:101E7000084360642020787000203870B87001201A
:101E800001B0F0BD00E800FEF0B583B01D4602923F
:101E9000044632480090DAB20023204600F0ECF805
:101EA000089E099F204631463A4600F05AF900281C
:101EB00002D0012003B0F0BD012D0AD020680299A4
:101EC000090A8162204631463A4600F04AF9002864
:101ED000EFD120680299C9B28162009740210022A7
:101EE0002046334600F0DEF8411E884103B0F0BDC5
:101EF000F0B583B01D460292044618480090DAB24D
:101F000001200306204600F0B7F8089E099F2046EE
:101F100031463A4600F025F9002802D0012003B0EE
:101F2000F0BD012D0AD020680299090A816220467D
:101F300031463A4600F015F90028EFD120680299A1
:101F4000C9B281620097802100222046334600F00A
:101F5000A9F8411E884103B0F0BDC04600200080B2
:101F6000F0B583B004464020205CE36A012802D12A
:101F7000022003B0F0BD16460D4620464030012732
:101F8000029007700E40B00605D520462946019301
:101F9000FFF79CFE019BF00616D4700727D430078C
:101FA00049D4B007029E5AD5608D00285BD02068C6
:101FB000616A0A788262481C6062208D401E20851A
:101FC000608D401E60854AE0608D002827D0206823
:101FD0001021C161606C0421014361642448034203
:101FE000029E3CD1616C2046FFF7D8FD37E0608D42
:101FF0000028029E0CD0606A2168496A0170606AFC
:10200000401C6062208D401E2085608D401E6085D2
:10201000608D18498B4222D000281DD01FE0029EFF
:10202000707879068B420BD1282809D120462946A1
:10203000FFF71CFE13E02046FFF760FD029E0EE056
:10204000707821681022CA610A498B4207D029287A
:1020500005D12046FFF743FD2046FFF7B1FE0020E3
:10206000307003B0F0BD02480342F8D1F4E7C04637
:10207000FFFFFFFE0000FFFF70B5049C650D0068C8
:102080004668AE43054D3540054E0E401E431104D3
:10209000314321432943416070BDC046009C00FC90
:1020A000FF030000F0B583B00F4604460068806966
:1020B0000840401A414241410020914227D11D462B
:1020C000164601902046403000900898029007E0A4
:1020D000206880693840C01B41424141B14215D15E
:1020E000681CF5D0FEF716FE002D03D00299401AA9
:1020F000A842EDD9606C202108436064009A5170B9
:10210000002010709070012003B0F0BD019803B062
:10211000F0BDF0B581B016460F4604464030009041
:1021200020688069800618D4204639463246FFF779
:102130006FFE0125002811D1FEF7ECFD002F02D023
:10214000801BB842ECD9606C202108436064009A7F
:10215000517000201070907000E00025284601B0FA
:10216000F0BDF0B583B004460068806900278007A1
:1021700026D415460E46029720464030019003E0D3
:102180002068806980071AD4204631462A46FFF726
:102190003FFE0127002813D1701CF1D0FEF7BAFDD5
:1021A000002E02D0401BB042EAD9606C20210843C7
:1021B0006064019A517000201070907000E0029FDE
:1021C000384603B0F0BD000081B00C490A680243F4
:1021D0000A60096801400091009801B07047C0464C
:1021E00081B00120400405490A6802430A60096879
:1021F00001400091009801B07047C04614100240A1
:1022000081B005490A6802430A60096801400091EB
:10221000009801B07047C0461C10024081B00120F8
:10222000400405490A6802430A60096801400091B8
:10223000009801B07047C04618100240F0B581B058
:102240000D460446096800292DD0002709E06A6977
:102250002046314600F04CF87F1C29680846F840BB
:1022600021D00126BE400E40F6D06A682046314695
:1022700000F052F86868401E012804D8AA68204679
:10228000314600F061F82A692046314600F053F8E3
:1022900068680228E0D1FF2ED9D86A692046314605
:1022A00000F01CF8D8E76868401E012803D8EA68E7
:1022B000204600F03AF8002001B0F0BD0069084067
:1022C000411A4842484170478162704701480221E3
:1022D00001607047280400488162704749434943C0
:1022E0004A430F234B43016A9943114301627047EC
:1022F000090A494349434A430F234B43416A9943DF
:10230000114341627047816170470000014810210C
:10231000016070471800004849434A4303234B4378
:10232000016899431143016070474A4343688B43F6
:1023300013434360704749434A4303234B43C168F7
:1023400099431143C160704749434A4303234B43B8
:1023500081689943114381607047000042490A68CF
:1023600002430A607047C0460121C94301617047BA
:102370000168802291430160704701680122914306
:10238000016070477A48016880229143016070477C
:10239000016801220A430260704700000248016898
:1023A00001220A43026070470C4401404169012246
:1023B0000A43426170470000014800687047C04608
:1023C0002404004010B5012805D0042805D01028A9
:1023D00005D1022004E0002002E0012000E00620F8
:1023E0003049095C03228A402F4B185C2F4BC4589C
:1023F000944301228A402243C25010BDB0B5012847
:1024000005D0042805D0102805D1022004E00020C2
:1024100002E0012000E00620224A125CF0239340F3
:10242000214C205C214C05599D43090C91402943C6
:102430000151B0BD012805D0042805D0102805D1D0
:10244000022004E0002002E0012000E0062004A1B8
:10245000085C0A218140044802688A430260704790
:1024600000020406080A0C002004004010B50128F0
:1024700005D0042805D0102805D1022004E0002052
:1024800002E0012000E006200649095C0C228A4097
:10249000054B185C054BC458944304228A402243E0
:1024A000C25010BDF83D0008F13D0008180400407E
:1024B00070B50D46044601681F4EB04202D0B948BF
:1024C000844204D1702081436868084300E00846D4
:1024D0001A498C4208DDB4420CD019498C4209D00B
:1024E00018498C4206D024E0AE498C4202D01649ED
:1024F0008C421ED1032109028843E968014321600F
:10250000A968204600F028F82988204600F032F813
:10251000B44205D00A48844202D00A48844203D11A
:10252000297C204600F028F82046FFF73FFF0020D6
:1025300070BD0146E3E7C046002C0140FF2B01407F
:102540000048014000440140002000400169012092
:1025500008407047C1627047C1627047416270476E
:102560000348016801220A4306218A43026070473A
:1025700008040040816270470163704702480168A7
:10258000702291430160704704040040F0B58BB0A5
:1025900000250A9509950895079506950595012446
:1025A000A005FFF711FE6004FFF70EFEA004FFF781
:1025B0000BFE0920C6060496102101913046FFF754
:1025C0008BFE202102913046FFF786FE2B48022623
:1025D0003146FFF781FE0996069505940094284838
:1025E00005AF3946FFF72AFE099606950596244859
:1025F0003946FFF723FE099606950594049C20466C
:102600003946FFF71BFE0996069505962046394682
:10261000FFF714FE099606950420059020463946DA
:10262000FFF70CFE099606950820059020463946CE
:10263000FFF704FE09960895032003900790009C7D
:1026400006940198059004983946FFF7F7FD09961E
:1026500008950398079006940298059004983946C7
:10266000FFF7ECFD099608950398079006940596E8
:1026700002483946FFF7E2FD0BB0F0BD0004004808
:102680000014004810B5124800210122114B124CD1
:10269000046043608160C260016141618161C16128
:1026A0000162FEF7BBFB002801D0FEF7EDF90848F8
:1026B0000021FEF735FB002801D0FEF7E5F90448BC
:1026C0000021FEF74FFB002801D0FEF7DDF910BD19
:1026D000EC0000200B02000000540040F0B58DB06B
:1026E00000260C960B960A9609960896079606966B
:1026F000059604960396029602252846FFF780FD6C
:10270000FFF76EFD012407940695059603200190BE
:1027100004900395402002900920C006009002AF6B
:102720003946FFF78BFD07940695059601980490AE
:1027300003958020029000983946FFF77FFDFFF750
:102740000FFF2046FFF73EFE2046FFF78FFE2105D4
:102750002046FFF753FE2046FFF76CFE1025284663
:10276000FFF730FE2846FFF781FE61052846FFF798
:1027700045FE2846FFF75EFE08A90E800B96084826
:102780000A900996074C2046FFF792FE2046FFF775
:10279000EFFDFFF7F3FEFFF7F5FD0DB0F0BDC0460E
:1027A000FFFF00000004004000218180816001499A
:1027B000016070470202000070B50446E120050187
:1027C000A6683046294601F0A1F860804543751B94
:1027D0003C262846314601F099F820714643A81B53
:1027E000607170BDFEE770470178417070477047B7
:1027F00080B501210904016000F001F880BD0321CA
:102800004156022282563C2353435918E1221201B9
:1028100003885343591881607047000080B504490C
:10282000086015490968002900D0884780BDC04666
:1028300094000020B0B5401E010E01D00120B0BDB3
:10284000054D68600024E043032100F083F8AC608C
:10285000072028602046B0BD10E000E080B5FEF7FC
:1028600079FD02480068FFF7D9FF80BD58010020BC
:10287000014908607047C0469000002070B594B0D0
:1028800008AC30212046FDF71AFE00250795069575
:102890000595049513950520C00412901195022604
:1028A000109610200C9001200B900896039502952D
:1028B000019500952046FEF7DDFE002814D107950E
:1028C000069505960720049004A80121FEF718FE3E
:1028D000002809D10395202000906846FEF792FD5C
:1028E000002801D114B070BDFEF7CEF8704700008B
:1028F00010B5084C2046FFF729FE012808D12046D4
:10290000FFF732FD2046FFF738FD03480121017033
:1029100010BDC04600440140E800002001204005F1
:10292000064908607047C046002805D41F210840AA
:1029300001218140014801607047C04600E100E08C
:10294000FF20000202490A6882430A607047C046BD
:1029500014E400E0002805D40322034693430C4A04
:102960009A1806E00F220240083A03239A43074BC5
:10297000D2188007C00E8901C9B28140FF2383406D
:1029800010689843084310607047C0461CED00E093
:1029900000E400E00A7812064B781B049A188B7842
:1029A0001B02D218CB78D21882600A7912064B79B2
:1029B0001B049A188B791B02D218C9795118C1606F
:1029C0007047C27A0A7042894A708268120A8A7015
:1029D0008268CA70C27B0A71C2894A71C268120ACF
:1029E0008A71C068C8717047F0B583B0054606208B
:1029F000285607216956AB88009001919B4C1426FC
:102A00002D4A20463146FDF7E5FB9E4801789E4F52
:102A100038780123224600F041FE02202856032187
:102A200069562B880090019120463146224AFDF7D5
:102A3000D1FB387893490978491CC9B20023224652
:102A400000F02CFE03B0F0BDF0B583B0054603786E
:102A500040780090124C142612A220463146FDF711
:102A6000B9FB88480178884F38780123224600F066
:102A700015FE04202856052169566B8800900191A7
:102A80000D4A20463146FDF7A5FB38787D49097887
:102A9000491CC9B20023224600F000FE03B0F0BD7D
:102AA000790000207365743D2530336440207265E1
:102AB0006D3D253033644000073E000810B50146E7
:102AC0000B4C2046FFF746FD2046FFF74DFC00214A
:102AD0002046FFF743FD2046FFF75AFC2046FFF74C
:102AE00035FD0028FAD02046FFF747FC10BDC04650
:102AF00000200040F0B583B00D460290FFF75CFC6B
:102B0000401E80B25549081AC10F40184710EF60A7
:102B1000AC68BC4273D0AF603E1B70D030461330FF
:102B200026286CD80298FFF76AFE012E50DB287C1D
:102B3000411C48B2012800DB01212974012854DB23
:102B4000012E029F12DB741C454D464EB868FDF7FE
:102B5000ADFE2968FDF7B6FDFDF764FE3060316813
:102B6000012000F0DFFD641E012CEFDCB868F9687D
:102B700040183D49884201D945494018F860384617
:102B8000FDF786FF0620385607217956BB8800904E
:102B90000191364D14263FA228463146FDF71AFB17
:102BA000384C2178384F387801232A4600F076FDDA
:102BB0002C480368354A28463146FDF70BFB387828
:102BC0002178491CC9B200232A4600F067FD0CE0B9
:102BD000002E0AD5287C401E41B2002901DA0020CF
:102BE000C043287440B200280BD4524D02982946A5
:102BF000FFF7E7FE012008222946FDF733FF03B067
:102C0000F0BD002E029D11D5E41B154F154EA8688E
:102C1000FDF74CFE3968FDF755FDFDF703FE30600A
:102C20003168002000F07EFD641EF0D1A868E968DC
:102C3000814202D20C4A8918491C081AE8602846C9
:102C4000FDF726FF0620285607216956AB8800901D
:102C50000191064D142606A29EE7C046FF7F0000A4
:102C600008000020480100207FC6130079000020E2
:102C7000253033642A202530326427202530326401
:102C8000222062003A01002004000020FF3D0008DD
:102C90008039ECFF253033642A2025303264272028
:102CA000253032642220660010B5074C0F492046BB
:102CB000FFF754FC0120FFF751FB1020FFF74EFBFC
:102CC0002046FFF765FB10BD0004004010B5044628
:102CD000FFF772FB401E80B20449081AC10F40186A
:102CE000401020606060A06010BDC046FF7F000003
:102CF000B0B50446C068FDF7D9FD1F490968FDF766
:102D0000E1FCFDF78FFD1D49086009680025284694
:102D100000F008FDE5602046FDF7BAFEF94D2046BB
:102D20002946FFF74EFE012008222946FDF79AFEAC
:102D3000B0BDC046C000002070B54678002E1AD045
:102D40000C4605468068FDF7B1FD0B490968FDF7A3
:102D5000B9FCFDF767FD09490860701E68700968D5
:102D6000002000F0DFFCE068A968884201D2044A34
:102D70008018401AE06070BD080000204801002063
:102D800080C6130084B0FEF7EFFAFFF777FDFFF778
:102D9000FDFBFFF7A3FCFFF775FCFFF785FF00F0D5
:102DA0007DFD6420FDF7D8FE00F006FC00F0D0FBAE
:102DB0000120C74C0E2203902146FDF743FE2078E8
:102DC000FF2829D06078FF2826D0A078FF2823D0BC
:102DD000E078FF2820D02079FF281DD06079FF28D7
:102DE0001AD0A079FF2817D0E079FF2814D0B94C69
:102DF000B74D20462946FFF7CDFD2046FDF76CFE76
:102E00002046FDF745FEB44C2046294600F0E0FC84
:102E10002046FFF7D1FC09E0AE4C2046FFF7E8FC66
:102E20002046FDF70AFEAC48FFF7BEFCA94D284638
:102E3000FFF7DAFDFFF74AFAFFF768FAA74F38788D
:102E4000F821014039706420FDF786FEA44CA54EA0
:102E500000F02EFA2080002800D126E12188387861
:102E6000491EC2071DD106293ED8C04679440979BA
:102E700049008F4471033C714063750000F018FAFB
:102E800020800028FAD02088042800D116E10228EA
:102E900000D117E1012800D017E12846FFF728FFED
:102EA0005AE0062920D8C0467944097949008F4460
:102EB000030B5B646DE59900810700D5C6E041070F
:102EC00000D5F2E002215EE000F0F2F92080002857
:102ED000FAD02088042800D1D4E0012800D0DDE019
:102EE0002846FFF705FFD0E000202080DDE02846DF
:102EF000FDF7A3FD25E002202856032169562B8803
:102F0000009001911421784F38467FA2FDF762F9B5
:102F10007848007876490978491CC9B201233A46B5
:102F200000F0BCFBB068306000F0C2F920800528DA
:102F300065D02846314600F043FAF5E72846FFF70A
:102F400057FC28466F4F3946FFF73BFD012008220A
:102F50003946624FFDF786FD2846FFF745FDA4E0A0
:102F600003990843387089E05B4D2846FFF71CFC45
:102F70002846584DFFF768FD97E041076BD481075D
:102F800000D592E00421084338708EE03046FFF708
:102F90009DFE1122544F38465449FDF731FA5448EA
:102FA00001785448007801233A4600F077FB4A4DF7
:102FB0002B781421384650A2FDF70CF94D480078C3
:102FC0004B490978491CC9B200233A4600F066FB18
:102FD00000F06EF9208005281FD02846314600F009
:102FE00065FAF5E7FE21084038702846FDF750FDE8
:102FF0002846FFF7F9FC3046FFF768FE55E0284603
:10300000404F3946FFF7DDFC012008223946FDF725
:1030100029FD2846FFF7E8FC14E02846FDF74EFDA1
:103020002C48384F3946FFF7CCFC2846394600F08B
:10303000DFFB01200E223946FDF714FD2846254D01
:10304000FFF702FD3068B060244F2EE02248294689
:10305000FFF772FE03E02048294600F0B7F8284643
:10306000284F3946FFF7ADFC1B48394600F070F891
:10307000012009223946194FFDF7F4FC1648FFF7E5
:10308000E3FC12E0284600F07BF8134D2846FFF7DA
:10309000ABFB3878F9210140397002E00020208034
:1030A0000D4D2846FFF7D0FC0A4D3878C00700D0F8
:1030B000CEE628463146FFF71DFDC9E6284600F05A
:1030C0005FF849E700F02CF846E70020208043E74E
:1030D000AC0000209C0000203C0100204F0100209B
:1030E00038010020D4000020790000201C3E000898
:1030F0003A0100200400002025303364402065643C
:1031000069740000C0000020253033642A20253077
:1031100032642720253032642220656469740000FF
:1031200070B50120084C214600F0FCFA0026074D3E
:103130000120214600F0F6FA2846FFF7BFFC701C7C
:10314000272E0646F4D370BD204E0000DC0500009B
:10315000407808727047000010B54100074C2046C7
:10316000FFF7F8F900212046FFF7F8F92046FFF7AE
:10317000FBF82046FFF70CF910BDC04600440140A3
:1031800070B50446C0682449081AFDF78FFB204932
:103190000968FDF797FAFDF745FB1E4908600968C5
:1031A0000125284600F0BEFA0020E0602046FDF729
:1031B0006FFC054E20463146FFF703FC08222846E7
:1031C0003146FDF74FFC70BDC000002070B5467859
:1031D000002E1CD00C4605468068FDF767FB0C49A5
:1031E0000968FDF76FFAFDF71DFB0A490860701EBC
:1031F00068700968012000F095FAE068A96808186D
:10320000E0600549884202D304494018E06070BD7F
:10321000080000204801002080C613008039ECFF20
:10322000F0B583B0002819D00921C9060191002406
:103230000290019D102628463146FFF745F80527E4
:103240003846FFF73BFC28463146FFF75CF8384626
:10325000FFF734FC0298641C8442EBD303B0F0BD4A
:10326000B0B50920C50604212846FFF727F8012438
:10327000002801D02046B0BD02212846FFF71EF8E5
:103280000028F7D101212846FFF718F80028F1D1CE
:1032900008212846FFF712F80028EBD14448012105
:1032A000FFF70CF80446401E84412046B0BDC046DE
:1032B00070B53E4E3078002813D10920C40604258D
:1032C00020462946FEF7FAFF012806D002252046AF
:1032D0002946FEF7F3FF012842D10120307035481E
:1032E00005803078012804D13C20FFF735FF02200B
:1032F0003070314D2878317802290ED101280CD157
:1033000000242C70FFF7ACFF00281AD06420FFF7D0
:1033100023FF2A4804700320307028783178002475
:10332000032935D1012833D100242C70FFF798FFF1
:10333000002808D021480178042909D8491C0170C7
:1033400023E0347001E0002030701A48008870BD1E
:1033500018480188052916D0022916D1032113E047
:10336000012520462946FEF7A9FF012801D1357025
:10337000B5E708212046FEF7A1FF01280AD13570E4
:103380000C48052110E0062101806420FFF7E4FECF
:10339000204670BD064801242146FEF78FFF012814
:1033A0009FD134700348072101809AE74E01002025
:1033B000001400484C010020E80000209800002084
:1033C000F0B583B00D460446FEF7F6FF401E80B20E
:1033D0002949081AC10F40184010686029688142C5
:1033E00048D02860451A2ED02846133026282AD8DF
:1033F000224F142122A238462B46FCF7EBFE23482D
:1034000001782348007801263A46334600F046F911
:10341000A0784019A07040B200280BDD3C2812DBD8
:103420000020A0702188491C8AB2D2082C2A07D813
:10343000084605E02088002804D03B21A170401EEA
:10344000208000E0A67002202056032161562388C8
:1034500000900191094C14210EA22046FCF7BAFEFF
:103460000B48007809490978491CC9B20023224653
:1034700000F014F903B0F0BDFF7F000079000020D8
:1034800064656C74613D2564000000003A01002011
:1034900004000020253033642A20253032642720A0
:1034A000253032642220656469740000F0B581B073
:1034B0000D460446FEF780FF401E80B21C49081AE4
:1034C000C10F401840106860296881422ED02860E2
:1034D000401A0FD00146133126290BD8217808183D
:1034E0002070C0B2FF2803D0012803D8FE2000E0DE
:1034F000022020700F4D104911222846FCF780FF52
:103500000E4E31780E4F387801232A4600F0C6F867
:10351000237814210BA22846FCF75CFE387831781A
:10352000491CC9B200232A4600F0B8F801B0F0BD2A
:10353000FF7F0000790000201C3E00083A010020B7
:103540000400002025303364402065646974000065
:10355000F0B581B000242046214600F01BF80C4E47
:103560002546274603E0781CB74207460DD22020A7
:1035700000F074F86D1CA8B28128F4D3641CE1B289
:103580000025284600F006F8EDE701B0F0BDC04682
:10359000FF01000010B504463F4804705039C8B21E
:1035A00000F09EF80F20204000F09AF8200910301B
:1035B00000F096F810BDC04610B5AE2000F090F8AF
:1035C000202000F08DF80024204600F089F8B0207B
:1035D00000F086F8C82000F083F8204600F080F85C
:1035E000102000F07DF8402000F07AF8812000F0F3
:1035F00077F8FF2000F074F8A12000F071F8A62001
:1036000000F06EF8A82000F06BF81F2000F068F8BA
:10361000A42000F065F8D32000F062F8204600F006
:103620005FF8D52000F05CF8F02000F059F8D920C0
:1036300000F056F8222000F053F8DA2000F050F89D
:10364000122000F04DF8DB2000F04AF8022000F0D4
:1036500047F8AF2000F044F810BD0000B0B50524D5
:1036600060430B4909180B4D28462246FCF7C8FE5B
:10367000002068710621284600F044F806480178C9
:103680000831CAB2802A00D80C460470B0BDC046CA
:10369000713B0008520100207800002070B51446EC
:1036A0000D460646002B01D0FFF752FF3046294653
:1036B000FFF770FF0320FDF74FFA204600F001F8F6
:1036C00070BD10B501460078002807D04C1CFFF7EC
:1036D000C5FF611C207800280C46F8D110BD000001
:1036E00080B582B0064A507000201070FF20009014
:1036F0000B4878210223FDF7E5FB02B080BDC046F0
:103700005001002080B584B0FF2200AB07C30448FD
:10371000782140220123FDF727FD04B080BDC0467B
:10372000EC000020F0B581B00D4601460920C0062E
:10373000002903D02021FEF7E6FD02E02021FEF75C
:10374000C3FD0620FFF7BAF91E4C00952C406421FA
:10375000204600F0DBF81C4D642C17D306460027EA
:10376000022428462146FEF7CEFD0520FFF7A6F9E4
:103770006420FFF755FD28462146FEF7A5FD1348B6
:10378000FFF79CF97F1CB8B28642E9D86421009803
:10379000FCF798FE002912D00C4602262846314636
:1037A000FEF7B1FD0520FFF789F9E0B2FFF738FD1C
:1037B00028463146FEF788FD0320FFF77FF901B068
:1037C000F0BDC046FCFF000000040048DC0500001E
:1037D0000A7A42704A7A02708A7A1206CB7A1B04FD
:1037E0009A180B7B1B02D218497B511881607047D5
:1037F00042780A7202784A72C27A8A724289CA721E
:103800008268120A0A7380684873704710B586B0E0
:10381000002405940494039402940194012000026E
:10382000FEF7EEFC01A92F2008800494FF200390EE
:103830000294044C2046FEF73BFE2046FEF798FD1E
:1038400006B010BD0020004010B586B000240594DD
:103850000494039402940194FEF7E0FC01A90C7413
:103860000B48088004940B48039002940A4C2046AD
:10387000FEF71EFE2046FEF77BFD2046FEF774FD98
:10388000FEF78CFDFFF75CF8FFF748F806B010BDB7
:10389000BF5D0000FFFF00000044014080B5054807
:1038A000FEF7E6FF044800F009F8FFF7AFFFFFF767
:1038B000CBFF80BDC9380008050B0008014908602E
:1038C0007047C0465C010020F0B581B00446002678
:1038D00001250D4F08E000210172C1682846884784
:1038E0006D1C1036602E0DD0B819017A0129F7D160
:1038F000B959A142F4D8417A0029ECD0416809199C
:10390000B951EAE701B0F0BD6001002043088B42E5
:103910001AD3002203098B4279D3030A8B425ED368
:10392000030B8B4242D3030C8B4227D30902FF22A5
:1039300012BA030C8B4202D31212090203D0030BFA
:103940008B4233D31AE0D3E0411A8041401C7047C8
:1039500003460B4371D443088B42F5D3002203097D
:103960008B4254D3030A8B4239D3030B8B421DD3B2
:10397000030C8B4202D394466EE0090AC30B8B42C0
:1039800001D3CB03C01A5241830B8B4201D38B036B
:10399000C01A5241430B8B4201D34B03C01A524110
:1039A000030B8B4201D30B03C01A5241C30A8B4253
:1039B00001D3CB02C01A5241830A8B4201D38B023E
:1039C000C01A5241430A8B4201D34B02C01A5241E2
:1039D000030A8B4201D30B02C01A5241CDD2C30954
:1039E0008B4201D3CB01C01A524183098B4201D3D0
:1039F0008B01C01A524143098B4201D34B01C01ABB
:103A0000524103098B4201D30B01C01A5241C30832
:103A10008B4201D3CB00C01A524183088B4201D3A1
:103A20008B00C01A524143088B4201D34B00C01A8D
:103A30005241411A524110007047CA0F00D049420A
:103A4000031000D34042534000229C4603098B429E
:103A50002DD3030A8B4212D38901FC2212BA030A26
:103A60008B420CD3890192118B4208D389019211A8
:103A70008B4204D3890137D0921100E08909C30930
:103A80008B4201D3CB01C01A524183098B4201D32F
:103A90008B01C01A524143098B4201D34B01C01A1A
:103AA000524103098B4201D30B01C01A5241C30892
:103AB0008B4201D3CB00C01A524183088B4201D301
:103AC0008B00C01A5241D9D243088B4201D34B001C
:103AD000C01A5241411A00D2014652411046634673
:103AE0005B1000D34042704763465B1000D34042F6
:103AF00001B50021004201D0C9430846C046C04676
:103B000002BD30380A2801D20120704700207047DA
:103B10000400000800000000000000020001000096
:103B2000108182838485868788898B8C8D8E8F9186
:103B30009293959697999A9C9D9FA0A2A3A5A7A8BA
:103B4000AAACAEB0B2B3B5B7B9BCBEC0C2C5C7C9E6
:103B5000CCCED1D4D7D9DCDFE2E6E9ECF0F3F7FA4A
:103B6000FE00000000000000000102030406070838
:103B700009000000000000005F00000007000700CF
:103B8000147F147F14242A7F2A12231308646236B8
:103B9000495522500005030000001C22410000414D
:103BA000221C0014083E081408083E080800503083
:103BB00000000808080808006060000020100804E1
:103BC00002000000000000005F0000000700070086
:103BD000147F147F14242A7F2A1223130864623668
:103BE000495522500005030000001C2241000041FD
:103BF000221C0014083E081408083E080800503033
:103C00000000080808080800606000002010080490
:103C100002000000000000005F0000000700070035
:103C2000147F147F14242A7F2A1223130864623617
:103C3000495522500005030000001C2241000041AC
:103C4000221C0014083E081408083E0808005030E2
:103C50000000080808080800606000002010080440
:103C6000023E5149453E00427F4000426151494673
:103C70002141454B311814127F1027454545393CE9
:103C80004A4949300171090503364949493606490F
:103C900049291E003636000000563600000814225E
:103CA0004100141414141400412214080201510993
:103CB00006324979413E7E1111117E7F49494936CC
:103CC0003E414141227F4141221C7F494949417F78
:103CD000090909013E4149497A7F0808087F0041E6
:103CE0007F41002040413F017F081422417F404036
:103CF00040407F020C027F7F0408107F3E4141411B
:103D00003E7F090909063E4151215E7F0919294676
:103D1000464949493101017F01013F4040403F1F71
:103D20002040201F3F4038403F63140814630708B9
:103D30007008076151494543007F41410002040872
:103D400010200041417F0004020102044040404035
:103D500040000102040020545454787F4844443801
:103D60003844444420384444487F38545454180854
:103D70007E0901020C5252523E7F0804047800442E
:103D80007D40002040443D007F1028440000417FDA
:103D900040007C041804787C0804047838444444C7
:103DA000387C14141408081414187C7C08040408C3
:103DB0000854545420043F4440203C4040207C1C84
:103DC0002040201C3C4030403C44281028440C50EB
:103DD00050503C4464544C44000836410000007F7D
:103DE00000000041360800100808100878464146D7
:103DF00078000000000404040000080000000873BC
:103E00007465703D256400253033642A20253032E6
:103E10006427202530326422000000007365745F3F
:103E20006E756D6265725F74656574680000000090
:103E3000503E00080000002018000000F4000008B8
:103E4000683E000818000020A807000010010008C4
:103E500000127A000500000000008042010000000E
:083E6000040000000000000056
:04000005080000B13E
:00000001FF
