:020000040800F2
:10000000480700209D01000891280008391D0008BC
:1000100000000000000000000000000000000000E0
:100020000000000000000000000000009B28000805
:10003000000000000000000093280008912900083B
:10004000AF01000800000000AF010008AF01000888
:10005000AF010008AF010008AF010008AF010008C0
:1000600000000000AF010008AF010008AF01000868
:10007000AF010008AF010008AF0100080000000058
:10008000AF0100080000000000000000AF01000800
:10009000000000002D2A0008AF0100083D1D0008E7
:1000A00000000000AF01000800000000AF010008E0
:1000B00000F002F800F046F80CA030C80838241808
:1000C0002D18671EA246AB4654465D46AC4201D190
:1000D00000F038F87E460F3EB6460FCC012633427C
:1000E00000D0FB1A3343A246AB461847643D0000DC
:1000F000843D0000103A02D378C878C1FAD852077C
:1001000001D330C830C101D504680C6070470000CD
:100110000023002400250026103A01D378C1FBD823
:10012000520700D330C100D50B60704710B5642969
:1001300002D100F093F810BD002010BD1FB51FBD07
:1001400010B510BD00F012FD1146FFF7F7FF02F0E9
:1001500095FE00F02AFD03B4FFF7F2FF03BC00F0A8
:100160007BFD000070B505460C46164602E00FCC3C
:100170000FC5103E102EFAD2082E02D303CC03C5B1
:10018000083E042E07D301CC01C5361F03E02178B9
:100190002970641C6D1C761EF9D270BD074880471B
:1001A00007480047FEE7FEE7FEE7FEE7FEE7FEE75B
:1001B00004480549054A064B70470000292A0008F3
:1001C000B100000848010020480700204803002033
:1001D000480300200FB41CB50C0007AA009001D002
:1001E0000019401E084B7B4469460190069800F0B8
:1001F00082FB002C03D06946002000F08FFB1CBC62
:1002000008BC04B0184700003D07000070B5044664
:1002100085690068C10601D5302600E02026C007A8
:1002200007D070BD62683046A1689047206A401CC4
:1002300020626D1EF6D570BD70B5044685690078E4
:10024000C00707D170BD6268A16820209047206A6E
:10025000401C20626D1EF6D570BD0000F7B500256C
:1002600075291068009914A611D0C046C046002810
:1002700002DA404211A608E0009909688A0701D510
:100280000FA602E0490704D50EA6012501E0C046ED
:10029000C046009F0024243704E000F04CFB3031BE
:1002A0003955641C0028F8D12B4632462146009867
:1002B00000F0C4FAFEBD0000000000002D000000A8
:1002C0002B00000020000000F3B50446002081B0A0
:1002D00020622046E168884700287DD0252802D08A
:1002E0006268A16883E0454F00257F442046E168AD
:1002F00088472028064608DB312E06D2B819203858
:100300000078002801D00543F0E7A80701D50420B4
:1003100085430020E0610746A0612A2E0AD03046BE
:1003200003F0C8FA002827D0B8000019303E00902A
:10033000866119E00298BA00121902C89161029010
:100340002046E1688847012F064617D1E06900285A
:100350001FDA202085431CE000980A218069484369
:1003600000998019303888612046E1688847064640
:1003700003F0A0FA0028EFD1012F0AD02E2E08D1C9
:100380002046E16888470646202005437F1C022F4F
:10039000C3DBA069002803DA4042A06101200543C5
:1003A000E80701D010208543002E24D03046413884
:1003B000192803D80120C0020543203620462560B5
:1003C0003146029A1546FFF7B1FE00280CD00128ED
:1003D00007D0ED1DE80800E00DE0C00008300290F5
:1003E00077E72D1D029574E762683046A168904753
:1003F000206A401C6CE7206AFEBD000062380000E5
:10040000F8B5042A2CD3830712D00B78491C03704B
:10041000401C521E83070BD00B78491C0370401CF4
:10042000521E830704D00B78491C0370401C521ED7
:100430008B079B0F05D0C91ADF002023DE1B08C9DC
:100440000AE0FFF78FFEF8BD1D4608C9FD401C46B7
:10045000B4402C4310C0121F042AF5D2F308C91A65
:10046000521EF0D40B78491C0370401C521EEAD473
:100470000B78491C0370401C012AE4D409780170F0
:10048000F8BD01E004C0091F0429FBD28B0701D588
:100490000280801CC90700D00270704700290BD071
:1004A000C30702D00270401C491E022904D38307EF
:1004B00002D50280801C891EE3E70022EEE70022BD
:1004C000DFE70000002203098B422CD3030A8B4292
:1004D00011D300239C464EE003460B433CD400223C
:1004E00043088B4231D303098B421CD3030A8B424E
:1004F00001D394463FE0C3098B4201D3CB01C01A1C
:10050000524183098B4201D38B01C01A52414309E6
:100510008B4201D34B01C01A524103098B4201D3D4
:100520000B01C01A5241C3088B4201D3CB00C01A41
:10053000524183088B4201D38B00C01A52414308B9
:100540008B4201D34B00C01A5241411A00D20146DE
:100550005241104670475DE0CA0F00D04942031077
:1005600000D3404253409C46002203098B422DD3C6
:10057000030A8B4212D38901FC2212BA030A8B426E
:100580000CD3890192118B4208D3890192118B42BD
:1005900004D389013AD0921100E08909C3098B4242
:1005A00001D3CB01C01A524183098B4201D38B0185
:1005B000C01A524143098B4201D34B01C01A524128
:1005C00003098B4201D30B01C01A5241C3088B426D
:1005D00001D3CB00C01A524183088B4201D38B0058
:1005E000C01A5241D9D243088B4201D34B00C01AE2
:1005F0005241411A00D201465241104663465B10F7
:1006000001D34042002B00D54942704763465B103E
:1006100000D3404201B50549002802DC491C0840CE
:1006200000E00846C046C04602BD00BFFFFFFF7F96
:100630007047704770470000F0B5FF252D04C609CC
:10064000C209FF2704462E400137CB093E434840EC
:100650002A402B400746002A6BD0002B69D0AA42C3
:1006600067D0AB4265D0002800DA32460125ED059F
:1006700029432C4309022002090AD21A4B0C7F2479
:10068000E31A434C000A7C44E35C7D2424041219E1
:1006900014145B00A218884201D3521C00E04000F1
:1006A00049420C465C4324115C43DB016415E318AA
:1006B000040A5C43C502200D0C4644436419250A14
:1006C0005D432303EC0C0D46654300030019EB1852
:1006D0004C42A34201D35B18401CD4052018002BC8
:1006E00007D05B00C91804D3401C002901D1400881
:1006F00040003F2189048A4209D3002A08DC110600
:10070000090F04D0032149074018C00FC007F0BDEE
:1007100001224100120689187F2252069142F6D228
:1007200005214907C84201D59010F0BDFF20C00542
:10073000F0BD002F00DA32461648AA4207D2AB427B
:1007400005D21902090E17D0F80FC007F0BDFF251A
:1007500063002D06AB42F9D84900A942F6D8AB4256
:1007600001D1A942F2D0A94201D1002101E06100EA
:100770004908D0050843F0BD1102090EFBD0FF2047
:100780000243D005F0BD0A460146104654E700007A
:10079000D73400000000C07F0102C21504D001233D
:1007A000DB071943002A0ADB9E239A1A02D4084663
:1007B000D0407047FF2241001206914201D900202B
:1007C0007047C017C04370471F22030C02D10F228D
:1007D00000041CD0030E01D10002083A030F01D11E
:1007E0000001121F830F01D18000921E002801DB3F
:1007F0004000521ED2055118021251181922904081
:1008000004D3491C002801D1490849000846704713
:10081000C10FC90700D04042012292071143D3E71C
:1008200001218907D0E710B500F066F9006810BD16
:1008300010B5044600F060F9046010BDFFB5044631
:100840000D4681B0243000902168880604D510221E
:10085000E0699143216000E00120A84201DD471BCF
:1008600000E000270498A1697A191018081AA061FD
:100870002078C00602D42046FFF7C8FC002608E016
:1008800003986268A168805D9047206A401C761CCE
:10089000206204988642F3DB2078C0060AD5204601
:1008A000FFF7B4FC06E06268A16830209047206A38
:1008B000401C206238467F1E0028F4DC07E00098C8
:1008C0006268A168405D9047206A401C206228460B
:1008D0006D1E0028F3DC2046FFF7AEFC20780006F2
:1008E00002D5022005B0F0BD0120FBE701694A1CDA
:1008F00002610878704700B58FB002910021059120
:100900000549019379440391114604906846FFF725
:10091000DBFC0FB000BD0000E5FFFFFF0A681070B0
:10092000521C0A6070470CC908399A4202D2531C03
:100930000B601070704701468008081A02091018F1
:10094000020A1018020C1018C00882001218520077
:10095000891A01E0401C0A390A29FBD270470000BD
:10096000F0B5FF22C30D14469C43C30FDB07002CD8
:1009700068D0CC0DA24365D0FF242404CD092540C6
:100980002E46002801DA05221543C20922406AD00A
:10099000254268D00124E40700020B02E70BE91BA3
:1009A000204323430225012609E0A943A04204D3A2
:1009B0002943C01A01D5404271404000D21B8A42EF
:1009C000F3DC14140D14AC4207DB984205D39842B3
:1009D0002BD05B00C01A40427140B0402AD20028A0
:1009E00026DB1ED020240346050C01D010242B4604
:1009F0001D0A01D02B46083C1D0901D02B46241F9F
:100A00009D0801D02B46A41E5D0801D0A41E00E065
:100A1000E41A641CA0402304D21A002A0CDCC80784
:100A2000F0BD4807C00FC007F0BD8C07D5D5D0E793
:100A30004000D21B002AF2DDD201430A1343C8074B
:100A40001843F0BDFF221206490091420FD8410021
:100A5000144691420BD8A14209D052429142F0D2A1
:100A60004100EED001E0002E01D01846F0BD014853
:100A7000F0BD00000000C07FC10D10B50906090ED1
:100A80002ED0FF2931D07E292DD319D0962916D208
:100A9000024675398A4005D0002402468A4003D3B5
:100AA000012302E00124F8E700230222CA41511E7B
:100AB0008843002B03D08018002C00D0904310BD39
:100AC0000121420201D1012200E00022C00FC00733
:100AD0000029F4D0002AF2D17F21C905084310BDB6
:100AE000C00FC00710BD0021EFE74102FAD0014856
:100AF00010BD00000000C07F0048704718000020B3
:100B000010B5FF231B0644009C421DD84C009C429C
:100B10001AD80346124A0B4307D4401A02D3EFF304
:100B2000008010BDEFF3008010BD081A03D3EFF36F
:100B30000080904305E0EFF3008001219043C90756
:100B4000084380F3008810BD0D231B041A4204D013
:100B50001146002000F031F810BD00F045F810BD3E
:100B60000000009000487047180000207546FFF70D
:100B7000F9FFAE46050069465346C008C0008546E9
:100B800018B020B5FFF714FB60BCB646002600275E
:100B9000C0C5C0C5C0C5C0C5C0C5C0C5C0C5C0C52D
:100BA000403D490849008D46704710B50446C0468F
:100BB000C0462046FFF7CFFA10BDC80212D5480341
:100BC000400F002804D0C803C0430121884070476B
:100BD000EFF300800001000903210907084380F3B7
:100BE000008870470020704710B5024800F004F8F4
:100BF00010BD00000000C07F10B50C461107090FA2
:100C0000092904D00A290AD008290CD104E0114688
:100C10000820FFF7D2FF06E0510606D501E0510695
:100C200001D50120C007214610BDD10607D501011D
:100C30000909CC084907000E0006044309E0410FEA
:100C400020024907000A0143200E00061D22D1415F
:100C500001430846E7E7000001491820ABBEFEE764
:100C600026000200704700214160C160704700000B
:100C700010B584B00446FF200091019202900C4808
:100C8000A0210223224600F0CDFA04B010BDC046D8
:100C900010B584B00446FF200091019202900448F0
:100CA000A0210223224600F091FB04B010BDC046F3
:100CB000D4000020EFF3108072B6FEE770B5044652
:100CC000E1200501E66830462946FFF7FBFBA080DE
:100CD0004543761BB0B23C252946FFF7F3FBA071D4
:100CE0004543701BE07170BD70B5044601784170DA
:100CF0000B48FFF7E7FB0546A060E1200601284608
:100D00003146FFF7DFFB60804643AE1BB0B23C25A7
:100D10002946FFF7D7FB20714543701B607170BDFA
:100D200080C6130070B50446E1200501A668304670
:100D30002946FFF7C7FB20804543761BB0B23C2510
:100D40002946FFF7BFFBA0704543701BE07070BDE4
:100D5000B0B52121415C022917D10146203102683A
:100D600013680E24A343136013680125AB4313607B
:100D7000C26B036C2C469C40546000240C704D7078
:100D8000416B002904D0884702E0042181630124DB
:100D90002046B0BDF0B589B00A68002A00D1A8E0AD
:100DA00004465548844201D0052000E0032000900D
:100DB000012000231F460390054607930595681EF2
:100DC000039E06908640324000D187E0049701924E
:100DD0004F681020384312280D460FD11C2004996B
:100DE00008400F218140069AD3089B00E3181A6A35
:100DF0008A4329698140114319626F682946032299
:100E000038461040079DA8400292AA4023689343A9
:100E100003432360D043122F11D80122BA40394B2B
:100E20001A420CD0A2680240CB68AB401343A360C7
:100E30003A09069B9A406368B34313436360E268D0
:100E400002408868A8401043E060F800049F45D540
:100E50002B4A10680123184310601068184008904E
:100E60000C263E400F22B240069D0298854308980A
:100E7000254FE8599043EF190922D206944209D030
:100E8000224A944207D0224A9442009B019D03D1FA
:100E9000022301E00023019DB34003433B60174E52
:100EA00033684868C20301D52B4300E0AB43049F7D
:100EB00033607368820301D52B4300E0AB4373605A
:100EC000B368C20201D52B4300E0AB43B360F268C4
:100ED000800201D52A4300E0AA43F2600A68104666
:100EE000059DE840079B9B1C3F1D6D1C002800D002
:100EF00063E709B0F0BDC046000C004800040140A3
:100F000018100240060006000800014000040048D6
:100F100000080048014800687047C04640010020B2
:100F2000B0B502464120135C0220202B19D1134694
:100F300040331C78012C14D02420587010680268AB
:100F40000124A243026022030568954305600268FC
:100F50000A430260016821430160002018702021CB
:100F60005970B0BDB0B502464120135C0220202B61
:100F700019D1134640331C78012C14D0242058700A
:100F8000106802680124A24302600F221202056861
:100F90009543090229430160016821430160002053
:100FA000187020215970B0BD70477047F0B581B0FE
:100FB00001688C690A68802313400122E50506D583
:100FC000002B04D01502466C16434664CD616505BE
:100FD00007D5002B05D09502466C08273743476498
:100FE000CD61A40507D5002B05D05202436C022425
:100FF0001C434464CA61416C0B22114201D000F0D1
:1010000011FF01B0F0BD80B502689169436B1268B1
:10101000002B00D0984780BD70470000F0B581B02C
:10102000002822D00446054640356878002804D1BF
:1010300000202870204600F095FA2420687020686F
:10104000026801218A4302600F22120663689343FB
:1010500003618368184A13408360A368E668012E21
:1010600005D1CE033343836009E0012022E021272C
:10107000BF023B438360022E01D1CB024360436831
:101080000E4E1E434660C3681340C3602269636905
:101090001343A26912021A43C260E269236A13432E
:1010A000036002680A4302600020606420216970C6
:1010B0002063A87001B0F0BDFF7FFFFF0080000239
:1010C00070470000F0B587B01646054641202A5CFF
:1010D0000220202A17D11F462A4640321378012BBE
:1010E00011D00691012414700492FFF713FF0390AE
:1010F0000090E103192328460594224601F042F9A5
:10110000002802D0059807B0F0BD039C2120049967
:10111000487010208870002068646F856E620290AD
:101120006863688D000AA448A44B09D00699014061
:101130002E6872681A400A43331DFF21384F0BE0B6
:10114000698D2E6877681F40069A0240CBB21B0457
:101150009A183A43331D314F0C9E17431F6029855F
:10116000698D0029224643D0069901400691964F89
:101170002846314601F063F90028C3D12868696A1E
:101180000A788262688D401E6885481C6862288DD6
:10119000411E2985688D090426D1002824D0009499
:1011A000802100222846334601F0ECF80028A9D11E
:1011B000688D000A09D0FF202885296848683840D2
:1011C000069A10430A1DE4490CE0688D28852A68B8
:1011D00051683940C0B20004069BC0180843012181
:1011E0004906121D01431160688D00282246BFD1B7
:1011F0002846314601F0FBF800280499059882D171
:1012000028680C462021C1614268D54B13404360D9
:10121000617002982070A07075E7C04600200082BF
:101220000020FF81F0B589B01646054641202A5CB2
:101230000220202A3FD10E9C002C39D00F9A002A80
:1012400036D007922A4640321778012F33D00493C4
:101250000891012717700592FFF75CFE039000903C
:10126000F9031923284606973A4601F08BF800281F
:101270001CD1109A222005994870402088700020C7
:1012800068646C62029068630798688507920092B0
:10129000039C01942846089F39463246049B00F07F
:1012A0005FFF002809D0059802990170069802E0B6
:1012B00001204102696409B0F0BD2646079C688D93
:1012C000000AA4483D4A09D00740286841681140F7
:1012D00008973943021DFF203A4B0DE0688D2B68BB
:1012E0005A6836490A409B490F40C1B20904089721
:1012F000C91911431A1D324B0B431360288523462D
:1013000000960421002728463A4601F03BF80028C1
:10131000CCD1686A2968496A0170688D401E688569
:10132000686A401C6862288D411E2985688D090401
:10133000234628D1002826D0009680210022284666
:1013400001F020F80028B1D1688D000A0AD0FF20F2
:10135000288529684868814A1040089A10430A1D68
:101360007D490DE0688D28852A6851687B4B1940BE
:10137000C0B20004089BC018084301214906121D91
:10138000234601431160688D0028B9D128461946CB
:10139000324601F02CF800280698059A8BD128686F
:1013A0002021C161144642686D4B13404360617057
:1013B0002770A77038467EE7FF0300000098007C86
:1013C000002400820024FF81009C00FCF0B589B05D
:1013D0001646054641202A5C0220202A3CD10E9C5C
:1013E000002C36D00F9A002A33D008922A46403279
:1013F0001778012F30D003930591012717700692BB
:10140000FFF788FD04900090F903192328460797F9
:101410003A4600F0B7FF002819D1109A212006990A
:1014200048704020887000276F646C626F63089872
:10143000688502920092049C0194284605993246E0
:10144000039B00F0CBFE002808D006980770079891
:1014500002E001204102696409B0F0BD0397012058
:1014600007904606688D000A3A493B4B3B4F089669
:1014700009D0059A0A402868416839401746114347
:10148000021DFF200DE0688D2A6853683B40059CD3
:101490000C40C1B2090427460919049C1943121DC6
:1014A0003346029E0B431360288528463146224668
:1014B00000F0C5FF0028CAD12868696A0A788262EC
:1014C000688D401E6885481C6862288D411E2985EC
:1014D000688D090425D1002823D0009480210022A2
:1014E0002846334600F04EFF0028B0D1688D000A30
:1014F00009D0FF20288529684868184A10403843D9
:10150000091D154A0BE0688D288529684A68134B28
:101510001A40C0B20004C0191043091D089A0243C2
:101520000A60688D0028C0D128463146224600F066
:101530005EFF00280798069A8ED128682021C16195
:1015400014464268064B1340436061700398207054
:10155000A07081E7FF0300000000FF01009C00FC79
:1015600000E800FE70B586B000681749884229D1AE
:1015700001267004154D296801432960296801403E
:10158000009104200590002403941220029003206F
:1015900004904002019000980920C00601A9FFF7BD
:1015A000F9FB7005A9680143A960A9680140009191
:1015B0000098172528462146224600F067F828465D
:1015C00000F058F806B070BD0054004014100240FE
:1015D000704770471A48007802490A681018086076
:1015E0007047C0464001002080B5B5480168102210
:1015F0000A430260032000F005F800F025F80020FF
:1016000080BDC046B0B504467D20C0000C490978B5
:10161000FEF758FF0146AD480068FEF753FF00F0A3
:1016200071FB0125032C09D8002807D10025E843C8
:1016300021462A4600F02AF8024804602846B0BD38
:101640000C0000201000002082B00948016801222F
:10165000114301600168114001910199110742682D
:101660000A434260406808400090009802B070470A
:1016700018100240002805D41F2108400121814094
:10168000014801607047C04600E100E0002805D431
:101690000322034693430C4A9A1806E00F220240A5
:1016A000083A03239A43074BD2188007C00E8901DA
:1016B000C9B28140FF2383401068984308431060FB
:1016C0007047C0461CED00E000E400E0F0B585B0D6
:1016D00004468078C007384B4AD0012003900107A8
:1016E00018680840029006D1186808431860186806
:1016F0000840049004980191304E3068C00511D420
:1017000003980702306838433060FFF703FC054652
:101710003068384206D1FFF7FDFB401B6428F7D93B
:10172000032537E003252802234B5968014012D0D6
:101730006268024091420ED00398000459685A68CA
:1017400002435A605A6882435A6008461C4A104055
:101750005860C80721D15868194908406168014399
:1017600059600298002803D11868019988431860CD
:101770002068C10705D0596903229143A2680A4332
:101780005A610025800605D5586910218843E16813
:1017900001435961284605B0F0BDFFF7BBFB064683
:1017A000484F054B58688007D5D4FFF7B3FB801B23
:1017B000B842F6D9EEE7C0461C1002400070004067
:1017C000FFFCFFFFF0B581B000284CD004463C4A36
:1017D0001368012003408B4208D213680126B343EB
:1017E0000B431360126832408A4266D1009121682F
:1017F0008A070ED54A0705D507221202424D2B68EB
:1018000013432B60404D2A68F0239A43A368134387
:101810002B60C90729D12A49086801263040009A5F
:10182000904205D90868B04308600868C00744D1F1
:101830002078400707D507200002334A116881430A
:10184000E0680843106000F043F82F490968090672
:10185000090F1D4A515CC8401C4908600320FFF76E
:10186000D1FE002629E0012627E06168264A121FE2
:10187000022904D0012905D11268920304E01268FC
:10188000920101E012689207064616D51E4A1068BA
:101890000326B04308431060FFF73CFB0746094DA1
:1018A000194800680C210140606880008142B2D074
:1018B000FFF730FBC01BA842F2D9304601B0F0BDA3
:1018C0000020024088130000A13B00080000002017
:1018D00010B50D490A680C2313400C48082B08D199
:1018E00093021B0F0AA4E45C896AD20303D4104854
:1018F00007E0044606E00F22114009A2515CFEF702
:10190000E1FD4443204610BD0410024000127A005D
:1019100002030405060708090A0B0C0D0E0F101030
:101920000102030405060708090A0B0C0D0E0F102F
:1019300000093D00F0B587B004460120002C00D11D
:1019400097E104902078C007EB4E059425D071688C
:101950000C20014004291AD071680140082902D1E5
:101960007068C00313D4616801204704002900D1C6
:101970002AE1052900D13EE1012900D13FE101041E
:1019800032688A4332608104306888433AE13068C3
:10199000800302D5606800282ED02078800744D5C7
:1019A00070680007800F07D070680C21014008297B
:1019B0000ED17068C0030BD430688007059A02D539
:1019C000D068012818D13068F8218843116929E0CE
:1019D0003068059CE168002910D00121084330607F
:1019E000FFF798FA05463068800717D4FFF792FA98
:1019F000401B0228F7D912E104983AE101218843FB
:101A00003060FFF787FA0546306880070DD5FFF78D
:101A100081FA411B03200229F6D92AE13068F82116
:101A200088432169C90001433160059C2078000783
:101A300022D42078400732D42078C00600D4F8E0C1
:101A4000059A5069411D6ED0012875D1706B042133
:101A500001437163706B012101437163FFF75AFA0F
:101A60000546706B800700D5DBE0FFF753FA411B9A
:101A700003200229F5D9FCE0706AE169002943D00E
:101A8000012108437062FFF745FA0546706A800736
:101A9000CFD4FFF73FFA401B0228F7D9BFE001205F
:101AA00003900107F0690840029006D1F0690843ED
:101AB000F061F06908400690069801918F4F3868F0
:101AC000C00510D403980402386820433860FFF73B
:101AD00021FA05463868204205D1FFF71BFA401B62
:101AE0006428F7D99BE005988068854F002838D096
:101AF00005284BD001284DD0306A039988433062C5
:101B0000306A0421884348E0012188437062FFF76E
:101B100001FA0546706A80078BD5FFF7FBF9401B79
:101B20000228F7D97BE0706B042188437063706BE7
:101B3000F8218843916979E0706B04210143716356
:101B4000706B012188437063FFF7E4F90546706B01
:101B500080076ED5FFF7DEF9411B03200229F6D975
:101B600087E0306A039988433062306A04218843F1
:101B70003062FFF7CFF90546306A80071AD5FFF7C4
:101B8000C9F9411B0320B942F6D972E0306A042139
:101B900001433162306A039908433062FFF7BAF9B2
:101BA0000546306A800705D4FFF7B4F9401BB842F8
:101BB000F7D934E002980028059C00D03CE7F06992
:101BC00001998843F06137E7010432688A43326043
:101BD0008004316881433160FFF79CF90546059C1C
:101BE0003068384200D1D8E6FFF794F9411B032052
:101BF0006429F5D93DE0810432680A43326001046A
:101C0000306808433060FFF785F905463068384290
:101C100000D0C2E6FFF77EF9401B6428F6D9032006
:101C200027E0706BF821884305998969C900014351
:101C300071630598046A002C1AD070680C21014069
:101C4000082918D1012C049813D0012003047168CD
:101C50000B40F26A059D6C6AA3420AD10F231A4019
:101C6000EC6AA24205D19A041140AA6A914200D1BD
:101C7000002007B0F0BD01200206316804929143B4
:101C800031604706FFF746F90546022C0AD1049C4D
:101C90003068384210D0FFF73DF9411B032002297C
:101CA000F6D9E6E730683842E2D0FFF733F9411B56
:101CB00003200229F6D9DCE7F06A0F218843059A50
:101CC000D16A0143F1623D20000471688143906A4A
:101CD0000843516A01437160306820433060FFF768
:101CE00019F9044630683842C2D1FFF713F9011BD5
:101CF00003200229F6D9BCE7001002400070004022
:101D000088130000401E010E01D0012070470749D2
:101D1000074A5060074803680B4003218907591898
:101D2000016000209060072111607047FFFFFF00F5
:101D300010E000E020ED00E0FEE7000080B507487D
:101D4000006880694005400F03D00448FFF72EF972
:101D500080BD0248FFF757F980BDC046D40000207F
:101D600080B5406A816B00224A63C16B4A6341219E
:101D7000415C602906D10146413120220A70FFF7FB
:101D800013F980BDFFF748F980BD0000F0B583B0BE
:101D90004121415C28220A40056806464036282A2F
:101DA0001ED1A969AC69AA680292EB68FE22240CD4
:101DB000C903C90FC768022F17D101911946029BA9
:101DC000DF0967407C07A40F1BD00B46134000229D
:101DD00032702A68B824A2432A6001991A460CE09E
:101DE000002030700820E86109E0002333702B6880
:101DF000B826B3432B6014402246FFF7D6F803B051
:101E0000F0BD826C521C8264826C022AF7D1F14CC4
:101E10001A4622400023836433700823EB61019942
:101E2000EBE7C04670B504464123C65C4222002061
:101E3000A0548D4DE5626085656C0D436564E55C7D
:101E4000283E21464031022E0AD828231D40282D45
:101E500000D0F2224D781D40282D0CD0B4250BE087
:101E60004A7822681368FE25AB4313604B78602BD9
:101E700009D105460AE00425154322681668AE43D9
:101E80001660214D01E0202305464B7020636563F9
:101E9000136810685B040CD400041BD448786028D5
:101EA0002CD100200870202048702046FFF77CF8D5
:101EB00070BD01239B0398431060A06B002822D0C3
:101EC00000220A7011494163FEF742FF00281AD030
:101ED000A06B10E00120C003136883431360E06B24
:101EE000002810D000220A7008494163FEF730FF35
:101EF000002808D0E06B416B884770BD0020087057
:101F00002046FFF789F870BD5D220008611D0008BA
:101F1000B0B5554AC2620022026341232024C45452
:101F20004223C254426303464033490712D5416AF3
:101F30000468646A0C70416A491C4162018D002981
:101F400008D0448D641E4485491E0185416C0424DB
:101F50000C4344645978597801680C68FE25AC43F9
:101F60000C601A701022CA61FFF7AAF8B0BDC04613
:101F7000F0B581B00D460446006801682022009249
:101F8000C2614122A35CA25C0268FE239A43026004
:101F90000123DA0346681643466046686F4F3740B0
:101FA00047608669B60701D5002686628669F6070E
:101FB00002D186691E4386614B0403D4114207D0C7
:101FC000E16B00E0A16B002902D0096849686185D6
:101FD00069070FD5616A406A0870606A401C6062D8
:101FE00004208543208D002804D0401E2085608D6C
:101FF000401E608527464037608D002803D0606C06
:1020000004210143616400262663BE706663606C30
:1020100000280BD0616C2046FFF704FF7878282851
:1020200020D120462946FFF773FF1BE0E06AD44D1C
:10203000A84209D13E7078780099797022280ED193
:102040002046FFF7C5FA0DE0204600F00FF8E562E4
:102050003E70009878702046FFF732F802E0204684
:10206000FFF7B7FA01B0F0BD0000FFFF10B5422244
:10207000002181544122835C02464032292B0CD13D
:102080002823537021240463117052781A40F421DC
:10209000C943282A17D0891C16E053782A2B11D15E
:1020A0002823537022240463117052781A40F421BB
:1020B000C943282A00D1B031026813680B4013606D
:1020C000FFF786FA10BDB231026813680B40136047
:1020D000FFF77FFA10BD0000F0B581B00E46044650
:1020E00000688169C90601D4002035E015462746FD
:1020F0004037014618310A6892060FD4711C08D087
:10210000FEF708FF2021002E1DD0401BB0421AD838
:10211000206881698906F1D5014618311022C26113
:102120002022C2618269920701D5002282620A6878
:10213000D20703D10A68012313430B604168074AA1
:102140000A4042600421606C08436064202078707B
:1021500000203870B870012001B0F0BD00E800FE2A
:10216000F0B583B01D460292044600684268384BC1
:102170001340384A0A40E9B209048918C918164AB6
:1021800089184160089E099F204631463A4600F072
:1021900056F9002801D0012019E0012D0AD020684D
:1021A0000299090A8162204631463A4600F047F911
:1021B0000028F0D120680299C9B2816200974021BD
:1021C00000222046334600F0DDF8411E884103B06E
:1021D000F0BDC046FF03000000200080F0B583B0D2
:1021E0001D460292044600684268194B1340194A82
:1021F0000A40E9B209048918C918174A89184160C8
:10220000089E099F204631463A4600F018F90028FA
:1022100001D0012019E0012D0AD020680299090A95
:102220008162204631463A4600F009F90028F0D193
:1022300020680299C9B2816200978021002220465D
:10224000334600F09FF8411E884103B0F0BDC04600
:102250000098007CFF03000000200081F0B583B0EF
:1022600004464020205CE36A012801D102206AE094
:1022700016460D46204640300127029007700E405A
:10228000B00607D52046294601971F46FFF770FE86
:102290003B46019FF00616D4700727D430074CD474
:1022A000B007029E4DD5608D002863D02068616A1A
:1022B0000A788262481C6062208D401E2085608DF5
:1022C000401E60853DE0608D00282AD020681021E6
:1022D000C161606C04210143616428480342029E8D
:1022E0002FD1616C2046FFF79DFD2AE0608D00280C
:1022F000029E0CD0606A2168496A0170606A401CC5
:102300006062208D401E2085608D401E6085608D3E
:102310001B498B4215D0002813D12046FFF7A6FE9B
:102320000FE0029E707879068B420ED128280CD1DE
:1023300020462946FFF7ECFD03E02046FFF726FD87
:10234000029E0020307003B0F0BD7178206810222A
:10235000C2610B4A9342F4D02929F2D181698907DD
:1023600001D5002181628169C907D6D181693943CC
:102370008161D2E701480342E3D1CEE7FFFFFFFED0
:102380000000FFFFF0B583B01D4616460F46044619
:10239000036899693940C91B4A424A410020B24248
:1023A00023D1019020464030009008980290691C8B
:1023B00008D0FEF7AFFD002D0DD00299401AA842BB
:1023C00009D8236899693940C91B4A424A41B24237
:1023D000EDD0019809E0606C202108436064009A08
:1023E0005170002010709070012003B0F0BDF0B566
:1023F00081B016460F460446403000902068806940
:10240000800618D4204639463246FFF765FE01257E
:10241000002811D1FEF77EFD002F02D0801BB842AC
:10242000ECD9606C202108436064009A5170002050
:102430001070907000E00025284601B0F0BDF0B5A6
:1024400083B00446006880690027800725D41546BC
:102450000E460297204640300190204631462A46DB
:10246000FFF73AFE0127002817D1701C06D0FEF7AF
:1024700051FD002E08D0401BB04205D8206880696D
:102480008007EAD5029F08E0606C20210843606461
:10249000019A5170002010709070384603B0F0BD62
:1024A000F0B582B00E460C68002C43D00022009696
:1024B00001239340234037D01C465C437168264675
:1024C0004E43032767430568BD4335430560FE431C
:1024D00001914D1E012D06D8009DAD6865438768AA
:1024E00037402F4387603146009E35696543C76892
:1024F0000F402F43C7600199022915D17569FF2B41
:1025000008D8644365430F216143036A8B432B431F
:10251000036209E0190A494349434D430F234B43E2
:10252000416A994329434162521C34682346D3408F
:10253000BED100E000247168491E012905D8F16868
:1025400061434268A2430A434260002002B0F0BDEA
:1025500010B504681B4A904202D0BC4B984204D18B
:1025600070239C434B68234300E02346164CA04253
:1025700006DD90420AD0154CA04207D0144C03E06F
:10258000B24CA04202D0134CA04219D10324240221
:10259000A343CC681C4304608B68C3620B888362CE
:1025A000904205D0094A904202D0094A904201D196
:1025B000097C0163416901220A434261002010BD88
:1025C0001C46E8E7002C0140FF2B01400048014079
:1025D0000044014000200040F0B58DB000240B9471
:1025E0000A940994089401208105034696480268DC
:1025F0000A43026002680A400C920C99590402686E
:102600000A43026002680A400C920C9999040593EF
:1026100002680A430260006808400C900C98092088
:10262000C50610210191A96220210291A962049599
:102630002A48022787620A9707940693284806AE1D
:102640003146FFF72DFF0A97079406972448314635
:10265000FFF726FF0A97079405980690284631460B
:10266000FFF71EFF0A970794069728463146FFF7A3
:1026700017FF0A9707940420069028463146FFF773
:102680000FFF0A9707940820069028463146FFF767
:1026900007FF0A970994032003900890059D07956A
:1026A0000198069004983146FFF7FAFE0A970994BC
:1026B0000398089007950298069004983146FFF712
:1026C000EFFE0A9709940398089007950697034828
:1026D0003146FFF7E5FE0DB0F0BDC04600040048EE
:1026E0000014004810B5134C01200021124A134B6E
:1026F00023606260A160E060204610301421FDF785
:10270000DEFE2046FEF78AFC002801D0FEF7D2FA52
:1027100008480021FEF704FC002801D0FEF7CAFAA1
:1027200004480021FEF71EFC002801D0FEF7C2FA83
:1027300010BDC046D40000200B0200000054004031
:10274000F0B591B00BA802901421FDF7B8FE3E48F9
:1027500081680224214381608168214005910599A7
:102760000127790402680A4302600068084010905B
:102770000A97099400200490089003200390079082
:1027800006944020059010980920C50605AE2846FD
:102790003146FFF785FE0A9709940498089003983C
:1027A0000790069480200190059028463146FFF757
:1027B00077FE264DA868384306218843A860A8699B
:1027C0003843A043A861A86904210143082081433C
:1027D000A961A86910210143E0208143A961286A09
:1027E0000A2188432862039A1002A96981433802AA
:1027F0000818A8619002A9698143B8020818A86165
:102800000F200003A969814378030818A861286A8A
:10281000A021884328620299049808800E900246FD
:102820000B480D900C922846FFF792FE0198C0438A
:102830002968014029606968702291436960A9682C
:102840000140A96011B0F0BD141002400004004026
:10285000FFFF000000218180816001490160704715
:102860000202000070B50446E1200501A66830466A
:102870002946FDF727FE60804543761BB0B23C2514
:102880002946FDF71FFE20714543701B607170BD26
:10289000FEE7704701784170704770473C218160C6
:1028A000012109040160704703214156022282562A
:1028B0003C2353435918E12212010388534359180A
:1028C00081607047F0B581B01D4600920C46064607
:1028D000084600F07BFA304600F0DCFD00F0D4FC46
:1028E000234F3880052806D03046214600F078FD79
:1028F00000F0CAFCF5E73046FEF7F6F900982946E5
:1029000000F0BDF83046294600F04EFF01200E22AF
:102910002946FEF7BDF92068A06001B0F0BDC046B1
:10292000F0B581B016460D460446084600F080FD1D
:10293000A068206000F0A8FC0D4F3880052806D064
:102940002846214600F022FD00F09EFCF5E72846CF
:10295000314600F094F8012004223146FEF798F940
:10296000284600F0D9F82068A06001B0F0BDC0464C
:102970002001002080B50449086004490968002945
:1029800000D0884780BDC046940000209000002001
:1029900080B5FEF71FFE02480068FFF7EBFF80BD21
:1029A0004001002070B594B008AC201D1C21FDF73B
:1029B00086FD002507950695059504951395052038
:1029C000C004129011950226109610200C90012040
:1029D0000B90089603950295019500952046FEF709
:1029E000A9FF002803D0EFF3108072B6FEE7079529
:1029F000069505960720049004A80121FEF7E2FE43
:102A0000002803D0EFF3108072B6FEE70395202074
:102A100000906846FEF75AFE002803D0EFF31080BE
:102A200072B6FEE714B070BD704700000648016939
:102A3000C90707D00121CA430261044B197001681C
:102A4000114001607047C04600440140D0000020A2
:102A50000A7812064B781B049A188B781B02D2183E
:102A6000CB78D21882600A7912064B791B049A1827
:102A70008B791B02D218C9795118C1607047C27A8C
:102A80000A7042894A708268120A8A708268CA7023
:102A9000C27B0A71C2894A71C268120A8A71C0680F
:102AA000C8717047F0B581B00C46FDF7B9FE054618
:102AB000214600F006FF2146FDF7BEFD0146144FFA
:102AC000386800F015FF064638607F20C70530469D
:102AD000394600F0E4FE002801D00E4F05E00D4914
:102AE000304600F0D1FE002805D13046394600F0CE
:102AF000FFFE0749086028462146FDF79DFD00F0CE
:102B0000F2FEDD4900F064FFFDF746FE01B0F0BDC6
:102B100030010020000080BFF0B583B005460620DC
:102B2000285607216956AB88009001918E4C1426D7
:102B3000314A20463146FDF74DFB91480178914FCF
:102B400038780123224600F07DFD0220285603211B
:102B500069562B880090019120463146264AFDF7A0
:102B600039FB387886490978491CC9B200F006FD5E
:102B7000224800F045F8204600F07AFD03B0F0BD91
:102B8000F0B583B00546037840780090144C1426C5
:102B900014A220463146FDF71DFB79480178794F94
:102BA00038780123224600F04DFD042028560521E7
:102BB00069566B88009001910F4A20463146FDF717
:102BC00009FB38786E490978491CC9B200F0D6FC77
:102BD0000A4800F015F8204600F04AFD03B0F0BDA9
:102BE0007C0000207365743D25303364402072659D
:102BF0006D3D2530336440003C3E0008B80B0000BA
:102C00000849C8620120C2430A6100224A620A6878
:102C100002430A600A69D207FCD00A6882430A604C
:102C20007047C04600200040F0B583B00D460290CA
:102C3000494800684949081A81B2C90B401800B2D6
:102C40004610EE60AF68B7425ED0AE60F41B5BD05A
:102C500020461330262857D80298FFF725FE012C6E
:102C600043DB287C002845D1641C3D4E029F31681F
:102C7000B868FFF717FF05460120294600F044FD1C
:102C8000641E012CF3DCB868F968401835498842A5
:102C900001D93E494018F8603846FEF70FF8062083
:102CA000385607217956BB88009001912E4E142783
:102CB00037A230463946FDF78DFA31480178314C5C
:102CC00020780123324600F0BDFC2F4A30463946B9
:102CD0002B46FDF77FFA207829490978491CC9B2AB
:102CE0000023324600F0AEFC04E0002C02D5287C24
:102CF00000280BD0F14D02982946FFF7C0FE0120B5
:102D000008222946FDF7C4FF03B0F0BDBC1B144EDA
:102D1000029F3168B868FFF7C5FE054600202946C6
:102D200000F0F2FC641EF4D1B868F968814202D266
:102D30000C4A8918491C081AF8603846FDF7BEFF8E
:102D40000620385607217956BB8800900191064E1F
:102D5000142706A2ADE7C046240400400080FFFF10
:102D6000080000207FC613007C000020253033645B
:102D70002A20253032642720253032642220620048
:102D80002201002004000020343E00088039ECFFBE
:102D9000253033642A2025303264272025303264E0
:102DA00022206600074808494162016A0122114356
:102DB0000162016A10230B43036201681143016041
:102DC0007047C04600040040FF7F000006490968C4
:102DD000064A511A8AB2D20B891809B24910016009
:102DE000416081607047C046240400400080FFFFBE
:102DF000B0B50446C068FDF713FDF3490968FDF757
:102E00001BFCF24900F0E4FDFDF7C6FC014600257D
:102E1000284600F079FCE5602046FDF74FFFEC4DB9
:102E200020462946FFF72BFE012008222946FDF700
:102E30002FFFB0BDB0B50546407800281AD00C462B
:102E4000401E6870A868FDF7EBFCF4490968FDF7BF
:102E5000F3FBF34900F0BCFDFDF79EFC01460020AA
:102E600000F052FCE068A968884201D2ED4A80185F
:102E7000401AE060B0BDC0460000204282B0FEF7BC
:102E8000B3FBFFF78FFDFFF7A7FBFFF759FCFFF739
:102E900029FCFFF787FF00F095FC00F081FB012083
:102EA000CB4E0E2201903146FDF7E2FE844D2846BE
:102EB0003146FFF7CDFD834C2046314600F064FCDF
:102EC0008148461CE968B14202D8A968814206D906
:102ED0007B4D2846FFF7E2FC2846FDF7C4FE784DFF
:102EE0002846FDF71FFF2846FDF7E8FEA068B04220
:102EF00002D97448FFF7AEFC7248FFF7B3FC704E7E
:102F00003046FFF709FE714802210160D3481021C5
:102F100001606F4D2878FE210091084028706D48AF
:102F2000FFF76EFE6C4C6D4F00F0AEF9208000286C
:102F300000D1AAE021882B78491EDA071DD1062985
:102F400060482AD87944097949008F449B03299B1A
:102F500038657900304600F0D5F800F095F920800A
:102F60000028FAD02088042800D185E0012800D06C
:102F700086E03046FFF73CFF84E0062951480CD834
:102F80007944097949008F44031E6A2F435F6D001D
:102F900031460746FFF74EFF2AE00020208074E00C
:102FA0003046FDF760FE3046894E3146FFF767FD3B
:102FB000012008223146424EFDF76AFE62E03846A3
:102FC0003146834A39E0304600F09CF800F05CF965
:102FD00020800028FAD0208804285FD0012865D1FD
:102FE0003046FFF705FF5CE03146074600F0F2F897
:102FF0003046774E3146FFF742FD3846314600F005
:103000006FF80120092231462D4EFDF741FE24E0E4
:103010003946324607461DE03046FFF73FFC304652
:103020006B4E3146FFF72BFD012008223146FDF79C
:103030002FFE384622493246214EFFF771FC24E02C
:1030400001990B432B700AE00746FFF703FC384653
:10305000224932465E4BFFF735FC38461F4FFFF7DB
:103060008FFD12E0009803402B703046FDF726FEDE
:103070003846FFF7ABFE05E0304600F07FF801E090
:10308000002020803046FFF747FD2878C00700D099
:103090004AE730463946FFF7C7FD45E7304600F0BE
:1030A0006DF8084F3846FFF7F5FB02E0002020805E
:1030B000044F3846FFF764FD084FE6E7AC000020F8
:1030C0009C000020240100207FC613002804004833
:1030D00037010020204E000020010020BC0000200D
:1030E000407808727047000040000549C86200201F
:1030F00048620120C2430A610A6802430A607047BD
:103100000044014070B582B0062141560722825624
:10311000838800910192124C1421124A2046FDF737
:1031200059F8114D2978114E30780123224600F0CC
:1031300089FA0FA021460CC80CC102880A80807849
:10314000887030782978491CC9B200F017FAEB482A
:10315000FFF756FD204600F08BFA02B070BDC04666
:103160007C0000203C3E00082201002004000020DA
:103170003C2D2070757368202D3E000070B504460C
:10318000C0682849081AFDF74BFB24490968FDF778
:1031900053FA234900F01CFCFDF7FEFA0146012515
:1031A000284600F0B1FA0020E0602046FDF786FDD9
:1031B000074E20463146FFF762FC0822284631467A
:1031C000FDF766FD70BDC0460800002000002042EB
:1031D000AC000020B0B50546407800281CD00C4655
:1031E000401E6870A868FDF71BFB0C490968FDF7D5
:1031F00023FA0B4900F0ECFBFDF7CEFA0146012063
:1032000000F082FAE068A9680818E0600549884281
:1032100002D305494018E060B0BDC0460800002058
:103220000000204280C613008039ECFFF0B581B069
:10323000002810D007460026102408490C610425F8
:103240002846FFF7DDFC054804602846FFF7D8FC58
:10325000761CBE42F0D301B0F0BDC0461800004855
:1032600045490A68012052070CD40A68920709D41C
:103270000A68D20706D10968090703D440480168E3
:10328000012008407047C04670B53A4D28780028A4
:103290001FD139480168490711D40168890713D43F
:1032A0000168C90754D1006800075DD4344800683C
:1032B000C0070ED0012028703048072108E0012007
:1032C00028702E48042103E0012028702B48022199
:1032D00001802878012804D13220FFF705FF022061
:1032E0002870284E3078297802290FD101280DD175
:1032F00000243470FFF7B4FF00281AD06420FFF7D1
:10330000F3FE2148047003202870307829780024C7
:10331000032927D1012825D100243470FFF7A0FF0D
:10332000002808D018480178042909D8491C0170E0
:1033300015E02C7016E0002028701048048811E079
:103340000E480188052908D0022908D1032105E08B
:103350000120287009490880BBE70621018064200C
:10336000FFF7C2FE204670BD0120287003480521EA
:10337000AEE7C046360100201000004834010020AE
:1033800010140048D00000209800002010B504461A
:1033900025480068254A101A82B2D20B801800B264
:1033A000401048600A68824217D00860811A14D021
:1033B00008461330262810D83C204143A2685118F3
:1033C000A1603C2902D30548814200D9A060204673
:1033D000FDF7A8FC204600F02BF810BD7FC61300B7
:1033E00080B5114A1268114B9A1A93B2DB0BD218AE
:1033F00012B252104A600B68934214D00A60D11A7C
:1034000011D00A461332262A0DD8027851180170BD
:10341000C9B2FF2903D0012903D8FE2100E002210F
:10342000017000F037F880BD240400400080FFFFE9
:10343000F0B583B0054613A02B4C21464CC84CC1B7
:103440002A4E31782A4F38780123224600F0FAF8C4
:1034500002202856032169562B88009001911421DF
:103460000B4A2046FCF7B6FE38783178491CC9B2C1
:1034700000F084F87D48FFF7C3FB204600F0F8F821
:1034800003B0F0BD7365747570206D6F64653100B5
:103490003C3E0008F0B581B0054610A0124C214614
:1034A0004CC84CC1114E3178114F38780123224657
:1034B00000F0C8F82B7814210EA22046FCF78AFEF3
:1034C00038783178491CC9B200F058F86748FFF7DE
:1034D00097FB204600F0CCF801B0F0BD7365747521
:1034E00070206D6F646532007C0000202201002096
:1034F000040000202530336440000000B80B0000B9
:10350000F0B583B06E4800250570B02000F0DAF801
:10351000284600F0D7F8102000F0D4F86648A03014
:103520000190664E00952F4602950524304601997C
:103530002246FCF765FF029870710621304600F0C4
:10354000D3F85F4A10780830C1B2802900D8044609
:1035500014707F1CB8B2812807D30098401C0090DB
:10356000C1B20027384600F009F8681C02498D42B4
:103570000546DAD303B0F0BDFF01000010B50446E4
:103580004F4804705039C8B200F09CF80F2020401A
:1035900000F098F82009103000F094F810BDC046F3
:1035A00010B5AE2000F08EF8202000F08BF800243B
:1035B000204600F087F8B02000F084F8C82000F022
:1035C00081F8204600F07EF8102000F07BF84020C3
:1035D00000F078F8812000F075F8FF2000F072F814
:1035E000A12000F06FF8A62000F06CF8A82000F0F1
:1035F00069F81F2000F066F8A42000F063F8D320DB
:1036000000F060F8204600F05DF8D52000F05AF890
:10361000F02000F057F8D92000F054F8222000F0F4
:1036200051F8DA2000F04EF8122000F04BF8DB20C1
:1036300000F048F8022000F045F8AF2000F042F812
:1036400010BD000070B514460D460646002B01D093
:10365000FFF756FF30462946FFF790FF0348FFF774
:10366000CFFA204600F004F870BDC046B80B000049
:10367000F0B581B0017800291CD0471C0F4C104ECA
:10368000052569430C48411820462A46FCF7B8FE38
:10369000002060710621204600F026F830780830BE
:1036A000C1B2802900D805463570781C39780029C8
:1036B0000746E5D101B0F0BDB43B00083A01002057
:1036C0007800002080B582B0064A5070002010704B
:1036D000FF2000900B4878210223FDF7F3FC02B095
:1036E00080BDC0463801002080B584B0FF2200AB09
:1036F00007C30448782140220123FDF767FE04B088
:1037000080BDC046D4000020F0B583B00D461B49F3
:10371000002800D11031202008600620FFF770FA41
:10372000642128460191FCF7CDFE0646144C029513
:10373000642D0FD30025022727600520FFF760FACC
:103740006420FFF773FD27610E48FFF759FA6D1CDF
:10375000B542F0D3019971430298451A0BD0022665
:1037600026600520FFF74CFAE8B2FFF75FFD2661FF
:103770000320FFF745FA03B0F0BDC046180000482B
:1037800018040048DC0500000A7A42704A7A027088
:103790008A7A1206CB7A1B049A180B7B1B02D2186A
:1037A000497B51188160704742780A7202784A72E8
:1037B000C27A8A724289CA728268120A0A7380685F
:1037C00048737047F0B589B003AD142101912846C4
:1037D000FCF775FE01273802244A51680143516005
:1037E0002F212980516801400891002406940494F7
:1037F0000898FF20029005901D4E30462946FEF79E
:10380000A7FE8020C143009130680840306003ADBE
:1038100028460199FCF753FE7804144A11680143C5
:1038200011602C7413492980116801400891069495
:103830001148059004940898104C20462946FEF73C
:1038400087FE2068009908402060F8432061E06806
:103850003843E0600298000209490A6882430A601E
:1038600078050849086009B0F0BDC046181002404C
:1038700000200040BF5D0000FFFF00000044014049
:1038800014E400E000E100E010B500F077F8EFF399
:103890000080800001D5012010BD002010BD10B5B2
:1038A00000F06CF8EFF300804000800F012800D09A
:1038B000002010BD30380A2801D2012070470020B6
:1038C000704770B50546C80DC04300060C46000E93
:1038D00004D0600002D10120FCF7AAFF214628464F
:1038E000FDF73EF870BD10B5FDF7C6F810BD00003D
:1038F00070B50125ED0704004C4020D4441A01D2D4
:10390000001B0919C60D4B00F2B2FF2A29D01B0E6D
:103910002CD000020C0228432C43D31ADC4005199A
:1039200010D2280A02D3401C6D0611D0761EF6056F
:103930008019FF2A00DA70BDC00DC00570BD694056
:1039400000F0A4F801200543C541521C761CE8E7AD
:1039500064089C40C90161408900E7D10124A0436B
:10396000E4E71B0E440200D0034870BD002AFCD1DE
:10397000C00FC00770BD00BF0000C07F0123DB0582
:1039800002000A430DD4DA4203D49A4207D4884293
:103990007047D84214D4D94212D48842704780422A
:1039A0007047DA4203D59A42F9D5814270475B00ED
:1039B0004200DA4204D24A00DA4201D28142704720
:1039C00010B5024AFDF79CF810BD00BF09001304B2
:1039D00070B5420064414B005C41120E39D01B0EA1
:1039E00038D0FF2A3CD0FF2B3AD0D2187F3A400281
:1039F0004902400A490A4518ED0106004E43000AF3
:103A0000090A48430104731A4019190C4318990F05
:103A100004D05B08012149075B1A521CD80904D362
:103A2000401CF50301D19D0607D0FF2A08D2D50519
:103A300006D0E4072043401970BD0125A843F4E7F0
:103A4000002A01DCE00770BD2402FF202043C005EE
:103A500070BD1B0EFF2A03D0FF2B01D0E00770BD05
:103A6000FF2636064500B54206D84D00B54203D8BC
:103A7000D218FF2A00D0E7E7004870BD0000C07FE1
:103A800070B50125ED0704004C4022D4441A02D23F
:103A90006C40001B0919C60D4B00F2B2FF2A4BD037
:103AA0001B0E50D000020C02A8432C43D31ADC405A
:103AB000051B05D5AD0019D36D08761E521E37D0F3
:103AC000F605280A01D2801970BD70416D0603D039
:103AD00070BD6940FFF712FF9C4009026140490038
:103AE00001D0401E70BD0124A04370BD6D081DD0E3
:103AF00001202B0C01D12D0410302B0E01D12D02F1
:103B000008302B0F01D12D01001DAB0F01D1AD00ED
:103B1000801CEB0F01D16D00401C361A121A6D008B
:103B2000680AF5054019012A02DB70BD002070BD4E
:103B3000C036300AC00770BD1B0E440201D1FF2BF6
:103B400000D1024870BD002AF0D070BD0000C07FD7
:103B50000400000800000000000000020001000056
:103B6000108182838485868788898B8C8D8E8F9146
:103B70009293959697999A9C9D9FA0A2A3A5A7A87A
:103B8000AAACAEB0B2B3B5B7B9BCBEC0C2C5C7C9A6
:103B9000CCCED1D4D7D9DCDFE2E6E9ECF0F3F7FA0A
:103BA000FE000000000000000001020304060708F8
:103BB00009000000000000000000005F0000000796
:103BC000000700147F147F14242A7F2A122313086D
:103BD000646236495522500005030000001C224152
:103BE000000041221C0014083E081408083E080882
:103BF000005030000008080808080060600000203D
:103C000010080402000000000000005F0000000730
:103C1000000700147F147F14242A7F2A122313081C
:103C2000646236495522500005030000001C224101
:103C3000000041221C0014083E081408083E080831
:103C400000503000000808080808006060000020EC
:103C500010080402000000000000005F00000007E0
:103C6000000700147F147F14242A7F2A12231308CC
:103C7000646236495522500005030000001C2241B1
:103C8000000041221C0014083E081408083E0808E1
:103C9000005030000008080808080060600000209C
:103CA000100804023E5149453E00427F40004261F7
:103CB0005149462141454B311814127F1027454583
:103CC00045393C4A4949300171090503364949499A
:103CD00036064949291E00363600000056360000D7
:103CE0000814224100141414141400412214080270
:103CF00001510906324979413E7E1111117E7F49F9
:103D00004949363E414141227F4141221C7F494978
:103D100049417F090909013E4149497A7F0808085C
:103D20007F00417F41002040413F017F0814224134
:103D30007F404040407F020C027F7F0408107F3E9E
:103D40004141413E7F090909063E4151215E7F09FB
:103D5000192946464949493101017F01013F404047
:103D6000403F1F2040201F3F4038403F631408144D
:103D70006307087008076151494543007F414100CE
:103D800002040810200041417F00040201020440A7
:103D900040404040000102040020545454787F48C1
:103DA0004444383844444420384444487F385454C8
:103DB0005418087E0901020C5252523E7F08040436
:103DC0007800447D40002040443D007F102844009E
:103DD00000417F40007C041804787C080404783893
:103DE000444444387C14141408081414187C7C08C7
:103DF0000404080854545420043F4440203C4040EC
:103E0000207C1C2040201C3C4030403C4428102892
:103E1000440C5050503C4464544C4400083641001B
:103E200000007F00000041360800100808100878E4
:103E300046414678737465703D25640025303364CF
:103E40002A202530326427202530326422000000E9
:103E5000703E00080000002018000000F400000878
:103E6000883E0008180000203007000010010008FC
:103E700000127A00050000009A99814201000000BA
:083E8000040000000000000036
:04000005080000B13E
:00000001FF
