:020000040800F2
:10000000000700209D0100088B1900087D140008DE
:1000100000000000000000000000000000000000E0
:10002000000000000000000000000000951900081A
:1000300000000000000000008D190008C91A000827
:10004000AF01000800000000AF010008AF01000888
:10005000AF010008AF010008AF010008AF010008C0
:1000600000000000AF010008AF010008AF01000868
:10007000AF010008AF010008AF0100080000000058
:10008000AF0100080000000000000000AF01000800
:1000900000000000651B0008AF0100087F14000885
:1000A00000000000AF01000800000000AF010008E0
:1000B00000F002F800F046F80CA030C80838241808
:1000C0002D18671EA246AB4654465D46AC4201D190
:1000D00000F038F87E460F3EB6460FCC012633427C
:1000E00000D0FB1A3343A246AB4618470C31000040
:1000F0002C310000103A02D378C878C1FAD85207E0
:1001000001D330C830C101D504680C6070470000CD
:100110000023002400250026103A01D378C1FBD823
:10012000520700D330C100D50B60704710B5642969
:1001300002D100F093F810BD002010BD1FB51FBD07
:1001400010B510BD00F012FD1146FFF7F7FF02F0E9
:1001500059F800F02AFD03B4FFF7F2FF03BC00F0EA
:100160007BFD000070B505460C46164602E00FCC3C
:100170000FC5103E102EFAD2082E02D303CC03C5B1
:10018000083E042E07D301CC01C5361F03E02178B9
:100190002970641C6D1C761EF9D270BD074880471B
:1001A00007480047FEE7FEE7FEE7FEE7FEE7FEE75B
:1001B00004480549054A064B70470000611B0008CA
:1001C000B10000080001002000070020000300200B
:1001D000000300200FB41CB50C0007AA009001D04A
:1001E0000019401E084B7B4469460190069800F0B8
:1001F00082FB002C03D06946002000F08FFB1CBC62
:1002000008BC04B0184700003D07000070B5044664
:1002100085690068C10601D5302600E02026C007A8
:1002200007D070BD62683046A1689047206A401CC4
:1002300020626D1EF6D570BD70B5044685690078E4
:10024000C00707D170BD6268A16820209047206A6E
:10025000401C20626D1EF6D570BD0000F7B500256C
:1002600075291068009914A611D0C046C046002810
:1002700002DA404211A608E0009909688A0701D510
:100280000FA602E0490704D50EA6012501E0C046ED
:10029000C046009F0024243704E000F04CFB3031BE
:1002A0003955641C0028F8D12B4632462146009867
:1002B00000F0C4FAFEBD0000000000002D000000A8
:1002C0002B00000020000000F3B50446002081B0A0
:1002D00020622046E168884700287DD0252802D08A
:1002E0006268A16883E0454F00257F442046E168AD
:1002F00088472028064608DB312E06D2B819203858
:100300000078002801D00543F0E7A80701D50420B4
:1003100085430020E0610746A0612A2E0AD03046BE
:1003200002F0A0FC002827D0B8000019303E009051
:10033000866119E00298BA00121902C89161029010
:100340002046E1688847012F064617D1E06900285A
:100350001FDA202085431CE000980A218069484369
:1003600000998019303888612046E1688847064640
:1003700002F078FC0028EFD1012F0AD02E2E08D1F0
:100380002046E16888470646202005437F1C022F4F
:10039000C3DBA069002803DA4042A06101200543C5
:1003A000E80701D010208543002E24D03046413884
:1003B000192803D80120C0020543203620462560B5
:1003C0003146029A1546FFF7B1FE00280CD00128ED
:1003D00007D0ED1DE80800E00DE0C00008300290F5
:1003E00077E72D1D029574E762683046A168904753
:1003F000206A401C6CE7206AFEBD0000122C000041
:10040000F8B5042A2CD3830712D00B78491C03704B
:10041000401C521E83070BD00B78491C0370401CF4
:10042000521E830704D00B78491C0370401C521ED7
:100430008B079B0F05D0C91ADF002023DE1B08C9DC
:100440000AE0FFF78FFEF8BD1D4608C9FD401C46B7
:10045000B4402C4310C0121F042AF5D2F308C91A65
:10046000521EF0D40B78491C0370401C521EEAD473
:100470000B78491C0370401C012AE4D409780170F0
:10048000F8BD01E004C0091F0429FBD28B0701D588
:100490000280801CC90700D00270704700290BD071
:1004A000C30702D00270401C491E022904D38307EF
:1004B00002D50280801C891EE3E70022EEE70022BD
:1004C000DFE70000002203098B422CD3030A8B4292
:1004D00011D300239C464EE003460B433CD400223C
:1004E00043088B4231D303098B421CD3030A8B424E
:1004F00001D394463FE0C3098B4201D3CB01C01A1C
:10050000524183098B4201D38B01C01A52414309E6
:100510008B4201D34B01C01A524103098B4201D3D4
:100520000B01C01A5241C3088B4201D3CB00C01A41
:10053000524183088B4201D38B00C01A52414308B9
:100540008B4201D34B00C01A5241411A00D20146DE
:100550005241104670475DE0CA0F00D04942031077
:1005600000D3404253409C46002203098B422DD3C6
:10057000030A8B4212D38901FC2212BA030A8B426E
:100580000CD3890192118B4208D3890192118B42BD
:1005900004D389013AD0921100E08909C3098B4242
:1005A00001D3CB01C01A524183098B4201D38B0185
:1005B000C01A524143098B4201D34B01C01A524128
:1005C00003098B4201D30B01C01A5241C3088B426D
:1005D00001D3CB00C01A524183088B4201D38B0058
:1005E000C01A5241D9D243088B4201D34B00C01AE2
:1005F0005241411A00D201465241104663465B10F7
:1006000001D34042002B00D54942704763465B103E
:1006100000D3404201B50549002802DC491C0840CE
:1006200000E00846C046C04602BD00BFFFFFFF7F96
:100630007047704770470000F0B5FF252D04C609CC
:10064000C209FF2704462E400137CB093E434840EC
:100650002A402B400746002A6BD0002B69D0AA42C3
:1006600067D0AB4265D0002800DA32460125ED059F
:1006700029432C4309022002090AD21A4B0C7F2479
:10068000E31A434C000A7C44E35C7D2424041219E1
:1006900014145B00A218884201D3521C00E04000F1
:1006A00049420C465C4324115C43DB016415E318AA
:1006B000040A5C43C502200D0C4644436419250A14
:1006C0005D432303EC0C0D46654300030019EB1852
:1006D0004C42A34201D35B18401CD4052018002BC8
:1006E00007D05B00C91804D3401C002901D1400881
:1006F00040003F2189048A4209D3002A08DC110600
:10070000090F04D0032149074018C00FC007F0BDEE
:1007100001224100120689187F2252069142F6D228
:1007200005214907C84201D59010F0BDFF20C00542
:10073000F0BD002F00DA32461648AA4207D2AB427B
:1007400005D21902090E17D0F80FC007F0BDFF251A
:1007500063002D06AB42F9D84900A942F6D8AB4256
:1007600001D1A942F2D0A94201D1002101E06100EA
:100770004908D0050843F0BD1102090EFBD0FF2047
:100780000243D005F0BD0A460146104654E700007A
:10079000872800000000C07F0102C21504D0012399
:1007A000DB071943002A0ADB9E239A1A02D4084663
:1007B000D0407047FF2241001206914201D900202B
:1007C0007047C017C04370471F22030C02D10F228D
:1007D00000041CD0030E01D10002083A030F01D11E
:1007E0000001121F830F01D18000921E002801DB3F
:1007F0004000521ED2055118021251181922904081
:1008000004D3491C002801D1490849000846704713
:10081000C10FC90700D04042012292071143D3E71C
:1008200001218907D0E710B500F066F9006810BD16
:1008300010B5044600F060F9046010BDFFB5044631
:100840000D4681B0243000902168880604D510221E
:10085000E0699143216000E00120A84201DD471BCF
:1008600000E000270498A1697A191018081AA061FD
:100870002078C00602D42046FFF7C8FC002608E016
:1008800003986268A168805D9047206A401C761CCE
:10089000206204988642F3DB2078C0060AD5204601
:1008A000FFF7B4FC06E06268A16830209047206A38
:1008B000401C206238467F1E0028F4DC07E00098C8
:1008C0006268A168405D9047206A401C206228460B
:1008D0006D1E0028F3DC2046FFF7AEFC20780006F2
:1008E00002D5022005B0F0BD0120FBE701694A1CDA
:1008F00002610878704700B58FB002910021059120
:100900000549019379440391114604906846FFF725
:10091000DBFC0FB000BD0000E5FFFFFF0A681070B0
:10092000521C0A6070470CC908399A4202D2531C03
:100930000B601070704701468008081A02091018F1
:10094000020A1018020C1018C00882001218520077
:10095000891A01E0401C0A390A29FBD270470000BD
:10096000F0B5FF22C30D14469C43C30FDB07002CD8
:1009700068D0CC0DA24365D0FF242404CD092540C6
:100980002E46002801DA05221543C20922406AD00A
:10099000254268D00124E40700020B02E70BE91BA3
:1009A000204323430225012609E0A943A04204D3A2
:1009B0002943C01A01D5404271404000D21B8A42EF
:1009C000F3DC14140D14AC4207DB984205D39842B3
:1009D0002BD05B00C01A40427140B0402AD20028A0
:1009E00026DB1ED020240346050C01D010242B4604
:1009F0001D0A01D02B46083C1D0901D02B46241F9F
:100A00009D0801D02B46A41E5D0801D0A41E00E065
:100A1000E41A641CA0402304D21A002A0CDCC80784
:100A2000F0BD4807C00FC007F0BD8C07D5D5D0E793
:100A30004000D21B002AF2DDD201430A1343C8074B
:100A40001843F0BDFF221206490091420FD8410021
:100A5000144691420BD8A14209D052429142F0D2A1
:100A60004100EED001E0002E01D01846F0BD014853
:100A7000F0BD00000000C07FC10D10B50906090ED1
:100A80002ED0FF2931D07E292DD319D0962916D208
:100A9000024675398A4005D0002402468A4003D3B5
:100AA000012302E00124F8E700230222CA41511E7B
:100AB0008843002B03D08018002C00D0904310BD39
:100AC0000121420201D1012200E00022C00FC00733
:100AD0000029F4D0002AF2D17F21C905084310BDB6
:100AE000C00FC00710BD0021EFE74102FAD0014856
:100AF00010BD00000000C07F0048704718000020B3
:100B000010B5FF231B0644009C421DD84C009C429C
:100B10001AD80346124A0B4307D4401A02D3EFF304
:100B2000008010BDEFF3008010BD081A03D3EFF36F
:100B30000080904305E0EFF3008001219043C90756
:100B4000084380F3008810BD0D231B041A4204D013
:100B50001146002000F031F810BD00F045F810BD3E
:100B60000000009000487047180000207546FFF70D
:100B7000F9FFAE46050069465346C008C0008546E9
:100B800018B020B5FFF714FB60BCB646002600275E
:100B9000C0C5C0C5C0C5C0C5C0C5C0C5C0C5C0C52D
:100BA000403D490849008D46704710B50446C0468F
:100BB000C0462046FFF7CFFA10BDC80212D5480341
:100BC000400F002804D0C803C0430121884070476B
:100BD000EFF300800001000903210907084380F3B7
:100BE000008870470020704710B5024800F004F8F4
:100BF00010BD00000000C07F10B50C461107090FA2
:100C0000092904D00A290AD008290CD104E0114688
:100C10000820FFF7D2FF06E0510606D501E0510695
:100C200001D50120C007214610BDD10607D501011D
:100C30000909CC084907000E0006044309E0410FEA
:100C400020024907000A0143200E00061D22D1415F
:100C500001430846E7E7000001491820ABBEFEE764
:100C600026000200704700214160C160704710B546
:100C70000C460146D3B2A020224601F087F910BDF0
:100C800010B50C460146D3B2A020224601F0B2F9BD
:100C900010BD70B50446E1200501E66830462946DE
:100CA000FFF710FCA0804543761BB0B23C252946D7
:100CB000FFF708FCA0714543701BE07170BD000098
:100CC00070B5044601780C48FFF7FCFB0546A060B0
:100CD000E120060128463146FFF7F4FB60804643D9
:100CE000AE1BB0B23C252946FFF7ECFB2071454313
:100CF000701B607170BDC04680C6130070B504469D
:100D0000E1200501A66830462946FFF7DBFB20807D
:100D10004543761BB0B23C252946FFF7D3FBA070B4
:100D20004543701BE07070BD054800687047C046C1
:100D30001A48007802490A68101808607047C046CF
:100D4000F800002080B5AF48016810220A43026015
:100D5000032000F005F800F025F8002080BDC04613
:100D6000B0B504467D20C0000C490978FFF7AAFB06
:100D70000146A7480068FFF7A5FB00F065FB0125C9
:100D8000032C09D8002807D10025E84321462A462C
:100D900000F01EF8024804602846B0BD0C00002098
:100DA0001000002082B0094801680122114301604F
:100DB0000168114001910199110742680A4342609C
:100DC000406808400090009802B070471810024038
:100DD000002805D40322034693430C4A9A1806E0E0
:100DE0000F220240083A03239A43074BD218800788
:100DF000C00E8901C9B28140FF2383401068984327
:100E0000084310607047C0461CED00E000E400E0BD
:100E1000F0B585B004468078C007384B4AD0012031
:100E20000390010718680840029006D1186808432B
:100E3000186018680840049004980191304E30689A
:100E4000C00511D403980702306838433060FFF7BB
:100E50006BFF05463068384206D1FFF765FF401B3F
:100E60006428F7D9032537E003252802234B596866
:100E7000014012D06268024091420ED003980004F3
:100E800059685A6802435A605A6882435A60084651
:100E90001C4A10405860C80721D1586819490840B9
:100EA0006168014359600298002803D118680199CC
:100EB000884318602068C10705D05969032291430F
:100EC000A2680A435A610025800605D55869102199
:100ED0008843E16801435961284605B0F0BDFFF73A
:100EE00023FF0646484F054B58688007D5D4FFF7C7
:100EF0001BFF801BB842F6D9EEE7C0461C1002402B
:100F000000700040FFFCFFFFF0B581B000284CD01E
:100F100004463C4A1368012003408B4208D2136800
:100F20000126B3430B431360126832408A4266D1F4
:100F3000009121688A070ED54A0705D507221202BB
:100F4000424D2B6813432B60404D2A68F0239A438F
:100F5000A36813432B60C90729D12A4908680126D1
:100F60003040009A904205D90868B043086008688C
:100F7000C00744D12078400707D507200002334A34
:100F800011688143E0680843106000F043F82F497E
:100F900009680906090F1D4A515CC8401C490860D0
:100FA0000320FFF7DDFE002629E0012627E0616827
:100FB000264A121F022904D0012905D11268920382
:100FC00004E01268920101E012689207064616D505
:100FD0001E4A10680326B04308431060FFF7A4FEC2
:100FE0000746094D194800680C21014060688000DF
:100FF0008142B2D0FFF798FEC01BA842F2D930461A
:1010000001B0F0BD0020024088130000512F0008FD
:101010000000002010B50D490A680C2313400C484D
:10102000082B08D193021B0F0AA4E45C896AD2033F
:1010300003D4104807E0044606E00F22114009A23D
:10104000515CFFF73FFA4443204610BD04100240B4
:1010500000127A0002030405060708090A0B0C0DAA
:101060000E0F10100102030405060708090A0B0CF5
:101070000D0E0F1000093D00F0B587B004460120A9
:10108000002C00D197E104902078C007EB4E059426
:1010900025D071680C20014004291AD071680140E4
:1010A000082902D17068C00313D461680120470485
:1010B000002900D12AE1052900D13EE1012900D112
:1010C0003FE1010432688A4332608104306888431A
:1010D0003AE13068800302D5606800282ED020787D
:1010E000800744D570680007800F07D070680C2116
:1010F000014008290ED17068C0030BD43068800706
:10110000059A02D5D068012818D13068F8218843A3
:10111000116929E03068059CE168002910D001219F
:1011200008433060FFF700FE05463068800717D49B
:10113000FFF7FAFD401B0228F7D912E104983AE1C3
:10114000012188433060FFF7EFFD054630688007D6
:101150000DD5FFF7E9FD411B03200229F6D92AE14D
:101160003068F82188432169C90001433160059C3A
:101170002078000722D42078400732D42078C00697
:1011800000D4F8E0059A5069411D6ED0012875D150
:10119000706B042101437163706B01210143716322
:1011A000FFF7C2FD0546706B800700D5DBE0FFF757
:1011B000BBFD411B03200229F5D9FCE0706AE169FF
:1011C000002943D0012108437062FFF7ADFD0546B9
:1011D000706A8007CFD4FFF7A7FD401B0228F7D91C
:1011E000BFE0012003900107F0690840029006D19A
:1011F000F0690843F061F069084006900698019193
:101200008F4F3868C00510D4039804023868204313
:101210003860FFF789FD05463868204205D1FFF7A1
:1012200083FD401B6428F7D99BE005988068854FB3
:10123000002838D005284BD001284DD0306A0399BA
:1012400088433062306A0421884348E001218843A2
:101250007062FFF769FD0546706A80078BD5FFF75E
:1012600063FD401B0228F7D97BE0706B04218843A3
:101270007063706BF8218843916979E0706B042189
:1012800001437163706B012188437063FFF74CFD6C
:101290000546706B80076ED5FFF746FD411B0320A6
:1012A0000229F6D987E0306A039988433062306AB0
:1012B000042188433062FFF737FD0546306A800716
:1012C0001AD5FFF731FD411B0320B942F6D972E070
:1012D000306A042101433162306A03990843306265
:1012E000FFF722FD0546306A800705D4FFF71CFD95
:1012F000401BB842F7D934E002980028059C00D082
:101300003CE7F06901998843F06137E701043268EE
:101310008A4332608004316881433160FFF704FD05
:101320000546059C3068384200D1D8E6FFF7FCFC42
:10133000411B03206429F5D93DE0810432680A434A
:1013400032600104306808433060FFF7EDFC054669
:101350003068384200D0C2E6FFF7E6FC401B642844
:10136000F6D9032027E0706BF82188430599896935
:10137000C900014371630598046A002C1AD0706893
:101380000C210140082918D1012C049813D0012008
:10139000030471680B40F26A059D6C6AA3420AD18E
:1013A0000F231A40EC6AA24205D19A041140AA6A9E
:1013B000914200D1002007B0F0BD01200206316843
:1013C0000492914331604706FFF7AEFC0546022CBC
:1013D0000AD1049C3068384210D0FFF7A5FC411BAD
:1013E00003200229F6D9E6E730683842E2D0FFF759
:1013F0009BFC411B03200229F6D9DCE7F06A0F2190
:101400008843059AD16A0143F1623D200004716866
:101410008143906A0843516A0143716030682043F8
:101420003060FFF781FC044630683842C2D1FFF7D4
:101430007BFC011B03200229F6D9BCE70010024007
:101440000070004088130000401E010E01D00120F2
:1014500070470749074A5060074803680B4003215B
:1014600089075918016000209060072111607047BA
:10147000FFFFFF0010E000E020ED00E0FEE7704716
:10148000F0B582B00E460C68002C43D000220096C6
:1014900001239340234037D01C465C4371682646A5
:1014A0004E43032767430568BD4335430560FE434C
:1014B00001914D1E012D06D8009DAD6865438768DA
:1014C00037402F4387603146009E35696543C768C2
:1014D0000F402F43C7600199022915D17569FF2B71
:1014E00008D8644365430F216143036A8B432B4350
:1014F000036209E0190A494349434D430F234B4313
:10150000416A994329434162521C34682346D340BF
:10151000BED100E000247168491E012905D8F16898
:1015200061434268A2430A434260002002B0F0BD1A
:10153000F0B503680122934303608B68CC682402F2
:101540001C431F231B0205689D43254305604B6810
:10155000036103681343036084680F4B1C4084607D
:101560000C698D69254386680C4F37402F4387608F
:10157000002C03D0D2038468144384600322120534
:10158000046894430A682243026042681A40496929
:10159000114341600020F0BDFF7FFFFF00F8FFFF17
:1015A00010B504681B4A904202D0E04B984204D127
:1015B00070239C434B68234300E02346164CA04213
:1015C00006DD90420AD0154CA04207D0144C03E02F
:1015D000D64CA04202D0134CA04219D103242402BD
:1015E000A343CC681C4304608B68C3620B8883628E
:1015F000904205D0094A904202D0094A904201D156
:10160000097C0163416901220A434261002010BD47
:101610001C46E8E7002C0140FF2B01400048014038
:101620000044014000200040F0B58DB000240B9430
:101630000A9409940894012081050346BA48026877
:101640000A43026002680A400C920C99590402682D
:101650000A43026002680A400C920C9999040593AF
:1016600002680A430260006808400C900C98092048
:10167000C50610210191A96220210291A962049559
:101680002A48022787620A9707940693284806AEDD
:101690003146FFF7F5FE0A9707940697244831462E
:1016A000FFF7EEFE0A970794059806902846314604
:1016B000FFF7E6FE0A970794069728463146FFF79C
:1016C000DFFE0A9707940420069028463146FFF76C
:1016D000D7FE0A9707940820069028463146FFF760
:1016E000CFFE0A970994032003900890059D079563
:1016F0000198069004983146FFF7C2FE0A970994B4
:101700000398089007950298069004983146FFF7D1
:10171000B7FE0A970994039808900795069703481F
:101720003146FFF7ADFE0DB0F0BDC04600040048E5
:1017300000140048F0B595B00DA805901C21FEF7E7
:10174000BEFE012779040491774A106808431060AF
:10175000106808401490042002900C90002006901D
:101760000B900A9703200190099002240894149882
:101770007802039007900920C50607AE2846314637
:10178000FFF77EFE02980C9006980B900A9701983E
:1017900009900894B802079028463146FFF770FE7A
:1017A0007805614A91680143916091680140149104
:1017B0001498FF20000616490A6882430A60F8055B
:1017C00014490860F803144DE9688143E960F8049E
:1017D0002968814329602868049988432860039810
:1017E0000B300E9006980D90059C20460830142171
:1017F000FEF765FE28462146FFF79AFE78066968DF
:1018000001436960E86805490140E96015B0F0BD31
:1018100014E400E000E100E00054004001F8FFFFA4
:10182000F0B591B00BA802901421FEF748FE3E4897
:1018300081680224214381608168214005910599D6
:101840000127790402680A4302600068084010908A
:101850000A970994002004900890032003900790B1
:1018600006944020059010980920C50605AE28462C
:101870003146FFF705FE0A970994049808900398EB
:101880000790069480200190059028463146FFF786
:10189000F7FD264DA868384306218843A860A8694B
:1018A0003843A043A861A86904210143082081436B
:1018B000A961A86910210143E0208143A961286A38
:1018C0000A2188432862039A1002A96981433802D9
:1018D0000818A8619002A9698143B8020818A86194
:1018E0000F200003A969814378030818A861286ABA
:1018F000A021884328620299049808800E9002462D
:101900000B480D900C922846FFF74AFE0198C04301
:101910002968014029606968702291436960A9685B
:101920000140A96011B0F0BD141002400004004055
:10193000FFFF000010B5002282608280034B03602D
:101940000B78F9241C400C70C26010BD020200002C
:1019500070B50446E1200501A66830462946FEF729
:10196000B1FD60804543761BB0B23C252946FEF7A9
:10197000A9FD20714543701B607170BD0A78F92381
:1019800013400B700021C1607047FEE7704701787B
:101990004170704770473C2181600121090401605A
:1019A000704703214156022282563C235343591863
:1019B000E1221201038853435918816070470000E7
:1019C000F0B581B01D4600920C460746084600F06F
:1019D000CBFA384600F046FF00F000FE324E308071
:1019E000052806D03846214600F0E0FE00F0F6FD5E
:1019F000F5E73846FFF764F938787870009829469B
:101A000000F0D9F8134938460F4629463A4601F006
:101A1000AAF801200B222946FFF732F92068A060BE
:101A200000F062FE00F0DAFD30803088042802D039
:101A300030880128F6D13088042801D1042003E041
:101A40003088012803D1022039780143397001B070
:101A5000F0BDC046EF000020F0B581B016460D463F
:101A60000446084600F0CAFEA068206000F0B6FDFB
:101A70000D4F3880052806D02846214600F06CFE20
:101A800000F0ACFDF5E72846314600F094F801205F
:101A900004223146FFF7F4F8284600F023F92068C5
:101AA000A06001B0F0BDC046D600002080B504495A
:101AB000086004490968002900D0884780BDC046F5
:101AC000940000209000002080B5FFF731F9024813
:101AD0000068FFF7EBFF80BDF800002070B594B000
:101AE00008AC201D1C21FEF7EAFC00250795069591
:101AF0000595049513950520C004129011950226B2
:101B0000109610200C9001200B90089603950295DA
:101B1000019500952046FFF7AFFA002803D0EFF3B8
:101B2000108072B6FEE7079506950596072004908B
:101B300004A80121FFF7E8F9002803D0EFF3108093
:101B400072B6FEE70395202000906846FFF760F923
:101B5000002803D0EFF3108072B6FEE714B070BD1A
:101B60007047000006480169C90707D00121CA4330
:101B70000261044B19700168114001607047C04652
:101B800000440140D40000200A7812064B781B0460
:101B90009A188B781B02D218CB78D21882600A79F7
:101BA00012064B791B049A188B791B02D218C9793B
:101BB0005118C1607047C27A0A7042894A708268BF
:101BC000120A8A708268CA70C27B0A71C2894A711D
:101BD000C268120A8A71C068C8717047F0B581B0D6
:101BE0000E4604468068FEF71BFE314601F041F8C0
:101BF0003146FEF721FD0146E06801F051F8054647
:101C0000E060A068FEF70CFE3146FEF715FD01F01E
:101C100042F8324901F0B4F8FEF7BEFD06467F20D7
:101C2000C7052846394601F012F8002803D02820BD
:101C300000902B4F08E02A49284600F0FDFF0028BD
:101C400009D12720C04300902846394601F028F8E2
:101C5000E06000988619304601B0F0BDF0B581B063
:101C60000E4604468068FEF7DBFD314601F001F8C0
:101C70003146FEF7E1FC0146206901F011F8054606
:101C80002061A068FEF7CCFD3146FEF7D5FC01F0DF
:101C900002F8124901F074F8FEF77EFD06467F2037
:101CA000C7052846394600F0D2FF002803D0282077
:101CB00000900B4F08E00A49284600F0BDFF0028BD
:101CC00009D12720C04300902846394600F0E8FF9C
:101CD000206100988619304601B0F0BD0000204216
:101CE000000080BFF0B583B00546062028560721C6
:101CF0006956AB88009001913A4C1426134A20464D
:101D00003146FEF767FA3D4801783D4F38780123A8
:101D1000224600F07DFE02202856032169562B88BA
:101D20000090019120463146084AFEF753FA387870
:101D300032490978491CC9B200F006FE414800F05A
:101D400083F8204600F07AFE03B0F0BDE4310008CD
:101D5000F0B583B00D460446037840780090214EDC
:101D6000142121A23046FEF735FA24480178244F89
:101D700038780123324600F04BFE297888070DD4CD
:101D8000052020560422A256638849071B4C13D411
:101D9000009201901348142124A212E0042020563E
:101DA000052161566388009001910E48142115A207
:101DB000FEF710FA114C06E0009201900948142138
:101DC00015A2FEF707FA38782178491CC9B200F04D
:101DD000BBFD1C4800F038F8024800F02FFE03B0AD
:101DE000F0BDC0467C0000207365743D253033642F
:101DF000402072656D3D253033644000D8000020DE
:101E000004000020253033642A2025303264272046
:101E100025303264223C2D00253033642A202530C1
:101E20003264272025303264222D3E002530336471
:101E30002A2025303264272025303264223C2D3E72
:101E400000000000B80B00000849C8620120C2432E
:101E50000A6100224A620A6802430A600A69D207DC
:101E6000FCD00A6882430A607047C04600200040E8
:101E7000F0B581B00D460090424800684249081A0A
:101E800081B2C90B401800B24610EE60AF68B7428D
:101E900051D0AE60F41B4ED02046133026284AD8CD
:101EA0000098FFF77EFD012C19DB287C002834D137
:101EB000641CD34D009E29683046FFF7CFFE0146D3
:101EC000012000F0F9FD641E012CF4DCB068F1681B
:101ED0004018AE4988421CD91849401819E0002C16
:101EE0001BD5287C002818D1BC1BC54D009E296835
:101EF0003046FFF7B3FE0146002000F0DDFD641E12
:101F0000F5D1B068F168814202D2A04A8918491C13
:101F1000081AF0603046FEF7BCFEAB4D009C204630
:101F20002946FFF748FE012008222946FEF7A8FEB1
:101F30002046FFF7D7FE01B0F0BDC0468039ECFF68
:101F4000074808494162016A012211430162016A9E
:101F500010230B4303620168114301607047C046C0
:101F600000040040FF7F000006490968064A511A34
:101F70008AB2D20B891809B24910016041608160B0
:101F80007047C046240400400080FFFFF0B55B4C62
:101F900025685B4E35402D18144FED192560656995
:101FA000ED07FCD0002565626769FF07FCD0C9B268
:101FB0006162190408182168314001430C48084344
:101FC0002060002B07D060694007FCD5206A50557F
:101FD0006D1C9D42F7D101208003216801432160DF
:101FE000A06920210143A161F0BDC046002002810B
:101FF0000024008070B581B06D4669700C0A2C70A9
:102000003E490D683E4E2E401D0428188019144D7F
:102010004019086048698007FCD50020E4B24C6292
:102020004C69E407FCD0401C022802D06C46245CBA
:10203000F4E7002B08D00020145C4C624C69E407E4
:10204000FCD0401C9842F7D1012080030A6802436B
:102050000A608869202202438A6101B070BDC046CF
:102060000020028070B5254C2568254E2E401D04A9
:1020700028188019234D4019206060698007FCD51D
:1020800061626069C007FCD0002B08D00020115CA1
:1020900061626169C907FCD0401C9842F7D10120F8
:1020A0008003216801432160A06920210143A161CF
:1020B00070BDC046B0B5114B1C68114D25401404CD
:1020C000201840190F4C001918605869C007FCD03F
:1020D000002A08D000200C5C5C625C69E407FCD03C
:1020E000401C9042F7D10120800319680143196018
:1020F0009869202101439961B0BDC0460454004055
:102100000080007C00200180F0B581B01F4614469D
:102110000D46064601200E221946FEF7A8FD284668
:102120003946FFF731FD30463946224600F014FDAE
:102130001648471CE968B94202D8A968814205D906
:102140002846FFF728FC2846FEF78DFD2846FEF7B7
:10215000D5FD2846FEF79DFD3046FEF7B1FDB0687F
:10216000B84203D930462146FFF7E4FB3046FFF77B
:10217000EFFB2078C00703D12846FFF7B3FD03E04B
:1021800030462146FFF7E4FD01B0F0BD7FC61300E5
:10219000B0B50446F7480168E06800F0CDFC0146A0
:1021A0000025284600F088FCE5602046FEF771FD1A
:1021B000E14D20462946FFF7FEFC01200822294672
:1021C000FEF75EFDB0BDC046B0000020B0B50546CC
:1021D0004078002813D00C46401E6870E54801681E
:1021E0002846FFF7FBFC0146002000F065FCE06894
:1021F000A968884201D2E04A8018401AE060B0BD68
:1022000008000020FEF79EFDFFF768FCFFF70CFAC0
:10221000FFF706FBFFF78EFAFFF792FE00F0AAFC2D
:1022200000F0A4FB8448FFF70FFE8448844D854EE0
:10223000C14B29463246FFF767FF83480221016000
:10224000DB48102101608148FFF7FEFD804F00F060
:10225000C5F93880002800D1E4E039883078491E7B
:10226000C2071FD1072930D87944097949008F4422
:10227000D6032FD63F42D657284600F003F900F088
:10228000ADF938800028FAD03888042800D1BBE0A6
:10229000022800D1BEE0012800D0BEE02846FFF7AA
:1022A00077FFB4E0072910D87944097949008F44B1
:1022B0000349A65A6268A67F800700D4B2E05F4C4B
:1022C00020462946FFF782FF66E000203880A9E01B
:1022D000002028612846FEF7C6FC2846964C214679
:1022E000FFF769FC012008222146FEF7C9FC96E0B1
:1022F0000020286104E0002028612846FFF74BFBFE
:10230000544829468C4C2246FFF7A6FB2846214616
:10231000FFF751FC012004222146FEF7B1FC81E0C9
:10232000464D01242043307045488349FFF743FC64
:1023300028468149324600F016FC0B2220462C46E6
:102340003F4D30E0284600F09DF800F047F9388016
:102350000028FAD03888042843D001284DD12846D7
:10236000FFF716FF40E040075CD5344C2046294675
:1023700000F0E4F810E0314C20463146FFF7FEFA59
:1023800004E02E4C20463146FFF7D4FA204631496E
:102390002A46694BFFF714FB20466749324600F096
:1023A000E2FB01200B226449FEF76AFC204627E08D
:1023B000FE210840307028465F4C2146FFF7FBFBAA
:1023C0001E482146324600F0CEFB01200B2221465A
:1023D000FEF756FC2846FEF75CFC1E48FFF7C4FDDE
:1023E0001DE0284600F08AF8144C2046FFF7CFFA8B
:1023F00020463146FFF7C2FA01E0002038800F483E
:102400003146FFF7A5FC0DE0284600F077F80020E4
:10241000286104E000F020F801E000203880284620
:10242000FFF760FC3078C00700D010E72846094964
:10243000FFF71EFD0BE7C04688130000DC000020FC
:102440009C000020EF000020280400481027000016
:10245000D6000020C000002080B50120014900F016
:102460002BFB80BD00350C0040000549C8620020F0
:1024700048620120C2430A610A6802430A60704749
:102480000044014070B582B00621415607228256B1
:10249000838800910192124C1421124A2046FDF7C4
:1024A00099FE114D2978114E30780123224600F013
:1024B000AFFA0FA021460CC80CC102880A808078B0
:1024C000887030782978491CC9B200F03DFAE44898
:1024D000FFF7BAFC204600F0B1FA02B070BDC0466A
:1024E0007C000020E4310008D80000200400002017
:1024F0003C2D2070757368202D3E000070B5044699
:10250000C0681D49081A1B49096800F015FB0146FF
:102510000125284600F0D0FA0020E0602046FEF7B2
:10252000B8FB054E20463146FFF745FB08222846FA
:102530003146FEF7A5FB70BDB0000020B0B50546E2
:102540004078002815D00C46401E68700948016884
:102550002846FFF743FB0146012000F0ADFAE06892
:10256000A9680818E0600449884202D3034940186A
:10257000E060B0BD0800002080C613008039ECFF89
:10258000F0B581B0002810D0074600261024084975
:102590000C6104252846FFF757FC054804602846CF
:1025A000FFF752FC761CBE42F0D301B0F0BDC0462E
:1025B0001800004847490A68012052070CD40A68ED
:1025C000920709D40A68D20706D10968090703D41B
:1025D00042480168012008407047C04670B53C4D34
:1025E000287800281FD13B480168490711D40168A9
:1025F000890713D40168C90756D10068000761D460
:1026000036480068C0070ED00120287032480721E4
:1026100008E0012028703048042103E001202870E0
:102620002D48022101802878012804D13220FFF7AB
:102630001BFF022028702A4E3078297802290FD1FA
:1026400001280DD100243470FFF7B4FF00281AD000
:102650006420FFF709FF23480470032028703078B6
:102660002978002403292BD1012829D10024347092
:10267000FFF7A0FF002808D01A480178042909D8DC
:10268000491C017019E02C701AE0002028701248D3
:10269000048815E01048018807290AD005290AD0C6
:1026A00002290AD1032107E0012028700A49088085
:1026B000B9E7082100E0062101806420FFF7D4FE7D
:1026C000204670BD0120287003480521AAE7C046B6
:1026D000EE00002010000048EC000020101400481C
:1026E000D400002098000020F0B581B00FA0134C5A
:1026F00021466CC86CC112480178124E3078012313
:10270000224600F085F910A02146ACC8ACC1307853
:102710000B490978491CC9B200F016F9C648FFF701
:1027200093FB204600F08AF901B0F0BD73656C653B
:10273000637420726F746174696F6E007C00002096
:10274000D8000020040000203C2D707573682062C2
:102750007574746F6E2D3E0010B5044625480068F0
:10276000254A101A82B2D20B801800B2401048607D
:102770000A68824217D00860811A14D008461330C4
:10278000262810D83C204143A2685118A1603C295A
:1027900002D30548814200D9A0602046FEF7AEFA78
:1027A000204600F02BF810BD7FC6130080B5114AFB
:1027B0001268114B9A1A93B2DB0BD21812B2521054
:1027C0004A600B68934214D00A60D11A11D00A46AD
:1027D0001332262A0DD8027851180170C9B2FF2988
:1027E00003D0012903D8FE2100E00221017000F08E
:1027F00039F880BD240400400080FFFFF0B583B0AD
:10280000054613A02C4C21464CC84CC12B4E3178A8
:102810002B4F38780123224600F0FAF80220285680
:10282000032169562B880090019114210B4A204600
:10283000FDF7D0FC38783178491CC9B200F084F833
:102840007D48FFF701FB204600F0F8F803B0F0BD2B
:102850007365747570206D6F64653100E431000834
:10286000B80B0000F0B581B0054610A0124C21460F
:102870004CC84CC1114E3178114F38780123224693
:1028800000F0C6F82B7814210EA22046FDF7A2FC1A
:1028900038783178491CC9B200F056F86648FFF71D
:1028A000D3FA204600F0CAF801B0F0BD7365747524
:1028B00070206D6F646532007C000020D80000201D
:1028C000040000202530336440000000F0B583B0E0
:1028D0006E4800250570B02000F0DAF8284600F0B8
:1028E000D7F8102000F0D4F86648A0300190664E6A
:1028F00000952F4602950524304601992246FDF7A2
:102900007FFD029870710621304600F0CDF85F4AD5
:1029100010780830C1B2802900D8044614707F1C9A
:10292000B8B2812807D30098401C0090C1B200279C
:10293000384600F009F8681C02498D420546DAD392
:1029400003B0F0BDFF01000010B504464F4804700D
:102950005039C8B200F09CF80F20204000F098F8E1
:102960002009103000F094F810BDC04610B5AE201C
:1029700000F08EF8202000F08BF80024204600F0B4
:1029800087F8B02000F084F8C82000F081F82046D5
:1029900000F07EF8102000F07BF8402000F078F87E
:1029A000812000F075F8FF2000F072F8A12000F0FF
:1029B0006FF8A62000F06CF8A82000F069F81F203E
:1029C00000F066F8A42000F063F8D32000F060F86F
:1029D000204600F05DF8D52000F05AF8F02000F015
:1029E00057F8D92000F054F8222000F051F8DA20EE
:1029F00000F04EF8122000F04BF8DB2000F048F811
:102A0000022000F045F8AF2000F042F810BD0000B1
:102A100070B514460D460646002B01D0FFF756FF51
:102A200030462946FFF790FF0348FFF70DFA20468E
:102A300000F004F870BDC046B80B0000F0B581B0DE
:102A4000017800291CD0471C0F4C104E0525694306
:102A50000C48411820462A46FDF7D2FC0020607140
:102A60000621204600F020F830780830C1B28029D5
:102A700000D805463570781C397800290746E5D11D
:102A800001B0F0BD642F0008F200002078000020A3
:102A900080B5044948700020087078200222FFF7B2
:102AA00009FB80BDF000002080B50246CBB2782043
:102AB0004021FFF7D7FA80BDF0B583B00D461B4922
:102AC000002800D11031202008600620FFF7BCF953
:102AD000642128460191FDF7F5FC0646144C029549
:102AE000642D0FD30025022727600520FFF7ACF9DE
:102AF0006420FFF745FD27610E48FFF7A5F96D1C1F
:102B0000B542F0D3019971430298461A0CD00227BE
:102B1000276005252846FFF797F9F0B2FFF730FD4B
:102B200027612846FFF790F903B0F0BD1800004870
:102B300018040048DC05000010B50C46FDF770FED7
:102B40002146FDF779FD034900F01AF9FDF724FE4F
:102B500010BDC046000020420B7A43704B7A0370D0
:102B6000887A1070704743780B720078487210783A
:102B700088727047F0B589B003AD142101912846E1
:102B8000FDF79DFC01273802244A5168014351603A
:102B90002F21298051680140089100240694049453
:102BA0000898FF20029005901D4E30462946FEF7FA
:102BB000F7FC8020C143009130680840306003ADCD
:102BC00028460199FDF77BFC7804144A11680143FB
:102BD00011602C74134929801168014008910694F2
:102BE0001148059004940898104C20462946FEF799
:102BF000D7FC2068009908402060F8432061E06815
:102C00003843E0600298000209490A6882430A607A
:102C100078050849086009B0F0BDC04618100240A8
:102C200000200040BF5D0000FFFF000000440140A5
:102C300014E400E000E100E010B500F077F8EFF3F5
:102C40000080800001D5012010BD002010BD10B50E
:102C500000F06CF8EFF300804000800F012800D0F6
:102C6000002010BD30380A2801D201207047002012
:102C7000704770B50546C80DC04300060C46000EEF
:102C800004D0600002D10120FDF7D2FD2146284684
:102C9000FDF766FE70BD10B5FDF7EEFE10BD00003D
:102CA00070B50125ED0704004C4020D4441A01D230
:102CB000001B0919C60D4B00F2B2FF2A29D01B0ECA
:102CC0002CD000020C0228432C43D31ADC400519F7
:102CD00010D2280A02D3401C6D0611D0761EF605CC
:102CE0008019FF2A00DA70BDC00DC00570BD6940B3
:102CF00000F0A4F801200543C541521C761CE8E70A
:102D000064089C40C90161408900E7D10124A043C7
:102D1000E4E71B0E440200D0034870BD002AFCD13A
:102D2000C00FC00770BD00BF0000C07F0123DB05DE
:102D300002000A430DD4DA4203D49A4207D48842EF
:102D40007047D84214D4D94212D488427047804286
:102D50007047DA4203D59A42F9D5814270475B0049
:102D60004200DA4204D24A00DA4201D2814270477C
:102D700010B5024AFDF7C4FE10BD00BF09001304E0
:102D800070B5420064414B005C41120E39D01B0EFD
:102D900038D0FF2A3CD0FF2B3AD0D2187F3A4002DD
:102DA0004902400A490A4518ED0106004E43000A4F
:102DB000090A48430104731A4019190C4318990F62
:102DC00004D05B08012149075B1A521CD80904D3BF
:102DD000401CF50301D19D0607D0FF2A08D2D50576
:102DE00006D0E4072043401970BD0125A843F4E74D
:102DF000002A01DCE00770BD2402FF202043C0054B
:102E000070BD1B0EFF2A03D0FF2B01D0E00770BD61
:102E1000FF2636064500B54206D84D00B54203D818
:102E2000D218FF2A00D0E7E7004870BD0000C07F3D
:102E300070B50125ED0704004C4022D4441A02D29B
:102E40006C40001B0919C60D4B00F2B2FF2A4BD093
:102E50001B0E50D000020C02A8432C43D31ADC40B6
:102E6000051B05D5AD0019D36D08761E521E37D04F
:102E7000F605280A01D2801970BD70416D0603D095
:102E800070BD6940FFF712FF9C4009026140490094
:102E900001D0401E70BD0124A04370BD6D081DD03F
:102EA00001202B0C01D12D0410302B0E01D12D024D
:102EB00008302B0F01D12D01001DAB0F01D1AD004A
:102EC000801CEB0F01D16D00401C361A121A6D00E8
:102ED000680AF5054019012A02DB70BD002070BDAB
:102EE000C036300AC00770BD1B0E440201D1FF2B53
:102EF00000D1024870BD002AF0D070BD0000C07F34
:102F000004000008000000000000000200010000B2
:102F1000108182838485868788898B8C8D8E8F91A2
:102F20009293959697999A9C9D9FA0A2A3A5A7A8D6
:102F3000AAACAEB0B2B3B5B7B9BCBEC0C2C5C7C902
:102F4000CCCED1D4D7D9DCDFE2E6E9ECF0F3F7FA66
:102F5000FE00000000000000000102030406070854
:102F600009000000000000000000005F00000007F2
:102F7000000700147F147F14242A7F2A12231308C9
:102F8000646236495522500005030000001C2241AE
:102F9000000041221C0014083E081408083E0808DE
:102FA0000050300000080808080800606000002099
:102FB00010080402000000000000005F000000078D
:102FC000000700147F147F14242A7F2A1223130879
:102FD000646236495522500005030000001C22415E
:102FE000000041221C0014083E081408083E08088E
:102FF0000050300000080808080800606000002049
:1030000010080402000000000000005F000000073C
:10301000000700147F147F14242A7F2A1223130828
:10302000646236495522500005030000001C22410D
:10303000000041221C0014083E081408083E08083D
:1030400000503000000808080808006060000020F8
:10305000100804023E5149453E00427F4000426153
:103060005149462141454B311814127F10274545DF
:1030700045393C4A494930017109050336494949F6
:1030800036064949291E0036360000005636000033
:1030900008142241001414141414004122140802CC
:1030A00001510906324979413E7E1111117E7F4955
:1030B0004949363E414141227F4141221C7F4949D5
:1030C00049417F090909013E4149497A7F080808B9
:1030D0007F00417F41002040413F017F0814224191
:1030E0007F404040407F020C027F7F0408107F3EFB
:1030F0004141413E7F090909063E4151215E7F0958
:10310000192946464949493101017F01013F4040A3
:10311000403F1F2040201F3F4038403F63140814A9
:103120006307087008076151494543007F4141002A
:1031300002040810200041417F0004020102044003
:1031400040404040000102040020545454787F481D
:103150004444383844444420384444487F38545424
:103160005418087E0901020C5252523E7F08040492
:103170007800447D40002040443D007F10284400FA
:1031800000417F40007C041804787C0804047838EF
:10319000444444387C14141408081414187C7C0823
:1031A0000404080854545420043F4440203C404048
:1031B000207C1C2040201C3C4030403C44281028EF
:1031C000440C5050503C4464544C44000836410078
:1031D00000007F0000004136080010080810087841
:1031E00046414678253033642A2025303264272032
:1031F0002530326422000000183200080000002050
:1032000018000000F4000008303200081800002008
:10321000E80600001001000800127A000500000016
:103220009A998142010000000400000000000000A3
:04000005080000B13E
:00000001FF
