:020000040800F2
:10000000480700209D01000829230008D915000891
:1000100000000000000000000000000000000000E0
:10002000000000000000000000000000CF230008D6
:1000300000000000000000002B230008F923000846
:10004000AF01000800000000AF010008AF01000888
:10005000AF010008AF010008AF010008AF010008C0
:1000600000000000AF010008AF010008AF01000868
:10007000AF010008AF010008AF0100080000000058
:10008000AF0100080000000000000000AF01000800
:1000900000000000AF010008AF010008DD150008F6
:1000A00000000000AF01000800000000AF010008E0
:1000B00000F002F800F046F80CA030C80838241808
:1000C0002D18671EA246AB4654465D46AC4201D190
:1000D00000F038F87E460F3EB6460FCC012633427C
:1000E00000D0FB1A3343A246AB461847CC2C000085
:1000F000EC2C0000103A02D378C878C1FAD8520725
:1001000001D330C830C101D504680C6070470000CD
:100110000023002400250026103A01D378C1FBD823
:10012000520700D330C100D50B60704710B5642969
:1001300002D100F0A7F810BD002010BD1FB51FBDF3
:1001400010B510BD00F065FA1146FFF7F7FF02F099
:10015000E7F900F07DFA03B4FFF7F2FF03BC00F00B
:1001600083FA000070B505460C46164602E00FCC37
:100170000FC5103E102EFAD2082E02D303CC03C5B1
:10018000083E042E07D301CC01C5361F03E02178B9
:100190002970641C6D1C761EF9D270BD074880471B
:1001A00007480047FEE7FEE7FEE7FEE7FEE7FEE75B
:1001B00004480549054A064B7047000071240008B1
:1001C000B100000848010020480700204803002033
:1001D000480300200FB41CB5074B06AA7B446946B0
:1001E0000090059800F0E1F90020694600F0F0F970
:1001F0001CBC08BC04B01847F10300000FB41CB5C8
:100200000C0007AA009001D00019401E084B7B4447
:1002100069460190069800F0C8F9002C03D06946A1
:10022000002000F0D5F91CBC08BC04B01847000041
:10023000C903000070B5044685690068C10601D590
:10024000302600E02026C00707D070BD6268304627
:10025000A1689047206A401C20626D1EF6D570BDD3
:1002600070B5044685690078C00707D170BD626823
:10027000A16820209047206A401C20626D1EF6D5A0
:1002800070BD0000F7B5002575291068009914A607
:1002900011D0C046C046002802DA404211A608E04C
:1002A000009909688A0701D50FA602E0490704D51D
:1002B0000EA6012501E0C046C046009F0024243759
:1002C00004E000F092F930313955641C0028F8D16F
:1002D0002B4632462146009800F00AF9FEBD000088
:1002E000000000002D0000002B0000002000000096
:1002F000F3B50446002081B020622046E1688847BB
:1003000000287DD0252802D06268A16883E0454F8F
:1003100000257F442046E16888472028064608DB00
:10032000312E06D2B81920380078002801D00543B4
:10033000F0E7A80701D5042085430020E0610746C7
:10034000A0612A2E0AD0304602F0D3FB002827D025
:10035000B8000019303E0090866119E00298BA009A
:10036000121902C8916102902046E1688847012F66
:10037000064617D1E06900281FDA202085431CE0DB
:1003800000980A21806948430099801930388861B3
:100390002046E1688847064602F0ABFB0028EFD113
:1003A000012F0AD02E2E08D12046E1688847064644
:1003B000202005437F1C022FC3DBA069002803DA3D
:1003C0004042A06101200543E80701D01020854389
:1003D000002E24D030464138192803D80120C0020D
:1003E00005432036204625603146029A1546FFF720
:1003F0009DFE00280CD0012807D0ED1DE80800E084
:100400000DE0C0000830029077E72D1D029574E7DB
:1004100062683046A1689047206A401C6CE7206AF9
:10042000FEBD0000EA270000F8B5042A2CD383079C
:1004300012D00B78491C0370401C521E83070BD04E
:100440000B78491C0370401C521E830704D00B78A4
:10045000491C0370401C521E8B079B0F05D0C91A04
:10046000DF002023DE1B08C90AE0FFF77BFEF8BD92
:100470001D4608C9FD401C46B4402C4310C0121F45
:10048000042AF5D2F308C91A521EF0D40B78491C7D
:100490000370401C521EEAD40B78491C0370401CA8
:1004A000012AE4D409780170F8BD01E004C0091FF5
:1004B0000429FBD28B0701D50280801CC90700D01C
:1004C0000270704700290BD0C30702D00270401C95
:1004D000491E022904D3830702D50280801C891E8D
:1004E000E3E70022EEE70022DFE77047704770473E
:1004F000FFB504460D4681B024300090216888067F
:1005000004D51022E0699143216000E00120A84257
:1005100001DD471B00E000270498A1697A19101833
:10052000081AA0612078C00602D42046FFF782FE98
:10053000002608E003986268A168805D9047206A01
:10054000401C761C206204988642F3DB2078C006AB
:100550000AD52046FFF76EFE06E06268A1683020EB
:100560009047206A401C206238467F1E0028F4DC39
:1005700007E000986268A168405D9047206A401CCF
:10058000206228466D1E0028F3DC2046FFF768FE37
:100590002078000602D5022005B0F0BD0120FBE75F
:1005A00001694A1C02610878704700B58FB002915A
:1005B0000021059105490193794403911146049066
:1005C0006846FFF795FE0FB000BD0000E5FFFFFF96
:1005D0000A681070521C0A6070470CC908399A42A8
:1005E00002D2531C0B601070704701468008081A35
:1005F00002091018020A1018020C1018C008820014
:1006000012185200891A01E0401C0A390A29FBD24B
:100610007047754600F024F8AE460500694653461B
:10062000C008C000854618B020B5FFF7C1FD60BC0A
:10063000B64600260027C0C5C0C5C0C5C0C5C0C5D8
:10064000C0C5C0C5C0C5403D490849008D4670477A
:1006500010B50446C046C0462046FFF77CFD10BDDD
:10066000004870472800002001491820ABBEFEE773
:100670002600020070470000F0B583B002920D46DC
:10068000184A507000201070FF240094164EA027C6
:1006900002233046394600F09FFA0094304639462E
:1006A0002A46029B00F000FA03B0F0BDB0B582B05C
:1006B0000C4B587000201870002A07D004460D5CBF
:1006C000C0188570641CE0B29042F8D3FF200090FF
:1006D000901C83B20448A021024A00F07DFA02B0C7
:1006E000B0BDC04612010020A0000020EFF3108032
:1006F00072B6FEE7B0B52121415C022918D101464E
:100700002031026813680E24A34313601368012587
:10071000AB431360C26B036C2C469C4054600024B6
:100720000C704D70416B002900D088472046B0BD49
:100730000421816301242046B0BD0000B0B5044609
:1007400000F0DAF80546601C02D00448007804196D
:1007500000F0D2F8401BA042FAD3B0BD0800002040
:10076000F0B58CB009900B68002B00D1B4E05B4869
:10077000099A824201D0052000E003200090012068
:1007800000252F460290044608910BE02243069C68
:10079000F2600B681846E040AD1C3F1D641C002849
:1007A00000D199E0601E029A0A908240134005939E
:1007B000EFD0039204950694486810220243122A4F
:1007C000099E0FD11C2038400F2181400A9AD3087E
:1007D0009B00F3181A6A8A430899096981401143FA
:1007E00019620899079703252846049CA04032689F
:1007F00082434F683B4601952B402546A340134357
:100800003360C043122F15D80122BA4036490A423C
:1008100010D0099CA26802400899CB68AB401343F2
:10082000A360FA06D20F0A998A40636803998B4342
:1008300013436360099BDA68024008998868A840FE
:100840001043D860F800079F069CA2D5254A10687F
:10085000012318431060106818400B900C263E408E
:100860000F22B2400A9F019887430B981F4C3859BA
:1008700090433F190922D206099C944209D01C4A90
:10088000944207D01B4A9442009B059C03D102234B
:1008900001E00023059CB34003433B60104E3368E6
:1008A0004868C20301D5234300E0A343079F336098
:1008B0007368820301D5234300E0A3437360B368E8
:1008C000C20201D5234300E0A343B360F268800273
:1008D00000D55BE7A2435AE70CB0F0BD000C00481E
:1008E0000004014018100240060006000800014004
:1008F0000004004800080048014800687047C046EE
:1009000044010020B0B502464120135C0220202B98
:1009100019D1134640331C78012C14D02420587070
:10092000106802680124A24302602203056895430F
:10093000056002680A4302600168214301600020EB
:10094000187020215970B0BDB0B502464120135C2B
:100950000220202B19D1134640331C78012C14D0CF
:1009600024205870106802680124A24302600F22FC
:100970001202056895430902294301600168214379
:1009800001600020187020215970B0BD7047704779
:10099000F0B581B001688C690A6880231340012298
:1009A000E50506D5002B04D01502466C16434664B7
:1009B000CD61650507D5002B05D09502466C08274B
:1009C00037434764CD61A40507D5002B05D05202FB
:1009D000436C02241C434464CA61416C0B221142E3
:1009E00001D000F0ABFE01B0F0BD80B502689169A6
:1009F000436B1268002B00D0984780BD7047000001
:100A0000F0B581B0002820D004460546403568780E
:100A1000002804D100202870204600F02BFA242062
:100A200068702068026801218A4302600F22120662
:100A30006368934303618368184A13408360E368E3
:100A4000012B05D02126B60203E0012001B0F0BD44
:100A5000CE03A76837438760022B01D1CB024360E6
:100A600043680F4E1E434660C3681340C36022694B
:100A700063691343A26912021A43C260E269236ADE
:100A80001343036002680A4302600020606420216F
:100A900069702063A87001B0F0BDC046FF7FFFFF02
:100AA0000080000270470000F0B587B00446412086
:100AB000205C0225202818D11646224640321078A4
:100AC000012812D01F460125157004920691FFF7E8
:100AD00013FF05900090E903192320462A4601F0F0
:100AE0007DF80699049A002802D0284607B0F0BD88
:100AF000222050701020907000206064678566622C
:100B00000190606301252E066B06608D000A314856
:100B10000396029305D0FF2222850090204633469B
:100B200004E0628D22850090D2B2204601F040F8A8
:100B3000059F0C9E09E0608D20850097C2B220467B
:100B40000699029B01F034F8059F608D00282CD097
:100B5000204631463A4601F079F80028C5D1606A4E
:100B60002168496A0170608D401E6085606A401C82
:100B70006062208D411E2185608D0904E5D1002829
:100B8000E3D000978021002720463A46334601F003
:100B900025F80028A9D1608D000ACCD0FF2222853B
:100BA000009720460699039BCCE7204631463A46FB
:100BB00001F090F80028049997D120680C46202174
:100BC000C1614268AA4B134043606170019D25706A
:100BD000A5708AE700240080F0B587B00446412064
:100BE000205C0225202818D1164622464032107873
:100BF000012812D01F460125157004920691FFF7B7
:100C00007BFE05900090E903192320462A4600F058
:100C1000E5FF0699049A002802D0284607B0F0BDE7
:100C200021205070102090700020606467856662FB
:100C30000190606301252E066B06608D000A314825
:100C40000396029305D0FF2222850090204633466A
:100C500004E0628D22850090D2B2204600F0A8FF09
:100C6000059F0C9E09E0608D20850097C2B220464A
:100C70000699029B00F09CFF059F608D00282BD0F9
:100C8000204631463A4601F04DF80028C5D120688B
:100C9000616A0A788262608D401E6085481C6062CD
:100CA000208D411E2185608D0904E6D10028E4D005
:100CB00000978021002720463A46334600F08EFFF9
:100CC0000028AAD1608D000ACDD0FF22228500978E
:100CD00020460699039BCDE7204631463A4600F070
:100CE000F9FF0028049998D120680C462021C161A1
:100CF00042685F4B134043606170019D2570A57091
:100D00008BE7C04600200080F0B589B00546412041
:100D1000285C022420283CD10E9F002F36D00F984B
:100D2000002833D0164608902A4640321078012811
:100D30002FD004930791012414700692FFF7DCFD75
:100D400005900090E10319232846224600F046FF53
:100D500000281ED1109A21200699487040208870E2
:100D6000002068646F620746686308986885089287
:100D7000009205980190284607993246049B00F09E
:100D800053FE002808D00698077002E00124600294
:100D90006864204609B0F0BD0297059F012426062D
:100DA0006306688D000A0496039307D0FF222A8504
:100DB0000020009028460799334606E0688D288574
:100DC00002990091C2B22846079900F0F1FE3E4612
:100DD000089B0DE0688D28850096C2B228460799C9
:100DE000039B00F0E5FE3E46089B688D00282BD053
:100DF00028461946324600F095FF0028C9D12868D8
:100E0000696A0A788262688D401E6885481C68623B
:100E1000288D411E2985688D0904089BE5D100288D
:100E2000E3D00096802100262846324600F0D6FE08
:100E30000028AED1688D000ACCD0FF222A8500960A
:100E400028460799049BCCE728461946324600F00D
:100E500041FF0028069F9CD128682021C16142687B
:100E6000034B134043607970029C3C70BC7090E768
:100E700000E800FE70B586B0002405940494039445
:100E80000294019400681849884201D006B070BDF0
:100E900001267004154D2968014329602968014025
:100EA00000910420059003941220029003200490E6
:100EB0004002019000980920C00601A9FFF750FCEC
:100EC0007005A9680143A960A968014000910098D4
:100ED000172528462146224600F060F8284600F0F3
:100EE00059F806B070BDC0460054004014100240CE
:100EF000704770471A48007802490A68101808605D
:100F00007047C0464401002080B5A6480168102201
:100F10000A430260032000F005F800F025F80020E5
:100F200080BDC046B0B504467D20C0000C4909789C
:100F300001F0E4FC01469E48006801F0DFFC00F08F
:100F400047FB0125032C09D8002807D10025E843D9
:100F500021462A4600F022F8024804602846B0BD27
:100F6000080000200C00002082B00948016801221E
:100F70001143016001681140019101991107426814
:100F80000A434260406808400090009802B07047F1
:100F90001810024080B501F06DFA80BD80B501F0F7
:100FA00075FA80BDF0B585B004468078C007394B2E
:100FB0004DD00120039001071A1F106808400290CD
:100FC00006D1106808431060106808400490049827
:100FD00000920191304E3068C00511D40398070289
:100FE000306838433060FFF787FC05463068384288
:100FF00006D1FFF781FC401B6428F7D9032538E0B0
:1010000003252802234B1968014012D06268024070
:1010100091420ED00398000419681A6802431A60BE
:101020001A6882431A6008461C4A10401860C807B4
:1010300022D1186819490840616801431960029873
:10104000002804D1009A1068019988431060206834
:10105000C10705D0196903229143A2680A431A61A6
:101060000025800605D5186910218843E1680143F1
:101070001961284605B0F0BDFFF73EFC06464A4F11
:10108000044B18688007D4D4FFF736FC801BB842A5
:10109000F6D9EEE72010024000700040FFFCFFFF91
:1010A000F0B581B000284CD004463E4A13680120B8
:1010B00003408B4208D213680126B3430B431360ED
:1010C000126832408A426AD1009121688A070ED59F
:1010D0004A0705D507221202434D2B6813432B60A4
:1010E000414D2A68F0239A43A36813432B60C90734
:1010F00029D12C49086801263040009A904205D930
:101100000868B04308600868C00748D120784007E5
:1011100007D507200002344A11688143E06808437C
:10112000106000F047F8304909680906090F1F4AA6
:10113000515CC8401E4908600320FFF7F3FE0026FB
:101140002DE001262BE06168274A121F022906D0F4
:10115000012909D112689203064620D508E01268D9
:10116000920106461BD503E012689207064616D583
:101170001D4A10680326B04308431060FFF7BCFB0C
:101180000746094D184800680C210140606880003E
:101190008142AED0FFF7B0FBC01BA842F2D9304667
:1011A00001B0F0BD0020024088130000112B0008A0
:1011B0000400002010B50C490A680C2313400B48AA
:1011C000082B10D193021B0F09A4E45C896AD20397
:1011D00001D40F4805E00F22114009A2515C01F033
:1011E0008DFB4443204610BD0410024000127A00DB
:1011F00002030405060708090A0B0C0D0E0F101058
:101200000102030405060708090A0B0C0D0E0F1056
:1012100000093D00F0B587B004460120002C00D144
:10122000CDE104902078C007E64E05941CD071688B
:101230000C200140042911D071680140082902D115
:101240007068C0030AD46068002803903ED0052867
:1012500000D121E1012839D1012022E13068800349
:1012600002D5606800282ED0207880074ED570689F
:101270000007800F07D070680C21014008290ED1AB
:101280007068C0030BD430688007059A02D5D06817
:10129000012818D13068F8218843116933E030689B
:1012A000059CE16800291AD0012108433060FFF74E
:1012B00023FB05463068800721D4FFF71DFB401B48
:1012C0000228F7D902E1049807B0F0BD012001041B
:1012D00032688A433260810430688843E4E0012147
:1012E00088433060FFF708FB0546306880070DD55E
:1012F000FFF702FB411B03200229F6D95FE13068AA
:10130000F82188432169C90001433160059C207898
:10131000000722D42078400732D42078C00600D4B9
:10132000EBE0059A5069411D6DD0012874D1706BB6
:10133000042101437163706B012101437163FFF765
:10134000DBFA0546706B800700D5CEE0FFF7D4FAD4
:10135000411B03200229F5D931E1706AE1690029B6
:1013600042D0012108437062FFF7C6FA0546706A51
:101370008007CFD4FFF7C0FA401B0228F7D9A5E0B9
:10138000012003900107F0690840029006D1F0693E
:101390000843F061F06908400690069801918A4F71
:1013A0003868C00510D403980402386820433860B8
:1013B000FFF7A2FA05463868204205D1FFF79CFAEC
:1013C000401B6428F7D981E005988468002C03D07D
:1013D000052C36D0012C38D0306A0399884330620E
:1013E000306A0421884333E0012188437062FFF7AB
:1013F00083FA0546706A80078CD5FFF77DFA401B9B
:101400000228F7D962E0706B042188437063706B27
:10141000F821884391696DE0706B04210143716389
:10142000706B012188437063FFF766FA0546706BA5
:10143000800762D5FFF760FA411B03200229F6D925
:10144000BDE0306A042101433162306A03990843E8
:1014500030625E4FFFF750FA0546002C0FD0306A1D
:1014600080070FD4FFF748FA401BB842F7D92DE0A8
:10147000FFF742FA411B0320B94200D99FE0306ACE
:101480008007F5D402980028059C00D045E7F06954
:1014900001998843F06140E70120810432680A43E2
:1014A0003260010430680843306001204704FFF7D0
:1014B00023FA0546039800280BD03068384200D044
:1014C000D2E6FFF719FA401B6428F6D9032007B0CB
:1014D000F0BD059C3068384200D1C5E6FFF70CFA34
:1014E000411B03206429F5D969E0706BF82188431A
:1014F00005998969C900014371630598046A002C44
:101500001AD070680C210140082918D1012C0498C8
:1015100055D00120030471680B40F26A059D6C6A86
:10152000A3424CD10F231A40EC6AA24247D19A043D
:101530001140AA6A914242D1002007B0F0BD0120BB
:10154000020631680492914331604706FFF7D4F9EF
:101550000546022C0AD1049C3068384210D0FFF7AF
:10156000CBF9411B03200229F6D928E03068384224
:10157000E2D0FFF7C1F9411B03200229F6D91EE092
:10158000F06A0F218843059AD16A0143F1623D2038
:10159000000471688143906A0843516A0143716095
:1015A000306820433060FFF7A7F9044630683842BE
:1015B000C2D1FFF7A1F9011B03200229F6D907B018
:1015C000F0BDC046001002400070004088130000CB
:1015D00080B500F0FDFE80BDFEE7000080B5074845
:1015E000006880694005400F03D00448FFF7D0F938
:1015F00080BD0248FFF7F9F980BDC046A000002079
:1016000080B5406A816B00224A63C16B4A63412105
:10161000415C602906D10146413120220A70FFF762
:10162000B5F980BDFFF7EAF980BD10B5CA0703D14F
:1016300000228B0709D413E04122825C2823134047
:10164000282B0AD0F2228B070AD54123C35C282419
:101650001C40282C08D0F42307E042228B07F4D446
:101660001346490706D503E044231343490701D530
:10167000B8210B43006801689943016010BD006800
:101680008169890701D5002181628169C90703D178
:10169000816901220A43826170470000F0B581B080
:1016A00004464120205C2821014020682546403521
:1016B00028291CD1816983698268C6680096FE2644
:1016C0001F0CC903CB0FE168022916D1D10979405B
:1016D0004907890F20D0009F3740042120461E462D
:1016E000FFF7A3FF00202870204631460FE00021BD
:1016F00029700821C16101B0F0BD0421204600938A
:10170000FFF793FF002028703740204600993A46A3
:10171000FFF73DF901B0F0BDA16C491CA164A16CBB
:101720000229E8D104490A400021A1642970082156
:10173000C16120461946EBE7FF03000070B504467F
:101740004120205C42220026A654844AE26266853B
:10175000626C0A436264283825464035022806D860
:1017600003212046FFF761FF2648282109E00721D1
:101770002046FFF75AFF68786028304602D02021C3
:10178000304669702663606320680268016852040D
:101790000CD409041BD4687860282CD10020287050
:1017A000202068702046FFF7F1F870BD01229203F7
:1017B00091430160A06B002822D0002129701249BA
:1017C0004163FEF797FF00281AD0A06B10E00121BB
:1017D000C90302688A430260E06B002810D0002130
:1017E000297009494163FEF785FF002808D0E06BA6
:1017F000416B884770BD002028702046FFF7FEF837
:1018000070BDC046991A00080116000870B504465C
:10181000E648E06200252563412020222254422030
:101820002554656326464036480712D5606A21680C
:10183000496A0170606A401C6062208D002808D0EF
:10184000618D491E6185401E2085606C0421014325
:10185000616407212046FFF7E8FE357020681021FB
:10186000C1612046FFF71EF970BDC046F0B581B0DA
:101870000D4604460068076820210091C1610721D8
:101880002046FFF7D2FE0120C6032068416831439D
:1018900041604168634A0A4042602046FFF7EFFE1C
:1018A000780405D4374209D0E06B002803D105E065
:1018B000A06B002802D0006840686085680710D5DA
:1018C000606A2168496A0170606A401C6062042095
:1018D0008543208D002804D0401E2085608D401E49
:1018E000608527464037608D002803D0606C042156
:1018F0000143616400262663BE706663606C002845
:101900000CD0616C2046FFF719FF7878282823D186
:1019100020462946FFF77AFF01B0F0BDE06AA34DEB
:10192000A8420AD13E70787800997970222810D1A7
:101930002046FFF7DDFA01B0F0BD204600F010F8B8
:10194000E5623E70009878702046FFF7ABF801B072
:10195000F0BD2046FFF7CDFA01B0F0BD0000FFFF5B
:1019600070B504464220002525544120205C2646BF
:10197000403629280CD128207070212020630121B5
:101980002046FFF752FE35702046FFF7B2FA70BDD1
:1019900070782A280BD12820707022202063022121
:1019A0002046FFF742FE35702046FFF7A1FA70BDD2
:1019B000F0B581B0044600688069C00602D40020FA
:1019C00001B0F0BD0E462746403720688169890680
:1019D00010D4154603E02068816989060AD4701C7A
:1019E000F9D0FEF789FF2021002E10D0401BB04215
:1019F000F1D90CE01021C1612021C1612046FFF71F
:101A00003EFE20684168B24A0A4042600421606C90
:101A1000084360642020787000203870B87001207E
:101A200001B0F0BD00E800FEF0B583B01D460292A3
:101A3000044618480090DAB201200306204600F060
:101A4000B7F8089E099F204631463A4600F06AF9E9
:101A5000002802D0012003B0F0BD012D0AD020687B
:101A60000299090A8162204631463A4600F05AF945
:101A70000028EFD120680299C9B2816200978021C5
:101A800000222046334600F0A9F8411E884103B0E9
:101A9000F0BDC04600200080F0B583B00446402071
:101AA000205CE36A012802D1022003B0F0BD164693
:101AB0000D46204640300127029007700E40B006C8
:101AC00005D5204629460193FFF7D0FE019BF0067D
:101AD00016D4700727D4300749D4B007029E5AD5D0
:101AE000608D00285BD02068616A0A788262481C99
:101AF0006062208D401E2085608D401E60854AE01A
:101B0000608D002827D020681021C161606C0421FD
:101B10000143616424480342029E3CD1616C20462B
:101B2000FFF70CFE37E0608D0028029E0CD0606A43
:101B30002168496A0170606A401C6062208D401E05
:101B40002085608D401E6085608D18498B4222D0B3
:101B500000281DD01FE0029E707879068B420BD1C1
:101B6000282809D120462946FFF750FE13E02046D9
:101B7000FFF794FD029E0EE0707821681022CA6182
:101B80000A498B4207D0292805D12046FFF777FD67
:101B90002046FFF7E5FE0020307003B0F0BD02489C
:101BA0000342F8D1F4E7C046FFFFFFFE0000FFFF4D
:101BB00070B5049C650D00684668AE43054D354020
:101BC000054E0E401E431104314321432943416019
:101BD00070BDC046009C00FCFF030000F0B583B060
:101BE0000F460446006880690840401A414241415E
:101BF0000020914227D11D461646019020464030D4
:101C000000900898029007E0206880693840C01B67
:101C100041424141B14215D1681CF5D0FEF76CFE3E
:101C2000002D03D00299401AA842EDD9606C202102
:101C300008436064009A5170002010709070012079
:101C400003B0F0BD019803B0F0BD0000F0B581B065
:101C50000F460546403000902868806900264007FE
:101C600032D4284639461446FFF7A2FE0122002846
:101C700015D128688169890613D41646FEF73CFE03
:101C8000002F03D02246001BB842E5D9686C202102
:101C9000084368640020009A1070517014E01646E2
:101CA00012E08169490702D5298D00290CD1202134
:101CB000C16116464268064B1340436000206864C9
:101CC000009A517010709070304601B0F0BDC0465F
:101CD00000E800FEF0B581B016460F4604464030DD
:101CE000009020688069800618D420463946324624
:101CF000FFF75EFE0125002811D1FEF7FDFD002F44
:101D000002D0801BB842ECD9606C2021084360648B
:101D1000009A517000201070907000E00025284655
:101D200001B0F0BDF0B583B00446006880690027BB
:101D3000800726D415460E46029720464030019073
:101D400003E02068806980071AD4204631462A467D
:101D5000FFF72EFE0127002813D1701CF1D0FEF7EB
:101D6000CBFD002E02D0401BB042EAD9606C20218E
:101D700008436064019A517000201070907000E078
:101D8000029F384603B0F0BD81B00C490A68024397
:101D90000A60096801400091009801B07047C04690
:101DA00081B00120400405490A6802430A600968BD
:101DB00001400091009801B07047C04614100240E5
:101DC00081B005490A6802430A6009680140009130
:101DD000009801B07047C0461C100240F0B581B0B9
:101DE0000D460446096800292DD0002709E06A69DC
:101DF0002046314600F04CF87F1C29680846F84020
:101E000021D00126BE400E40F6D06A6820463146F9
:101E100000F04DF86868401E012804D8AA682046E2
:101E2000314600F05CF82A692046314600F04EF851
:101E300068680228E0D1FF2ED9D86A692046314669
:101E400000F01CF8D8E76868401E012803D8EA684B
:101E5000204600F035F8002001B0F0BD03490968C4
:101E60000140091A484248417047C04610000048E6
:101E7000816270478162704781627047494349437C
:101E80004A430F234B43016A994311430162704750
:101E9000090A494349434A430F234B43416A994343
:101EA00011434162704781617047816170474943C6
:101EB0004A4303234B430168994311430160704730
:101EC0004A4343688B4313434360704749434A4343
:101ED00003234B43C16899431143C1607047494391
:101EE0004A4303234B438168994311438160704700
:101EF0003C490A6802430A607047C0460120C0435B
:101F0000724908607047C0460168802291430160B1
:101F100070470000694801680122914301607047E1
:101F20007448016880229143016070470168012272
:101F30000A4302607047416901220A4342617047C7
:101F400010B5012805D0042805D0102805D102209D
:101F500004E0002002E0012000E006202E49095C98
:101F600003228A402D4B185C2D4BC4589443012208
:101F70008A402243C25010BDB0B5012805D00428C4
:101F800005D0102805D1022004E0002002E0012045
:101F900000E00620204A125CF02393401F4C205C96
:101FA0001F4C05599D43090C914029430151B0BD77
:101FB000012805D0042805D0102805D1022004E00E
:101FC000002002E0012000E0062004A1085C0A21B4
:101FD0008140044802688A43026070470002040698
:101FE000080A0C0020040040012805D0042805D070
:101FF000102805D1022004E0002002E0012000E0CA
:1020000006200549095C0C228A400449085C044901
:102010004358934343507047A82D0008A12D000852
:102020001804004070B50D46044601681F4EB042CA
:1020300002D0BC48844204D17020814368680843C0
:1020400000E008461A498C4208DDB4420CD0194918
:102050008C4209D018498C4206D024E0B1498C4208
:1020600002D016498C421ED1032109028843E96837
:1020700001432160A968204600F030F829882046F5
:1020800000F03AF8B44205D00A48844202D00A4827
:10209000844203D1297C204600F030F82046FFF727
:1020A0004AFF002070BD0146E3E7C046002C014016
:1020B000FF2B014000480140004401400020004047
:1020C00002480168012008407047C04610200040C7
:1020D000014908607047C0462C200040C16270472B
:1020E000416270470348016801220A4306218A437E
:1020F00002607047080400408162704701637047C6
:102100000248016870229143016070470404004056
:10211000F0B58BB000250A950995089507950695A9
:1021200005950124A005FFF72FFE6004FFF72CFEA4
:10213000A00427460494FFF727FE0920C4061021B7
:1021400001912046FFF798FE20210291204603943A
:10215000FFF792FE294802263146FFF78DFE0996C9
:1021600006950597264805AF3946FFF737FE0996CD
:102170000695059622483946FFF730FE09960695E2
:102180000498059020463946FFF728FE09960695E3
:10219000059620463946FFF721FE0996069504204C
:1021A000059020463946FFF719FE09960695082046
:1021B000059020463946FFF711FE099608950795C8
:1021C000049C06940198059003983946FFF706FE93
:1021D0000996089507950694029805900398394644
:1021E000FFF7FCFD099608950795069405960348A8
:1021F0003946FFF7F3FD0BB0F0BDC04600040048C0
:102200000014004810B5124800210122114B124C55
:10221000046043608160C260016141618161C161AC
:102220000162FEF7EDFB002801D0FEF75FFA0848D7
:102230000021FEF767FB002801D0FEF757FA04489B
:102240000021FEF781FB002801D0FEF74FFA10BDF8
:10225000A00000200E09002000540040F0B58DB011
:1022600000260C960B960A960996089607960696EF
:10227000059604960396029602252846FFF7A0FDD0
:10228000FFF78EFD01240794069505960320019023
:1022900004900395402002900920C006009002AFF0
:1022A0003946FFF79BFD0794069505960198049023
:1022B00003958020029000983946FFF78FFDFFF7C5
:1022C00011FF2046FFF73CFE2046FFF78DFE21055B
:1022D0002046FFF751FE2046FFF76AFE10252846EC
:1022E000FFF72EFE2846FFF77FFE61052846FFF721
:1022F00043FE2846FFF75CFE08A90E800B960848AF
:102300000A900996844C2046FFF78CFE2046FFF782
:10231000FBFDFFF7F5FEFFF703FE0DB0F0BDC04675
:10232000FFFF000000040040FEE7704710B5AE203C
:1023300000F0A4FA202000F0A1FA0024204600F0CA
:102340009DFAB02000F09AFAC82000F097FA2046D3
:1023500000F094FA102000F091FA402000F08EFA7C
:10236000812000F08BFAFF2000F088FAA12000F015
:1023700085FAA62000F082FAA82000F07FFA1F203C
:1023800000F07CFAA42000F079FAD32000F076FA6D
:10239000204600F073FAD52000F070FAF02000F02B
:1023A0006DFAD92000F06AFA222000F067FADA20EC
:1023B00000F064FA122000F061FADB2000F05EFA0F
:1023C000022000F05BFAAF2000F058FA10BD704711
:1023D000B0B5401E010E01D00120B0BD054D6860B2
:1023E0000024E043032100F051F8AC60072028608E
:1023F0002046B0BD10E000E080B5FEF77BFD80BD5B
:1024000070B594B008AC30212046FEF76CF800257A
:10241000079506950595049513950520C00412901F
:1024200011950226109610200C9001200B90089612
:1024300003950295019500952046FEF7EBFE0028D6
:1024400014D10795069505960720049004A801214C
:10245000FEF726FE002809D103952020009068464B
:10246000FEF7A0FD002801D114B070BDFEF73EF9C3
:1024700070470000002805D41F2108400121814039
:10248000014801607047C04600E100E0002805D423
:102490000322034693430C4A9A1806E00F22024097
:1024A000083A03239A43074BD2188007C00E8901CC
:1024B000C9B28140FF2383401068984308431060ED
:1024C0007047C0461CED00E000E400E010B5FFF7E7
:1024D000FFFDFFF713FD074C00212046FFF700FE2C
:1024E0002046FFF723FDFFF7EBFD0028FBD0FFF7A9
:1024F00011FD10BD0020004010B5074C07492046D3
:10250000FFF7EEFD0120FFF7F3FC1020FFF7F0FCD2
:102510002046FFF70BFD10BD00040040F87F0000CF
:1025200082B0FEF7F1FCFFF76BFFFFF7F1FDFFF75D
:1025300095FEFFF767FEFFF7DFFF00F0C1F96425A6
:102540002846FEF7FBF8FFF7F1FE00F033F93748B5
:1025500001783748007800F051F93648028836484B
:102560000378364800780090354C36A12046FDF7B8
:1025700031FE204600F074F914273846FEF7DEF8E5
:102580000020354E019031463A46FEF78FF8322052
:10259000FEF7D4F8012031463A46FEF787F84C485A
:1025A0000221FFF767FC0920C0061021FFF77DFC20
:1025B0002846FEF7C3F8294E294F019C15E001205B
:1025C00000F052F800F0F6F80520002100F016F9AE
:1025D000338814211A4D2846224AFDF70FFE28465B
:1025E00000F03EF9641CFF2CE7D000F073F8308057
:1025F0000028F7D0308801280ED00428DFD0022828
:10260000F0D10025E8B214223946FEF735F8681CEF
:10261000022D0546F6D3E5E70025284600F024F80C
:1026200000F0C8F805202946D0E7C0468900002000
:10263000000000209E000020EE0000200901002084
:102640008A000020253032642C20253032642C2072
:10265000253032640000000010000020EC00002053
:10266000EF000020AF2D0008F0B581B00646184CF1
:1026700002212046FFF717FC0520FFF727FF09205E
:10268000C50620212846002E02D0FFF70CFC01E0F1
:10269000FFF7EEFB0520FFF719FF1026284631460D
:1026A000FFF7E6FB03273846FFF710FF28463146C1
:1026B000FFF7F9FB3846FFF709FF022520462946B8
:1026C000FFF7D6FB2846FFF701FF01B0F0BDC0467B
:1026D0000004004870B5344E307800280FD104242F
:1026E0002046FFF7BBFB012805D002242046FFF758
:1026F000B5FB012840D1012030702C48048030788F
:10270000012804D1022030702948642101803078EA
:1027100002280AD126480188002902D00188491ED2
:1027200002E0032131706421018030780024032805
:1027300020D11F4D2888002804D02888401E2880DA
:10274000204670BD0420FFF789FB00280ED102202F
:10275000FFF784FB002809D10120FFF77FFB002849
:1027600004D10820FFF77AFB002817D0032030702F
:1027700064202880204670BD01242046FFF76EFBB0
:10278000012801D13470B8E708252846FFF766FB19
:102790000128B4D1347005480580B0E700203070BE
:1027A0000248008870BDC0460801002004010020D6
:1027B00006010020F0B581B000242046214600F03B
:1027C0001DF80D4E2546274603E0781CB742074604
:1027D0000DD2202000F024F86D1CA8B28128F4D37B
:1027E000641CE1B20025284600F008F8EDE71B481C
:1027F0000521017001B0F0BDFF01000010B50446D5
:10280000164804705039C8B200F038F80F20204044
:1028100000F034F82009103000F030F810BDC04648
:10282000B0B5052460430B4909180B4D28462246D4
:10283000FDF7FAFD002068710621284600F030F807
:10284000064801780831CAB2802A00D80C460470C4
:10285000B0BDC046212B00080C01002088000020DC
:1028600010B501460078002807D04C1CFFF7D8FFB0
:10287000611C207800280C46F8D110BD80B582B0CC
:10288000064A507000201070FF2000900B487821FD
:102890000223FEF7A1F902B080BDC0460A01002064
:1028A00080B584B0FF2200AB07C3044878214022E2
:1028B0000123FEF729FA04B080BDC046A000002025
:1028C00010B586B0002405940494039402940194F6
:1028D00001200002FFF774FA01A92F200880049458
:1028E000FF2003900294044C2046FFF79BFB2046F8
:1028F000FFF70AFB06B010BD0020004043088B42E2
:102900001AD3002203098B4279D3030A8B425ED388
:10291000030B8B4242D3030C8B4227D30902FF22C5
:1029200012BA030C8B4202D31212090203D0030B1A
:102930008B4233D31AE0D3E0411A8041401C7047E8
:1029400003460B4371D443088B42F5D3002203099D
:102950008B4254D3030A8B4239D3030B8B421DD3D2
:10296000030C8B4202D394466EE0090AC30B8B42E0
:1029700001D3CB03C01A5241830B8B4201D38B038B
:10298000C01A5241430B8B4201D34B03C01A524130
:10299000030B8B4201D30B03C01A5241C30A8B4273
:1029A00001D3CB02C01A5241830A8B4201D38B025E
:1029B000C01A5241430A8B4201D34B02C01A524102
:1029C000030A8B4201D30B02C01A5241CDD2C30974
:1029D0008B4201D3CB01C01A524183098B4201D3F0
:1029E0008B01C01A524143098B4201D34B01C01ADB
:1029F000524103098B4201D30B01C01A5241C30853
:102A00008B4201D3CB00C01A524183088B4201D3C1
:102A10008B00C01A524143088B4201D34B00C01AAD
:102A20005241411A524110007047CA0F00D049422A
:102A3000031000D34042534000229C4603098B42BE
:102A40002DD3030A8B4212D38901FC2212BA030A46
:102A50008B420CD3890192118B4208D389019211C8
:102A60008B4204D3890137D0921100E08909C30950
:102A70008B4201D3CB01C01A524183098B4201D34F
:102A80008B01C01A524143098B4201D34B01C01A3A
:102A9000524103098B4201D30B01C01A5241C308B2
:102AA0008B4201D3CB00C01A524183088B4201D321
:102AB0008B00C01A5241D9D243088B4201D34B003C
:102AC000C01A5241411A00D2014652411046634693
:102AD0005B1000D34042704763465B1000D3404216
:102AE00001B50021004201D0C9430846C046C04696
:102AF00002BD30380A2801D20120704700207047FB
:102B000004000008000000000000000200010000B6
:102B10001000000000000000000102030406070886
:102B200009000000000000005F000000070007002F
:102B3000147F147F14242A7F2A1223130864623618
:102B4000495522500005030000001C2241000041AD
:102B5000221C0014083E081408083E0808005030E3
:102B60000000080808080800606000002010080441
:102B700002000000000000005F00000007000700E6
:102B8000147F147F14242A7F2A12231308646236C8
:102B9000495522500005030000001C22410000415D
:102BA000221C0014083E081408083E080800503093
:102BB00000000808080808006060000020100804F1
:102BC00002000000000000005F0000000700070096
:102BD000147F147F14242A7F2A1223130864623678
:102BE000495522500005030000001C22410000410D
:102BF000221C0014083E081408083E080800503043
:102C000000000808080808006060000020100804A0
:102C1000023E5149453E00427F40004261514946D3
:102C20002141454B311814127F1027454545393C49
:102C30004A4949300171090503364949493606496F
:102C400049291E00363600000056360000081422BE
:102C500041001414141414004122140802015109F3
:102C600006324979413E7E1111117E7F494949362C
:102C70003E414141227F4141221C7F494949417FD8
:102C8000090909013E4149497A7F0808087F004146
:102C90007F41002040413F017F081422417F404096
:102CA00040407F020C027F7F0408107F3E4141417B
:102CB0003E7F090909063E4151215E7F09192946D7
:102CC000464949493101017F01013F4040403F1FD2
:102CD0002040201F3F4038403F631408146307081A
:102CE0007008076151494543007F414100020408D3
:102CF00010200041417F0004020102044040404096
:102D000040000102040020545454787F4844443861
:102D10003844444420384444487F385454541808B4
:102D20007E0901020C5252523E7F0804047800448E
:102D30007D40002040443D007F1028440000417F3A
:102D400040007C041804787C080404783844444427
:102D5000387C14141408081414187C7C0804040823
:102D60000854545420043F4440203C4040207C1CE4
:102D70002040201C3C4030403C44281028440C504B
:102D800050503C4464544C44000836410000007FDD
:102D90000000004136080010080810087846414637
:102DA0007800000000040404000008000000086B24
:102DB00065793D2530336400D82D000800000020DF
:102DC00028000000F4000008002E00082800002061
:102DD00020070000100100080500000000127A0022
:102DE0000100000004000000CAFEDEAD100F0E0D51
:102DF0000C0B0A0908070605040302010000000085
:04000005080000B13E
:00000001FF
