:020000040800F2
:1000000000090020AD0100085F1C0008FD13000876
:1000100000000000000000000000000000000000E0
:10002000000000000000000000000000ED1D0008BE
:100030000000000000000000611C0008591F0008BB
:10004000DD010008DD010008DD010008DD01000818
:10005000DD010008DD010008DD010008DD01000808
:10006000DD010008DD010008DD010008DD010008F8
:10007000DD010008DD010008DD010008DD010008E8
:10008000DD0100080000000000000000DD010008A4
:1000900000000000D91F0008DD010008DD01000894
:1000A00000000000DD010008DD010008DD0100089E
:1000B000DD01000800000000DD010008DD0100088E
:1000C00000F002F800F046F80CA030C808382418F8
:1000D0002D18671EA246AB4654465D46AC4201D180
:1000E00000F038F87E460F3EB6460FCC012633426C
:1000F00000D0FB1A3343A246AB461847EC40000041
:100100000C410000103A02D378C878C1FAD85207DF
:1001100001D330C830C101D504680C6070470000BD
:100120000023002400250026103A01D378C1FBD813
:10013000520700D330C100D50B60704710B5642959
:1001400002D100F0B1F810BD002010BD1FB51FBDD9
:1001500010B510BD00F082FC1146FFF7F7FF02F06A
:100160006BFA00F09AFC03B4FFF7F2FF03BC00F057
:10017000EBFC000070B505460C46164602E00FCCBD
:100180000FC5103E102EFAD2082E02D303CC03C5A1
:10019000083E042E07D301CC01C5361F03E02178A9
:1001A0002970641C6D1C761EF9D270BD0F4880F357
:1001B00008880F480168090E0E4A914205D10E4881
:1001C0000E4901600E480F4901600F4880470F48F3
:1001D0000047FEE7FEE7FEE7FEE7FEE7FEE700007A
:1001E0000B480C490C4A0D4B7047000000090020D9
:1001F000040000001F000000181002400100000071
:100200000000014000000000D51F0008C1000008E8
:100210000003002000090020000500200005002048
:100220000FB41CB50C0007AA009001D00019401EA5
:10023000084B7B4469460190069800F0D4FA002CE4
:1002400003D06946002000F0E1FA1CBC08BC04B0F1
:1002500018470000E105000070B504468569006894
:10026000C10601D5302600E02026C00707D070BDAA
:1002700062683046A1689047206A401C20626D1E6B
:10028000F6D570BD70B5044685690078C00707D102
:1002900070BD6268A16820209047206A401C2062DF
:1002A0006D1EF6D570BD0000F7B5002575291068E4
:1002B000009914A611D0C046C046002802DA404278
:1002C00011A608E0009909688A0701D50FA602E087
:1002D000490704D50EA6012501E0C046C046009F8F
:1002E0000024243704E000F09EFA30313955641CB4
:1002F0000028F8D12B4632462146009800F016FA25
:10030000FEBD0000000000002D0000002B000000DA
:1003100020000000F3B50446002081B02062204692
:10032000E168884700287DD0252802D06268A1684E
:1003300083E0454F00257F442046E1688847202818
:10034000064608DB312E06D2B8192038007800287E
:1003500001D00543F0E7A80701D50420854300201C
:10036000E0610746A0612A2E0AD0304602F033FF32
:10037000002827D0B8000019303E0090866119E0AF
:100380000298BA00121902C8916102902046E168F1
:100390008847012F064617D1E06900281FDA202080
:1003A00085431CE000980A21806948430099801920
:1003B000303888612046E1688847064602F00BFF26
:1003C0000028EFD1012F0AD02E2E08D12046E16857
:1003D00088470646202005437F1C022FC3DBA06907
:1003E000002803DA4042A06101200543E80701D05C
:1003F00010208543002E24D030464138192803D8D8
:100400000120C00205432036204625603146029A6D
:100410001546FFF793FE00280CD0012807D0ED1DEC
:10042000E80800E00DE0C0000830029077E72D1DDD
:10043000029574E762683046A1689047206A401CC4
:100440006CE7206AFEBD000036310000F8B5042AD2
:100450002CD3830712D00B78491C0370401C521E0A
:1004600083070BD00B78491C0370401C521E830776
:1004700004D00B78491C0370401C521E8B079B0F45
:1004800005D0C91ADF002023DE1B08C90AE0FFF7E8
:1004900071FEF8BD1D4608C9FD401C46B4402C4302
:1004A00010C0121F042AF5D2F308C91A521EF0D444
:1004B0000B78491C0370401C521EEAD40B78491C6F
:1004C0000370401C012AE4D409780170F8BDD2B24F
:1004D00010B513029A1813049A1800F001F810BD11
:1004E00001E004C0091F0429FBD28B0701D502805B
:1004F000801CC90700D00270704700290BD0C307C9
:1005000002D00270401C491E022904D3830702D581
:100510000280801C891EE3E70022EEE70022DFE76D
:100520007047704770470000F0B5FF252D04C609DD
:10053000C209FF2704462E400137CB093E434840FD
:100540002A402B400746002A6BD0002B69D0AA42D4
:1005500067D0AB4265D0002800DA32460125ED05B0
:1005600029432C4309022002090AD21A4B0C7F248A
:10057000E31A434C000A7C44E35C7D2424041219F2
:1005800014145B00A218884201D3521C00E0400002
:1005900049420C465C4324115C43DB016415E318BB
:1005A000040A5C43C502200D0C4644436419250A25
:1005B0005D432303EC0C0D46654300030019EB1863
:1005C0004C42A34201D35B18401CD4052018002BD9
:1005D00007D05B00C91804D3401C002901D1400892
:1005E00040003F2189048A4209D3002A08DC110611
:1005F000090F04D0032149074018C00FC007F0BD00
:1006000001224100120689187F2252069142F6D239
:1006100005214907C84201D59010F0BDFF20C00553
:10062000F0BD002F00DA32461648AA4207D2AB428C
:1006300005D21902090E17D0F80FC007F0BDFF252B
:1006400063002D06AB42F9D84900A942F6D8AB4267
:1006500001D1A942F2D0A94201D1002101E06100FB
:100660004908D0050843F0BD1102090EFBD0FF2058
:100670000243D005F0BD0A460146104654E700008B
:10068000072F00000000C07F0102C21504D0012323
:10069000DB071943002A0ADB9E239A1A02D4084674
:1006A000D0407047FF2241001206914201D900203C
:1006B0007047C017C04370471F22030C02D10F229E
:1006C00000041CD0030E01D10002083A030F01D12F
:1006D0000001121F830F01D18000921E002801DB50
:1006E0004000521ED2055118021251181922904092
:1006F00004D3491C002801D1490849000846704725
:10070000C10FC90700D04042012292071143D3E72D
:1007100001218907D0E710B500F066F9006810BD27
:1007200010B5044600F060F9046010BDFFB5044642
:100730000D4681B0243000902168880604D510222F
:10074000E0699143216000E00120A84201DD471BE0
:1007500000E000270498A1697A191018081AA0610E
:100760002078C00602D42046FFF776FD002608E078
:1007700003986268A168805D9047206A401C761CDF
:10078000206204988642F3DB2078C0060AD5204612
:10079000FFF762FD06E06268A16830209047206A9A
:1007A000401C206238467F1E0028F4DC07E00098D9
:1007B0006268A168405D9047206A401C206228461C
:1007C0006D1E0028F3DC2046FFF75CFD2078000654
:1007D00002D5022005B0F0BD0120FBE701694A1CEB
:1007E00002610878704700B58FB002910021059131
:1007F0000549019379440391114604906846FFF737
:1008000089FD0FB000BD0000E5FFFFFF0A68107012
:10081000521C0A6070470CC908399A4202D2531C14
:100820000B601070704701468008081A0209101802
:10083000020A1018020C1018C00882001218520088
:10084000891A01E0401C0A390A29FBD270470000CE
:10085000F0B5FF22C30D14469C43C30FDB07002CE9
:1008600068D0CC0DA24365D0FF242404CD092540D7
:100870002E46002801DA05221543C20922406AD01B
:10088000254268D00124E40700020B02E70BE91BB4
:10089000204323430225012609E0A943A04204D3B3
:1008A0002943C01A01D5404271404000D21B8A4200
:1008B000F3DC14140D14AC4207DB984205D39842C4
:1008C0002BD05B00C01A40427140B0402AD20028B1
:1008D00026DB1ED020240346050C01D010242B4615
:1008E0001D0A01D02B46083C1D0901D02B46241FB0
:1008F0009D0801D02B46A41E5D0801D0A41E00E077
:10090000E41A641CA0402304D21A002A0CDCC80795
:10091000F0BD4807C00FC007F0BD8C07D5D5D0E7A4
:100920004000D21B002AF2DDD201430A1343C8075C
:100930001843F0BDFF221206490091420FD8410032
:10094000144691420BD8A14209D052429142F0D2B2
:100950004100EED001E0002E01D01846F0BD014864
:10096000F0BD00000000C07FC10D10B50906090EE2
:100970002ED0FF2931D07E292DD319D0962916D219
:10098000024675398A4005D0002402468A4003D3C6
:10099000012302E00124F8E700230222CA41511E8C
:1009A0008843002B03D08018002C00D0904310BD4A
:1009B0000121420201D1012200E00022C00FC00744
:1009C0000029F4D0002AF2D17F21C905084310BDC7
:1009D000C00FC00710BD0021EFE74102FAD0014867
:1009E00010BD00000000C07F0048704720000020BC
:1009F00010B5FF231B0644009C421DD84C009C42AE
:100A00001AD80346124A0B4307D4401A02D3EFF315
:100A1000008010BDEFF3008010BD081A03D3EFF380
:100A20000080904305E0EFF3008001219043C90767
:100A3000084380F3008810BD0D231B041A4204D024
:100A40001146002000F031F810BD00F045F810BD4F
:100A50000000009000487047200000207546FFF716
:100A6000F9FFAE46050069465346C008C0008546FA
:100A700018B020B5FFF7B4FB60BCB64600260027CF
:100A8000C0C5C0C5C0C5C0C5C0C5C0C5C0C5C0C53E
:100A9000403D490849008D46704710B50446C046A0
:100AA000C0462046FFF75FFB10BDC80212D54803C1
:100AB000400F002804D0C803C0430121884070477C
:100AC000EFF300800001000903210907084380F3C8
:100AD000008870470020704710B5024800F004F805
:100AE00010BD00000000C07F10B50C461107090FB3
:100AF000092904D00A290AD008290CD104E011469A
:100B00000820FFF7D2FF06E0510606D501E05106A6
:100B100001D50120C007214610BDD10607D501012E
:100B20000909CC084907000E0006044309E0410FFB
:100B300020024907000A0143200E00061D22D14170
:100B400001430846E7E7000001491820ABBEFEE775
:100B500026000200704700214160C160704710B557
:100B60000C460146D3B2A020224601F033FC10BD52
:100B700010B50C460146D3B2A020224601F060FC1D
:100B800010BDEFF3108072B6FEE770B50446E120A9
:100B90000501E6683046294602F00CFAA08045437C
:100BA000751B3C262846314602F004FAA0714643E4
:100BB000A81BE07170BD000010B504460178044820
:100BC00002F0F8F9A060204601F02CF810BDC046F4
:100BD00080C6130070B50446E1200501A6683046C2
:100BE000294602F0E7F920804543751B3C2628463C
:100BF000314602F0DFF9A0704643A81BE07070BDDB
:100C0000B0B5044600F00CF80546601C02D021483F
:100C10000078041900F004F8401BA042FAD3B0BDDC
:100C2000054800687047C0461A48007802490A68BB
:100C3000101808607047C046FC02002080B5B34819
:100C4000016810220A430260032000F005F800F05A
:100C500025F8002080BDC046B0B504467D20C00008
:100C60000C49097802F0A6F90146AB48006802F089
:100C7000A1F900F0BFFB0125032C09D8002807D1FA
:100C80000025E84321462A4600F01EF80248046089
:100C90002846B0BD180000201C00002082B0094882
:100CA000016801221143016001681140019101991D
:100CB000110742680A43426040680840009000986B
:100CC00002B070471810024080B501F0ADF980BD48
:100CD000F0B585B004468078C007444B4DD0012064
:100CE000039001071A1F10680840029006D110688F
:100CF0000843106010680840049004980092019125
:100D00003B4E3068C00511D4039807023068384361
:100D10003060FFF785FF05463068384206D1FFF79F
:100D20007FFF401B6428F7D903253CE003252802F8
:100D30002E4B1968014012D06268024091420ED0D9
:100D40000398000419681A6802431A601A688243FB
:100D50001A600846274A10401860C80737D118683B
:100D6000244908406168014319600298002804D1B1
:100D7000009A10680199884310602068C10715D156
:100D800081061BD4810305D51969802291436269CC
:100D90000A431A610025400505D51869402188439A
:100DA000216901431961284605B0F0BD1969032284
:100DB0009143A2680A431A618106E3D5196910229A
:100DC0009143E2680A431A618103DDD4E2E7FFF749
:100DD00027FF06464E4F054B18688007BFD4FFF724
:100DE0001FFF801BB842F6D9DDE7C0462010024045
:100DF00000700040FFFCFFFFF0B581B000284CD030
:100E00000446424A1368012003408B4208D213680B
:100E10000126B3430B431360126832408A4271D1FA
:100E2000009121688A070ED54A0705D507221202CC
:100E30004D4D2B6813432B604B4D2A68F0239A438A
:100E4000A36813432B60C90729D1304908680126DC
:100E50003040009A904205D90868B043086008689D
:100E6000C0074FD12078400707D5072000023E4A2F
:100E700011688143E0680843106000F04FF83A4978
:100E800009680906090F234A515CC84022490860D5
:100E90000320FFF7E1FE002634E0012632E061681E
:100EA000314A032909D0121F02290BD001290ED182
:100EB00012689203064625D50DE0126BD203064652
:100EC00020D508E01268920106461BD503E012689F
:100ED0009207064616D5244A10680326B0430843F5
:100EE0001060FFF79DFE0746094D1F4800680C2162
:100EF0000140606880008142A7D0FFF791FEC01BCF
:100F0000A842F2D9304601B0F0BDC04600200240F0
:100F100088130000C134000810000020B0B5124949
:100F20000A681007830F1148022B00D2B0BD032BB3
:100F300002D10F4C2046B0BD0323DB03896A0F2486
:100F40000C400CA1095D94021A40240F0DA52C5DE4
:100F50009A4203D001231B049A4200E0044802F0A5
:100F600029F844432046B0BD0410024000127A0024
:100F7000006CDC020102030405060708090A0B0CD9
:100F80000D0E0F1002030405060708090A0B0C0DCD
:100F90000E0F1010F0B587B004460120002C00D1D0
:100FA00021E204902078C007FE4E05940BD07168B2
:100FB0000C200140042927D13068800303D56068E4
:100FC000002800D17DE12078800768D5706800078F
:100FD000800F0CD070680C21014008292BD1032010
:100FE000C003716801400120C003814223D13068F1
:100FF0008007059A03D5D068012800D061E13068E8
:10100000F8218843116947E071680140082907D138
:101010000320C00371680140012000048142CBD04D
:101020006068002803901AD0052800D1FDE001284F
:1010300015D10120FEE03068059CE168002917D039
:10104000012108433060FFF7EBFD0546306880075B
:101050001ED4FFF7E5FD401B0228F7D9FFE0012071
:10106000010432688A433260810430688843E4E0D6
:10107000012188433060FFF7D3FD054630688007C3
:101080000DD5FFF7CDFD411B03200229F6D9AAE1BA
:101090003068F82188432169C90001433160059C0B
:1010A0002078000722D42078400732D42078C00668
:1010B00000D4EBE0059A5069411D6DD0012874D130
:1010C000706B042101437163706B012101437163F3
:1010D000FFF7A6FD0546706B800700D5CEE0FFF751
:1010E0009FFD411B03200229F5D97CE1706AE1696B
:1010F000002942D0012108437062FFF791FD0546A7
:10110000706A8007CFD4FFF78BFD401B0228F7D908
:10111000A5E0012003900107F0690840029006D184
:10112000F0690843F061F069084006900698019163
:10113000AE4F3868C00510D40398040238682043C5
:101140003860FFF76DFD05463868204205D1FFF78E
:1011500067FD401B6428F7D981E005988768002F58
:1011600003D0052F36D0012F38D0306A0399884339
:101170003062306A0421884333E001218843706281
:10118000FFF74EFD0546706A80078CD5FFF748FDD6
:10119000401B0228F7D962E0706B0421884370631A
:1011A000706BF821884391696DE0706B04210143F5
:1011B0007163706B012188437063FFF731FD054651
:1011C000706B800762D5FFF72BFD411B03200229BE
:1011D000F6D908E1306A042101433162306A03998B
:1011E00008433062FFF71CFD0546814C002F0FD0ED
:1011F000306A80070FD4FFF713FD401BA042F7D9D8
:101200002DE0FFF70DFD411B0320A14200D9EAE0CC
:10121000306A8007F5D402980028059C00D045E785
:10122000F06901998843F06140E701208104326848
:101230000A433260010430680843306001204704EB
:10124000FFF7EEFC0546039800280BD030683842C3
:1012500000D0B8E6FFF7E4FC401B6428F6D9032071
:1012600007B0F0BD059C3068384200D1ABE6FFF70F
:10127000D7FC411B03206429F5D9B4E0706BF82139
:10128000884305998969C90001437163059800780D
:1012900080060BD571680C2001400C2935D1706B8C
:1012A000C00303D50598006A01280AD10598446A4D
:1012B000002C5FD070680C210140082904D1012C5A
:1012C00043D1049807B0F0BD0120020631680492B2
:1012D000914331604706FFF7A3FC0546022C0AD173
:1012E000049C306838425FD0FFF79AFC411B032012
:1012F0000229F6D977E0306838423BD0FFF790FCFE
:10130000411B03200229F6D96DE0716801400829CC
:1013100005D10320C003716801408142BFD0706BCA
:101320000599096A00292BD001210C042043706320
:10133000FFF776FC0546706B2042B7D1FFF770FCD3
:10134000411B03200229F6D94DE00320C203706837
:101350000240F16A059CA36A9A42049D0DD10F22B6
:101360001140236B994208D191040840E16A8842F8
:10137000284638D1002007B0F0BD284607B0F0BDA0
:1013800001210C04A0437063FFF74AFC0546706B13
:1013900020428BD0FFF744FC411B03200229F6D9E1
:1013A00021E0C04600100240F06A0F218843059AF0
:1013B000116B0143F1627B20C00371688143D06AE5
:1013C0000843916A01437160306820433060FFF741
:1013D00027FC044630683842CCD1FFF721FC011BC2
:1013E00003200229F6D907B0F0BDC04600700040C6
:1013F0008813000080B500F09BFD80BDFEE7000073
:1014000081B013490A6802430A60096801400091EB
:10141000009801B07047C04681B0012040040C49DB
:101420000A6802430A60096801400091009801B00F
:101430007047C04681B00120400405490A68024354
:101440000A60096801400091009801B07047C046E9
:101450001410024081B0012040050B490A68024384
:101460000A60096801400091009801B07047C046C9
:1014700081B005490A6802430A6009680140009189
:10148000009801B07047C0461C10024081B0012096
:10149000400405490A6802430A6009680140009156
:1014A000009801B07047C04618100240F0B581B0F6
:1014B0000D460446096800292DD0002709E06A6915
:1014C0002046314600F04CF87F1C29680846F84059
:1014D00021D00126BE400E40F6D06A682046314633
:1014E00000F052F86868401E012804D8AA68204617
:1014F000314600F061F82A692046314600F053F881
:1015000068680228E0D1FF2ED9D86A6920463146A2
:1015100000F01CF8D8E76868401E012803D8EA6884
:10152000204600F03AF8002001B0F0BD0069084004
:10153000411A484248417047014802210160704702
:1015400028040048816270478162704749434943DB
:101550004A430F234B43016A994311430162704789
:10156000090A494349434A430F234B43416A99437C
:10157000114341627047000001481021016070472B
:10158000180000488161704749434A4303234B4395
:10159000016899431143016070474A4343688B4394
:1015A00013434360704749434A4303234B43C16895
:1015B00099431143C160704749434A4303234B4356
:1015C000816899431143816070470122D2034368C7
:1015D00093430B43436070470248016820220A434B
:1015E000026070471C54004010B51F231B020468A2
:1015F0009C4312020A432243026010BD016801228B
:1016000091430160704700000120C00414490A683A
:1016100082430A607047C0460121C90382688A4339
:10162000826070470120C0034B490A6882430A6008
:101630007047C046016801220A43026070470000FB
:101640000120400614490A6802430A607047C046F8
:101650000120400402490A6882430A607047C0467C
:10166000005400400121C90382680A438260704728
:101670000120800308490A6802430A607047C04697
:1016800070B5054C2568054E2E40090401431143F1
:1016900019433143216070BD04540040008000FCB8
:1016A000B0B50D460446FFF7A9FFA968EA682046D1
:1016B000FFF79AFF6968204600F052F82046FFF7CE
:1016C000B9FF2046FFF7A8FFAA692969204600F064
:1016D00033F82869002802D02046FFF7C3FF2968A5
:1016E000204600F021F869692046FFF76EFF0020D0
:1016F000B0BD0000084800684007C00F7047C046F2
:1017000005480168012008407047C046024800684B
:101710008007C00F7047C046185400400148006859
:10172000C0B270472454004003221205036893435B
:101730000B4303607047000011438268024B134063
:101740000B4383607047C04600F8FFFF0248016802
:10175000024A0A40026070470C54004001F8FFFF43
:1017600001617047014908607047C0462854004035
:1017700042490A6802430A607047C0460121C943D2
:1017800001617047016880229143016070470168E0
:1017900001229143016070477C4801688022914397
:1017A00001607047016801220A430260704700002F
:1017B0000248016801220A43026070470C4401405C
:1017C000416901220A4342617047000001480068F4
:1017D0007047C0462404004010B5012805D00428F5
:1017E00005D0102805D1022004E0002002E00120ED
:1017F00000E006202E49095C03228A402D4B185C2C
:101800002D4BC458944301228A402243C25010BD3C
:10181000B0B5012805D0042805D0102805D1022034
:1018200004E0002002E0012000E00620204A125CD3
:10183000F02393401F4C205C1F4C05599D43090C1D
:10184000914029430151B0BD012805D0042805D09D
:10185000102805D1022004E0002002E0012000E071
:10186000062004A1085C0A218140044802688A43DA
:101870000260704700020406080A0C0020040040C1
:10188000012805D0042805D0102805D1022004E045
:10189000002002E0012000E006200549095C0C223E
:1018A0008A400449085C04494358934343507047B5
:1018B000D5410008CE41000818040040B0B50D46DF
:1018C00004460268012081078C4205D021488442E9
:1018D00002D0CD48844204D170208243686810430E
:1018E00000E010461C4A944208DC8C420FD0C649E6
:1018F0008C420CD01B498C4209D028E015498C42FF
:1019000005D016498C4202D015498C421FD10321C3
:1019100009028843E96801432160A968204600F074
:1019200029F82988204600F033F80A48844205D077
:101930000A48844202D00A48844203D1297C2046C6
:1019400000F028F82046FFF73BFF0020B0BD01461D
:10195000E2E7C046002C0140FF2B01400048014057
:101960000044014000200040016901200840704708
:10197000C1627047C16270474162704703480168A5
:1019800001220A4306218A4302607047080400408E
:101990008162704701637047024801687022914379
:1019A0000160704704040040F0B58BB000250A9533
:1019B000099508950795069505950124A005FFF75B
:1019C0001FFD6004FFF71CFDA00427460494FFF7E9
:1019D00017FD0920C406102101912046FFF7B2FD32
:1019E0002021029120460394FFF7ACFD29480226EE
:1019F0003146FFF7A7FD099606950597264805AFDE
:101A00003946FFF753FD0996069505962248394653
:101A1000FFF74CFD09960695049805902046394637
:101A2000FFF744FD09960695059620463946FFF7CF
:101A30003DFD099606950420059020463946FFF79E
:101A400035FD099606950820059020463946FFF792
:101A50002DFD099608950795049C0694019805901C
:101A600003983946FFF722FD0996089507950694D5
:101A70000298059003983946FFF718FD09960895D6
:101A800007950694059603483946FFF70FFD0BB0FE
:101A9000F0BDC0460004004800140048F0B591B005
:101AA000002610960F960E960D960C960B960A969B
:101AB000099608960796069605960496FFF7ACFCDD
:101AC00004200390099008960124079403200290B3
:101AD0000690022001900590670204970920C00635
:101AE000009004AD2946FFF7E1FC039809900896A1
:101AF00007940298069001980590A002049000981F
:101B00002946FFF7D3FCFFF7A5FCFFF78BFDFFF796
:101B10007BFDFFF79DFD0C960B370B970A960D96F4
:101B20000E960F96109605480AA9FFF7B9FDFFF724
:101B300087FDFFF70BFE11B0F0BDC046005400401A
:101B4000F0B58DB000260C960B960A96099608966D
:101B50000796069605960496039602960225284651
:101B6000FFF786FCFFF766FC0124079406950596AF
:101B70000320019004900395402002900920C006A4
:101B8000009002AF3946FFF791FC07940695059641
:101B90000198049003958020029000983946FFF741
:101BA00085FCFFF7EBFE2046FFF716FE2046FFF709
:101BB00067FE21052046FFF72BFE2046FFF744FE77
:101BC00010252846FFF708FE2846FFF759FE610555
:101BD0002846FFF71DFE2846FFF736FE08A90E80AF
:101BE0000B9608480A900996074C2046FFF766FEB8
:101BF0002046FFF7C7FDFFF7CFFEFFF7CDFD0DB085
:101C0000F0BDC046FFFF00000004004080B5002288
:101C100082808260024A026000F01AF880BDC046ED
:101C20000202000070B50446E1200501A6683046B6
:101C3000294601F0BFF960804543751B3C262846C4
:101C4000314601F0B7F920714643A81B607170BDA1
:101C50000A78F92313400B700021C1607047FEE73A
:101C6000704701784170704780B5002000F022F87D
:101C700000F0A2F880BD000010B5832818D81F29F5
:101C800016D853425341134C2478002C00D01A46E6
:101C900007240C400123A340C90884244C43201886
:101CA00051490C5C012A01D09C4300E01C430C54B8
:101CB00010BDC04680B5074909784A1E914181424E
:101CC00001D1002200E0FF22212001014648FEF759
:101CD000FEFB80BD94000020294A1180274908801E
:101CE0007047C046F0B585B00346244800880C789C
:101CF00024180020832C3ED8214C25880F46497893
:101D000049191F2937D803920193787800282CD0DD
:101D100003994B424B4104930199203902910026CB
:101D200003E07878761C86421FD239780029F8D0F3
:101D3000029948438019400079680C5A00250DE04B
:101D40000E480088401980B20D490988891989B266
:101D5000FFF792FF6D1C38788542E2D22046A840FA
:101D60000004049AECD5039AEAE73878034A11880C
:101D700008181080019805B0F0BDC0469000002002
:101D800092000020F0B581B00646007800270028B8
:101D90000FD014460D46C0B229462246FFF7A2FFD7
:101DA00001463078814205D1711C707800280E46BA
:101DB000F1D1384601B0F0BDB0B50B48041F002585
:101DC00028465038C0B200F0E5FF002000F0E2FFE6
:101DD000102000F0DFFF8421204600F0E7FF84346C
:101DE0006D1C042DECD1B0BD98000020704780B56B
:101DF00001210904016000F001F880BD0321415672
:101E0000022282563C2353435918E12212010388CF
:101E10005343591881607047F0B581B01D46009258
:101E20000C460746084600F0C3FA384600F034FF77
:101E300000F00AFE3B4E3080052806D03846214689
:101E400000F0DAFE00F000FEF5E73846FEF7B4FEDB
:101E5000387878700098294600F01DF91349384603
:101E60000F4629463A4601F050F801200B22294638
:101E7000FEF77EFE2068A06000F074FE00F0E4FD36
:101E800030803088042802D030880128F6D130888C
:101E9000042801D1042003E03088012803D1022066
:101EA00039780143397001B0F0BDC046F702002017
:101EB000F0B581B000920C460546084600F0C6FE1B
:101EC000A8682860174F2046294600F069FE00F0F8
:101ED000BBFD38800028F6D03888062811D1124E74
:101EE0003046FFF784FF3046104E314600F0D3F8FD
:101EF000012004223146FEF73BFE204600F0A6FEFC
:101F0000E1E72046009E314600F0C5F8012004229A
:101F10003146FEF72DFE2868A860204600F062F9E1
:101F200001B0F0BDE2020020AC020020C00200209F
:101F3000B0B5401E010E01D00120B0BD054D686056
:101F40000024E043032100F06FF8AC600720286014
:101F50002046B0BD10E000E080B5FEF765FE80BD14
:101F600070B598B00BAC34212046FEF7D7FA0025A7
:101F70000A9509950895079517950226149610203D
:101F80000F900B9601200E9001051691C00315903D
:101F90000695059504950395029501952046FEF753
:101FA000F9FF002814D10A95099508960720079093
:101FB00007A80121FEF720FF002809D10495202061
:101FC000019001A8FEF784FE002801D118B070BD71
:101FD000FEF7D7FD7047000010B5084C2046FFF70C
:101FE000C3FC012808D12046FFF7C8FB2046FFF7B5
:101FF000CEFB03480121017010BDC04600440140E2
:10200000E002002001204005014908607047C046F9
:1020100000E100E0FF20000202490A6882430A60F2
:102020007047C04614E400E0002805D403220346AC
:1020300093430C4A9A1806E00F220240083A032301
:102040009A43074BD2188007C00E8901C9B281405C
:10205000FF23834010689843084310607047C046D0
:102060001CED00E000E400E00A7812064B781B0447
:102070009A188B781B02D218CB78D21882600A7912
:1020800012064B791B049A188B791B02D218C97956
:102090005118C1607047C27A0A7042894A708268DA
:1020A000120A8A708268CA70C27B0A71C2894A7138
:1020B000C268120A8A71C068C871704710B50C46B0
:1020C000282100F077FFFEF723FB214601F010F9ED
:1020D00001F09AF8FEF7D8FA10BD0000F0B581B013
:1020E0000E4604468068FEF713FB314601F07AF88D
:1020F0003146FEF719FA0146E06801F089F8054615
:10210000E060A068FEF704FB3146FEF70DFA01F02F
:102110007BF8324901F0ECF8FEF7B6FA06467F206C
:10212000C7052846394601F04BF8002803D028207F
:1021300000902B4F08E02A49284601F036F8002885
:1021400009D12720C04300902846394601F060F8A5
:10215000E06000988619304601B0F0BDF0B581B05E
:102160000E4604468068FEF7D3FA314601F03AF88D
:102170003146FEF7D9F90146206901F049F80546D4
:102180002061A068FEF7C4FA3146FEF7CDF901F0F0
:102190003BF8124901F0ACF8FEF776FA06467F20CC
:1021A000C7052846394601F00BF8002803D028203F
:1021B00000900B4F08E00A49284600F0F6FF00287F
:1021C00009D12720C04300902846394601F020F865
:1021D000206100988619304601B0F0BD0000204211
:1021E000000080BFB0B582B00546FFF73DFD00207E
:1021F00001242146FFF770FD06202856AB88009089
:10220000074D102107A22846FEF70AF81A4928466A
:102210002246FFF7B7FDFFF7CFFD02B0B0BDC046C5
:1022200080000020253033642A25303264270000E6
:10223000B0B582B00546FFF717FD00200124214606
:10224000FFF74AFD2B7868780090074D102107A210
:102250002846FDF7E5FF084928462246FFF792FD8C
:10226000FFF7AAFD02B0B0BD800000202530336426
:102270002F253033640000000000002010B5014617
:102280000B4C2046FFF774FB2046FFF777FA00213E
:102290002046FFF771FB2046FFF784FA2046FFF740
:1022A00063FB0028FAD02046FFF771FA10BDC04644
:1022B00000200040F0B581B00D460446FFF786FAD5
:1022C000401E80B24249081AC10F40184610EE6005
:1022D000AF68B74254D0AE60F51B51D028461330DA
:1022E00026284DD82046FFF789FD012D1ADB6E1CEC
:1022F0000025CF4F39682046FFF730FF0146012007
:1023000000F05CFD4519761E012EF3DC3968284685
:10231000FFF7D4FEE16808181A4988421FD91A4904
:1023200040181CE0002D1ED5BF1B0025C0480168C9
:102330002046FFF713FF01460026304600F03EFD21
:1023400045197F1EF2D1BA4801682846FFF7B6FE4C
:10235000E168814201D20B4A561C301A0818E0602D
:102360002046FEF712FCA44D20462946FFF793FEB7
:10237000012008222946FEF7FBFB2046FFF732FF2B
:1023800001B0F0BD7FC613008039ECFF10B5074CDB
:102390000F492046FFF7F0FA0120FFF7E9F9102076
:1023A000FFF7E6F92046FFF7FDF910BD00040040F5
:1023B00010B50446FFF70AFA401E80B20449081A15
:1023C000C10F4018401020606060A06010BDC04682
:1023D000FF7F0000F0B581B01C4615460F4606464B
:1023E000012002060221514B3046FFF749F9FFF761
:1023F00087F90028FBD00020FFF7B4F9FFF780F938
:102400000028FBD0F8B2FFF7ADF900270B4B3046A0
:1024100021463A46FFF734F9002C09D0FFF76AF954
:102420000028FBD0FFF77AF9E8557F1CA742F5D1C9
:10243000FFF71EF9FFF7D0F801B0F0BD00240080CF
:1024400070B582B01C46154601AA5170090A117078
:10245000991C0026354B3246FFF712F9FFF756F963
:102460000028FBD001A8805DFFF77CF9FFF748F951
:102470000028FBD0761C022EF4D1002C0AD00026B6
:10248000A85DFFF76FF9FFF73BF90028FBD0761C3A
:10249000A642F5D1FFF7ECF8FFF79EF802B070BD49
:1024A000F0B581B01C4615460F46591C00261F4B3F
:1024B0003246FFF7E5F8FFF729F90028FBD0384648
:1024C000FFF750F9FFF71CF90028FBD0002C09D0CA
:1024D000A85DFFF747F9FFF713F90028FBD0761C3A
:1024E000A642F5D1FFF7C4F8FFF776F801B0F0BDCA
:1024F00070B514460D46511C00260C4B3246FFF7B2
:10250000BFF8FFF7FDF80028FBD0002C09D0A85D2C
:10251000FFF728F9FFF7F4F80028FBD0761CA64255
:10252000F5D1FFF7A5F8FFF757F870BD0020008040
:10253000F0B581B01F4614460D46064601200E2216
:102540001946FEF70CFB28463946FFF78DFD30464D
:102550003946224600F0D2FCE868364FB84203D82C
:10256000781EA968814205D92846FFF740FC284615
:10257000FEF7F1FA2846FEF72DFB2846FEF705FB8D
:102580003046FEF719FBB068B84203D93046214601
:10259000FFF73CFB3046FFF745FB2078C00704D12E
:1025A0002846FFF71FFE01B0F0BD30462146FFF779
:1025B0003FFE01B0F0BDC046B0B50446EB4D296802
:1025C000C06800F08BFC0146002000F0F7FB296892
:1025D000FFF774FDE168081AE0602046FEF7D5FABF
:1025E000E34D20462946FFF756FD012008222946E3
:1025F000FEF7BEFAB0BDC046C0020020B0B5054629
:102600004078002813D00C46401E6870E7480168E7
:102610002846FFF763FD0146002000F0CFFBE0688D
:10262000A968884201D2E24A8018401AE060B0BD31
:102630001400002080C6130082B0FEF7FFFAFFF7F7
:102640008FFCFFF7B1F9FFF729FAFFF779FAFFF7E7
:102650009DFE00F0A9FC00F03FFB8E48FFF70EFE48
:102660008D488E4D8E4EC24B29463246FFF760FF95
:10267000FEF762FFFEF780FF8A48FFF7FFFD0020AC
:10268000012701903946FFF727FBA44C8649092210
:102690002046FDF7DBFE8549204600973A46FFF7C6
:1026A00071FB7D20C000FEF7ABFA814F00F0CCF942
:1026B0003880002800D1E3E039883078491EC2070D
:1026C00020D107292AD8C0467944097949008F4486
:1026D000D4033AD42825D44A284600F009F900F05A
:1026E000B3F938800028FAD03888042800D1B9E03E
:1026F000022800D1BCE0012800D0BCE02846FFF74A
:102700005BFFB2E0072909D87944097949008F4471
:102710003B4303545E6403805F4876E00198388051
:10272000AEE00198286163482946914C2246FFF7A4
:10273000BFFB28462146FFF7AEFC012004222146BC
:10274000FEF716FA9CE0019828612846FEF703FA86
:102750002846874C2146FFF79EFC0120082221468F
:10276000FEF706FA89E00099084330702846804D4C
:102770002946FFF790FC484C20462946324600F097
:10278000C4FB0B2200983BE0800779D5424C2046E1
:102790002946FFF733FF17E0284600F0A9F800F0BC
:1027A00053F938800028FAD0388804284AD0012804
:1027B00054D12846FFF700FF47E0400760D5364C6C
:1027C0002046294600F0D6F82046694D12E0324CEA
:1027D00020463146FFF73CFA04E02F4C20463146B4
:1027E000FFF714FA204633492A46614D2B46FFF77E
:1027F00013FB20462946324600F087FB01200B22BE
:102800002946264DFEF7B4F920463146FFF710FD64
:1028100036E0FE21084030702846554C2146FFF72F
:102820003AFC1D482146324600F06FFB01200B2286
:102830002146FEF79DF92846FEF7A7F91D48FFF748
:10284000B7FD1AE0284600F06FF8134C2046FFF75A
:1028500008FA20463146FFF7FBF9D5E701983880A2
:102860000D4CD1E7284600F05FF80198286104E09C
:1028700000F022F801E0019838802846FFF7B2FC0A
:102880003078C00700D011E728460A49FFF712FD4B
:102890000CE7C04688130000E4020020AC020020D0
:1028A000F702002010270000DC410008080000208B
:1028B000E2020020D002002080B50120014900F092
:1028C0007DFA80BD00350C0010B54100074C204654
:1028D000FFF74EF800212046FFF74EF82046FEF79E
:1028E0004DFF2046FEF75EFF10BDC046004401408C
:1028F000B0B5FFF7B9F90024012520462946FFF7B6
:10290000EBF9F14804720649064A02604160F14958
:102910002A46FFF737FAFFF74FFAB0BD80000020D4
:1029200053482D3E3C2D505570B50446C068B14902
:10293000081A1E4E316800F0D1FA014601252846DA
:1029400000F03CFA3168FFF7B9FBE1680818E06075
:102950002046FEF71AF9064E20463146FFF79BFB4C
:10296000082228463146FEF703F970BD1400002006
:10297000C0020020B0B505464078002815D00C46AE
:10298000401E6870094801682846FFF7A7FB01460A
:10299000012000F013FAE068A9680818E060954982
:1029A000884202D303494018E060B0BD1400002003
:1029B00080C613008039ECFFF0B583B0002819D031
:1029C0000921C906019100240290019D1026284684
:1029D0003146FEF7B9FD04273846FFF74FFC28467D
:1029E0003146FEF7CFFD3846FFF748FC0298641CDD
:1029F0008442EBD303B0F0BDB0B50920C506042175
:102A00002846FEF793FD0124002801D02046B0BDE2
:102A100002212846FEF78AFD0028F7D10121284629
:102A2000FEF784FD0028F1D108212846FEF77EFD3F
:102A30000028EBD147480121FEF778FD0446401EEF
:102A400084412046B0BDC04670B5414E3078002864
:102A500013D10920C406042520462946FEF766FD49
:102A6000012806D0022520462946FEF75FFD0128F1
:102A700045D101203070384805803078012804D1D4
:102A80003220FFF721FF02203070344D2878317852
:102A900002290ED101280CD100242C70FFF7ACFFC5
:102AA00000281AD06420FFF70FFF2D480470032080
:102AB000307028783178002403293AD1012838D1A0
:102AC00000242C70FFF798FF002809D024480178D3
:102AD00004290AD8491C017028E03470204670BDD2
:102AE000002030701C48008870BD1B4801880729F1
:102AF00018D0052918D0022918D1032115E0012585
:102B000020462946FEF712FD012801D13570B2E7B3
:102B100008212046FEF70AFD01280CD135700E4829
:102B2000052112E0082100E0062101806420FFF762
:102B3000CBFE204670BD074801242146FEF7F6FC77
:102B400001289AD1347004480721018095E7C046D6
:102B5000F602002000140048F4020020E0020020E9
:102B6000A8020020B0B5FFF77FF800250124284611
:102B70002146FFF7B1F8544885720649018106499C
:102B8000064A0260416053492246FFF7FBF8FFF70F
:102B900013F9B0BD2D3E00004C4543543C2D534528
:102BA000B0B50D460446FEF711FE401E80B2264920
:102BB000081AC10F4018401068602968814218D077
:102BC0002860411A15D008461330262811D83C2019
:102BD0004143A2685118A160064A02D0914201D82F
:102BE00001E01046A0602046FDF7F4FF204600F00B
:102BF0002DF8B0BD80C61300B0B50D460446FEF7F3
:102C0000E5FD401E80B21049081AC10F401840105F
:102C100068602968814215D02860401A12D00146A8
:102C2000133126290ED8217808182070C0B2FF2849
:102C300003D0012803D8FE2000E0022020702046A7
:102C400000F02AF8B0BDC046FF7F0000B0B582B0EA
:102C50000546FFF709F8002001242146FFF73CF85C
:102C6000022028562B880090074D102107A22846E5
:102C7000FDF7D6FA174928462246FFF783F8FFF7F3
:102C80009BF802B0B0BDC046800000205325303311
:102C9000642A253032642700B0B50546FEF7E4FF0C
:102CA000002001242146FFF717F82B78064D10214C
:102CB00006A22846FDF7B4FA064928462246FFF741
:102CC00061F8FFF779F8B0BD80000020532530335C
:102CD000640000000000002010B5AE2000F05AF89B
:102CE000202000F057F80024204600F053F8B020D0
:102CF00000F050F8C82000F04DF8204600F04AF8E7
:102D0000102000F047F8402000F044F8812000F047
:102D100041F8FF2000F03EF8A12000F03BF8A6208B
:102D200000F038F8A82000F035F81F2000F032F845
:102D3000A42000F02FF8D32000F02CF8204600F05B
:102D400029F8D52000F026F8F02000F023F8D9204B
:102D500000F020F8222000F01DF8DA2000F01AF828
:102D6000122000F017F8DB2000F014F8022000F029
:102D700011F8AF2000F00EF82046FEF79BFFFFF79A
:102D80001BF8024804800248048010BD9200002015
:102D90009000002080B50449487000200870782019
:102DA0000222FFF7A5FB80BDF802002080B5024695
:102DB000CBB278204021FFF773FB80BDF0B587B020
:102DC0000F4606A900240C80002805D00920C00663
:102DD0002021FEF7D7FB04E00920C0062021FEF7E2
:102DE000B3FB0620FFF74AFA64263846314600F066
:102DF000E1F80146642F52D3364D0224284605914E
:102E00002146FEF7BFFB0520FFF738FA3046FFF7F3
:102E1000D3FD28462146FEF797FBFFF715FE06A9CE
:102E20000880059901220129049100D804920728FD
:102E3000019702D1039234462CE004984643009651
:102E4000642601270297234D2348FFF717FA0598B8
:102E50008742029800D3002003900498B84218D00B
:102E6000022428462146FEF78DFB0520FFF706FACF
:102E70006420FFF7A1FD28462146FEF765FBFFF71A
:102E8000E3FD06A908807F1C643607283446DBD1A1
:102E900000E0009C03980028019F059916D164204A
:102EA00048433F1A11D00B4E022530462946FEF703
:102EB00069FB0520FFF7E2F9F8B2FFF77DFD304628
:102EC0002946FEF741FBE61900E02646304607B0EA
:102ED000F0BDC04600040048DC05000010B50C46FB
:102EE000FDF716FC2146FDF71FFB034900F000FA31
:102EF000FDF7CAFB10BDC046000020420B7A4370AC
:102F00004B7A0370887A1070704743780B720078A0
:102F1000487210788872704710B586B00024059406
:102F2000049403940294019401200002FEF7A0FA95
:102F300001A92F2008800494FF2003900294044CE0
:102F40002046FEF7BBFC2046FEF71CFC06B010BD79
:102F50000020004010B586B000240594049403942A
:102F600002940194FEF792FA01A90C740B480880B0
:102F700004940B48039002940A4C2046FEF79EFCF2
:102F80002046FEF7FFFB2046FEF7F8FBFEF710FC9D
:102F9000FFF740F8FFF736F806B010BDBF5D000040
:102FA000FFFF00000044014080B5FFF7B5FFFFF7C9
:102FB000D1FF80BD43088B421AD3002203098B4204
:102FC00079D3030A8B425ED3030B8B4242D3030CAB
:102FD0008B4227D30902FF2212BA030C8B4202D381
:102FE0001212090203D0030B8B4233D31AE0D3E051
:102FF000411A8041401C704703460B4371D443087B
:103000008B42F5D3002203098B4254D3030A8B422F
:1030100039D3030B8B421DD3030C8B4202D394464E
:103020006EE0090AC30B8B4201D3CB03C01A524195
:10303000830B8B4201D38B03C01A5241430B8B424B
:1030400001D34B03C01A5241030B8B4201D30B0334
:10305000C01A5241C30A8B4201D3CB02C01A52415B
:10306000830A8B4201D38B02C01A5241430A8B421E
:1030700001D34B02C01A5241030A8B4201D30B0207
:10308000C01A5241CDD2C3098B4201D3CB01C01A21
:10309000524183098B4201D38B01C01A524143092B
:1030A0008B4201D34B01C01A524103098B4201D319
:1030B0000B01C01A5241C3088B4201D3CB00C01A86
:1030C000524183088B4201D38B00C01A52414308FE
:1030D0008B4201D34B00C01A5241411A5241100099
:1030E0007047CA0F00D04942031000D340425340FA
:1030F00000229C4603098B422DD3030A8B4212D334
:103100008901FC2212BA030A8B420CD38901921165
:103110008B4208D3890192118B4204D3890137D0A5
:10312000921100E08909C3098B4201D3CB01C01A77
:10313000524183098B4201D38B01C01A524143098A
:103140008B4201D34B01C01A524103098B4201D378
:103150000B01C01A5241C3088B4201D3CB00C01AE5
:10316000524183088B4201D38B00C01A5241D9D2FD
:1031700043088B4201D34B00C01A5241411A00D27E
:1031800001465241104663465B1000D340427047EF
:1031900063465B1000D3404201B50021004201D0DC
:1031A000C9430846C046C04602BD10B500F076F8D7
:1031B000EFF30080800001D5012010BD002010BD7C
:1031C00010B500F06BF8EFF300804000800F01288D
:1031D00000D0002010BD30380A2801D201207047ED
:1031E0000020704770B50546C80DC04300060C4668
:1031F000000E04D0600002D10120FDF791FA2146B3
:103200002846FDF725FB70BD10B5FDF7ADFB10BDE1
:1032100070B50125ED0704004C4020D4441A01D2BA
:10322000001B0919C60D4B00F2B2FF2A29D01B0E54
:103230002CD000020C0228432C43D31ADC40051981
:1032400010D2280A02D3401C6D0611D0761EF60556
:103250008019FF2A00DA70BDC00DC00570BD69403D
:1032600000F0A4F801200543C541521C761CE8E794
:1032700064089C40C90161408900E7D10124A04352
:10328000E4E71B0E440200D0034870BD002AFCD1C5
:10329000C00FC00770BD00BF0000C07F0123DB0569
:1032A00002000A430DD4DA4203D49A4207D488427A
:1032B0007047D84214D4D94212D488427047804211
:1032C0007047DA4203D59A42F9D5814270475B00D4
:1032D0004200DA4204D24A00DA4201D28142704707
:1032E00010B5024AFDF784FB10BD00BF09001304AE
:1032F00070B5420064414B005C41120E39D01B0E88
:1033000038D0FF2A3CD0FF2B3AD0D2187F3A400267
:103310004902400A490A4518ED0106004E43000AD9
:10332000090A48430104731A4019190C4318990FEC
:1033300004D05B08012149075B1A521CD80904D349
:10334000401CF50301D19D0607D0FF2A08D2D50500
:1033500006D0E4072043401970BD0125A843F4E7D7
:10336000002A01DCE00770BD2402FF202043C005D5
:1033700070BD1B0EFF2A03D0FF2B01D0E00770BDEC
:10338000FF2636064500B54206D84D00B54203D8A3
:10339000D218FF2A00D0E7E7004870BD0000C07FC8
:1033A00070B50125ED0704004C4022D4441A02D226
:1033B0006C40001B0919C60D4B00F2B2FF2A4BD01E
:1033C0001B0E50D000020C02A8432C43D31ADC4041
:1033D000051B05D5AD0019D36D08761E521E37D0DA
:1033E000F605280A01D2801970BD70416D0603D020
:1033F00070BD6940FFF712FF9C400902614049001F
:1034000001D0401E70BD0124A04370BD6D081DD0C9
:1034100001202B0C01D12D0410302B0E01D12D02D7
:1034200008302B0F01D12D01001DAB0F01D1AD00D4
:10343000801CEB0F01D16D00401C361A121A6D0072
:10344000680AF5054019012A02DB70BD002070BD35
:10345000C036300AC00770BD1B0E440201D1FF2BDD
:1034600000D1024870BD002AF0D070BD0000C07FBE
:10347000040000080000000000000002000100003D
:10348000108182838485868788898B8C8D8E8F912D
:103490009293959697999A9C9D9FA0A2A3A5A7A861
:1034A000AAACAEB0B2B3B5B7B9BCBEC0C2C5C7C98D
:1034B000CCCED1D4D7D9DCDFE2E6E9ECF0F3F7FAF1
:1034C000FE000000000000000001020304060708DF
:1034D00009000000000000000000000000000000E3
:1034E00000000000000000000000000000000000DC
:1034F0000000000000000000000C000C000C000C9C
:10350000000C000C000C000C000C000C000C000067
:10351000000C000C0000000000000000001B001B5D
:10352000001B001B001B000000000000000000004A
:10353000000000000000000000000000000000008B
:103540008019801980198019C07FC07F80190033CD
:10355000C07FC07F00330033003300330000000021
:1035600000000000001E003F807580650074003C74
:10357000001E00078005806580658075003F001E85
:103580000004000400000000007000D840D8C0D83B
:1035900080D900730006000C801BC036C066C04690
:1035A000C00680030000000000000000001E003F75
:1035B000003300330033001E000CC03CC066806343
:1035C00080618063C03E801C00000000000000009D
:1035D000000C000C000C000C000C000000000000AF
:1035E00000000000000000000000000000000000DB
:1035F0000000800000010003000600060004000C2B
:10360000000C000C000C000C000C0004000600066E
:10361000000300018000002000100018000C000CC6
:10362000000400060006000600060006000600046E
:10363000000C000C0018001000208003400440041F
:1036400040048003000000000000000000000000B3
:10365000000000000000000000000000000000006A
:1036600000000000000C000C000C000CC0FFC0FFAC
:10367000000C000C000C000C00000000000000001A
:10368000000000000000000000000000000000003A
:10369000000000000000000000000000000C000C12
:1036A000000400040008000000000000000000000A
:1036B0000000000000000000001E001E00000000CE
:1036C00000000000000000000000000000000000FA
:1036D00000000000000000000000000000000000EA
:1036E00000000000000C000C0000000000000000C2
:1036F0000003000300030006000600060006000C9D
:10370000000C000C000C001800180018000000004D
:1037100000000000001E003F003380618061806176
:10372000806180618061806180610033003F001EA4
:1037300000000000000000000006000E001E003621
:103740000026000600060006000600060006000629
:10375000000600060000000000000000001E003F00
:10376000807380618061800100030006000C0018F6
:1037700000300060807F807F0000000000000000BB
:10378000001C003E006300630003000E000E0003F7
:103790008001800180618073003F001E00000000F6
:1037A000000000000006000E000E001E001E0016A5
:1037B000003600360066807F807F00060006000627
:1037C0000000000000000000007F007F006000603B
:1037D0000060006E007F80638001800180618073E3
:1037E000003F001E0000000000000000001E003F1F
:1037F000803380610060006E007F80738061806133
:1038000080618033003F001E0000000000000000C7
:10381000807F807F80010003000300060006000C0B
:10382000000C000C00080018001800180000000030
:1038300000000000001E003F806380618061002165
:10384000001E003F8061806180618061003F001E3A
:103850000000000000000000001E003F00738061B7
:10386000806180618073803F801D80018061007372
:10387000003F001E000000000000000000000000EB
:1038800000000000000C000C000000000000000020
:1038900000000000000C000C000000000000000010
:1038A00000000000000000000000000C000C000000
:1038B0000000000000000000000C000C00040004E8
:1038C0000008000000000000000080008003000EDF
:1038D000003800600038000E800380000000000007
:1038E00000000000000000000000000000000000D8
:1038F000807F807F00000000807F807F00000000CC
:1039000000000000000000000000000000000000B7
:10391000000000400070001C000780010007001C30
:1039200000700040000000000000000000000000E7
:10393000001F803FC071C060C000C001800300074D
:10394000000E000C000C0000000C000C0000000039
:1039500000000000001E003F803180718063806F96
:10396000806D806D806F806700600032003E001CBB
:103970000000000000000000000E000E001B001BF5
:10398000001B001B80318031803F803F8031C06050
:10399000C060C0600000000000000000007C007EED
:1039A0000063006300630063007E007E006380614B
:1039B00080618063007F007E000000000000000046
:1039C000001E003F80318061006000600060006088
:1039D0000060006080618031003F001E0000000038
:1039E00000000000007C007F0063806380618061D4
:1039F000806180618061806100630063007E007C83
:103A00000000000000000000807F807F00600060F8
:103A100000600060007F007F006000600060006068
:103A2000807F807F0000000000000000807F807F9A
:103A30000060006000600060007F007F0060006048
:103A400000600060006000600000000000000000F6
:103A5000001E003F80318061006000600060806374
:103A60008063806180618031803F001E0000000023
:103A70000000000080618061806180618061806100
:103A8000807F807F806180618061806180618061F2
:103A90000000000000000000003F003F000C000C90
:103AA000000C000C000C000C000C000C000C000CB6
:103AB000003F003F00000000000000008001800186
:103AC000800180018001800180018001800180618E
:103AD00080618073003F001E0000000000000000B5
:103AE000C0608061006300660066006C0078007C46
:103AF00000660066006380618061C06000000000B5
:103B00000000000000600060006000600060006075
:103B1000006000600060006000600060807F807F67
:103B20000000000000000000C071C071C07BC07ABE
:103B3000C06AC06AC06EC064C060C060C060C0605F
:103B4000C060C06000000000000000008071807153
:103B5000807980798079806D806D806D80658067E7
:103B600080678067806380630000000000000000C1
:103B7000001E003F00338061806180618061806150
:103B80008061806180610033003F001E0000000002
:103B900000000000007E007F8063806180618061A2
:103BA0008063007F007E0060006000600060006055
:103BB0000000000000000000001E003F0033806194
:103BC0008061806180618061806180658067003391
:103BD000803F401E0000000000000000007E007FCB
:103BE0008063806180618063007F007E0066006387
:103BF000006380618061C060000000000000000080
:103C0000000E001F8031803100300038001E000798
:103C10008003806180618031003F001E0000000051
:103C200000000000C0FFC0FF000C000C000C000CE6
:103C3000000C000C000C000C000C000C000C000C24
:103C400000000000000000008061806180618061F0
:103C5000806180618061806180618061806180734A
:103C6000003F001E0000000000000000C060C060B7
:103C7000C060803180318031001B001B001B001BA5
:103C8000000E000E000E0004000000000000000006
:103C9000C0C0C0C0C0C0C0C0C0C0C0CC804C804C80
:103CA000805E8052805280738061806100000000DD
:103CB00000000000C0C0806080610033003B001E37
:103CC000000C000C001E001F003B80718061C0C012
:103CD0000000000000000000C0C08061806100336F
:103CE0000033001E001E000C000C000C000C000C29
:103CF000000C000C0000000000000000803F803F2E
:103D00008001000300030006000C000C00180018DE
:103D100000300060807F807F000000000000000015
:103D20000000000000000000000000000000000093
:103D30000000001000100010001000100010000023
:103D400000100000000000280028002800000000EB
:103D50000000000000000000000000240024007C9F
:103D600000240048007C00480048000000000038A3
:103D70000054005000380014005400540038001063
:103D800000000020005400580030002800540014A7
:103D90000008000000000010002800280010003477
:103DA000004800480034000000000010001000101F
:103DB00000000000000000000000000000000008FB
:103DC0000010002000200020002000200020001013
:103DD0000008002000100008000800080008000883
:103DE000000800100020001000380010002800001B
:103DF00000000000000000000000000000000010B3
:103E00000010007C00100010000000000000000006
:103E10000000000000000000000000000010001082
:103E2000001000000000000000000000003800004A
:103E30000000000000000000000000000000000082
:103E40000000000000100000000000080008001042
:103E500000100010001000200020000000000038BA
:103E60000044004400440044004400440038000082
:103E70000000001000300050001000100010001072
:103E80000010000000000038004400440004000856
:103E900000100020007C00000000003800440004F6
:103EA000001800040004004400380000000000086E
:103EB0000018002800280048007C000800080000C6
:103EC0000000007C00400040007800040004004432
:103ED0000038000000000038004400400078004432
:103EE00000440044003800000000007C000400088A
:103EF000001000100020002000200000000000380A
:103F000000440044003800440044004400380000ED
:103F100000000038004400440044003C0004004419
:103F20000038000000000000000000100000000049
:103F30000000000000100000000000000000000071
:103F40000010000000000000001000100010000031
:103F50000000000C003000400030000C00000000A9
:103F60000000000000000000007C0000007C000059
:103F700000000000000000000000006000180004C5
:103F80000018006000000000000000380044000439
:103F900000080010001000000010000000000038B1
:103FA0000044004C0054005C004000400038000019
:103FB000000000100028002800280028007C004491
:103FC00000440000000000780044004400780044F1
:103FD0000044004400780000000000380044004025
:103FE0000040004000400044003800000000007025
:103FF00000480044004400440044004800700000B1
:104000000000007C00400040007C00400040004078
:10401000007C00000000007C004000400078004070
:104020000040004000400000000000380044004014
:104030000040005C004400440038000000000044E0
:1040400000440044007C004400440044004400005C
:1040500000000038001000100010001000100010C8
:104060000038000000000004000400040004000404
:1040700000040044003800000000004400480050E4
:10408000006000500048004800440000000000406C
:10409000004000400040004000400040007C000024
:1040A00000000044006C006C0054004400440044D4
:1040B0000044000000000044006400640054005408
:1040C000004C004C00440000000000380044004454
:1040D0000044004400440044003800000000007820
:1040E00000440044004400780040004000400000CC
:1040F00000000038004400440044004400440054E0
:1041000000380004000000780044004400440078B7
:10411000004800480044000000000038004400400F
:104120000030000800040044003800000000007C5B
:10413000001000100010001000100010001000000F
:104140000000004400440044004400440044004493
:10415000003800000000004400440044002800280B
:10416000002800100010000000000044004400542B
:1041700000540054006C0028002800000000004497
:10418000002800280010001000280028004400002B
:104190000000004400440028002800100010001017
:1041A000001000000000007C000400080010001057
:1041B00000200040007C00000000001800100010EB
:1041C0000010001000100010001000100018000077
:1041D0000000040404000008000000087374617209
:1041E000742E2E2E0000000008420008000000205F
:1041F00020000000040100082842000820000020E0
:10420000E0080000200100080B120000D234000872
:10421000070A00001E3D000800127A009A998142A8
:08422000010000000400000091
:04000005080000C12E
:00000001FF
